Component: ARM Compiler 5.06 update 7 (build 960) Tool: armlink [4d3601]

==============================================================================

Section Cross References

    main.o(i.HRTIM1_Master_IRQHandler) refers to my_board.o(i.PWM_ClearITPendingBit) for PWM_ClearITPendingBit
    main.o(i.HRTIM1_Master_IRQHandler) refers to my_board.o(i.get_middle_num_adc) for get_middle_num_adc
    main.o(i.HRTIM1_Master_IRQHandler) refers to key_elab.o(i.TPHINV_KEY_step) for TPHINV_KEY_step
    main.o(i.HRTIM1_Master_IRQHandler) refers to elab_subsystem.o(i.TPHINV_ELAB_step) for TPHINV_ELAB_step
    main.o(i.HRTIM1_Master_IRQHandler) refers to d2f.o(.text) for __aeabi_d2f
    main.o(i.HRTIM1_Master_IRQHandler) refers to my_board.o(i.my_pwm_update) for my_pwm_update
    main.o(i.HRTIM1_Master_IRQHandler) refers to my_board.o(i.my_pwm_update_gai) for my_pwm_update_gai
    main.o(i.HRTIM1_Master_IRQHandler) refers to key_elab.o(.bss) for rtY_TPHINV_KEY
    main.o(i.HRTIM1_Master_IRQHandler) refers to elab_subsystem.o(.bss) for rtU_TPHINV_ELAB
    main.o(i.HRTIM1_Master_IRQHandler) refers to my_board.o(.bss) for adc_sample_buff
    main.o(i.main_circle_func) refers to system_stm32f30x.o(i.delay_ms) for delay_ms
    main.o(i.main_circle_func) refers to key.o(i.KEY_Scan) for KEY_Scan
    main.o(i.main_circle_func) refers to oled.o(i.OLED_ShowNumf) for OLED_ShowNumf
    main.o(i.main_circle_func) refers to dr_led.o(i.led1_on) for led1_on
    main.o(i.main_circle_func) refers to dr_led.o(i.led1_off) for led1_off
    main.o(i.main_circle_func) refers to dr_led.o(i.led2_on) for led2_on
    main.o(i.main_circle_func) refers to dr_led.o(i.led2_off) for led2_off
    main.o(i.main_circle_func) refers to dr_led.o(i.led3_on) for led3_on
==============================================================================

Removing Unused input sections from the image.

    Removing main.o(.rev16_text), (4 bytes).
    Removing main.o(.revsh_text), (4 bytes).
    Removing main.o(.bss), (24 bytes).
    Removing stm32f3xx_it.o(.rev16_text), (4 bytes).
    Removing stm32f3xx_it.o(.revsh_text), (4 bytes).
    Removing system_stm32f30x.o(.rev16_text), (4 bytes).
    Removing system_stm32f30x.o(.revsh_text), (4 bytes).
    Removing system_stm32f30x.o(i.SystemCoreClockUpdate), (160 bytes).
    Removing system_stm32f30x.o(i.delay_us), (24 bytes).
    Removing elab_subsystem.o(.rev16_text), (4 bytes).
    Removing elab_subsystem.o(.revsh_text), (4 bytes).
    Removing my_board.o(.rev16_text), (4 bytes).
    Removing my_board.o(.revsh_text), (4 bytes).
    Removing my_board.o(i.Dac1_Init), (92 bytes).
    Removing my_board.o(i.fgetc), (32 bytes).
    Removing my_board.o(i.fputc), (36 bytes).
    Removing pid_yyds.o(i.IncPIDCal), (130 bytes).
    Removing pid_yyds.o(i.PI_Init), (18 bytes).
==============================================================================

Image Symbol Table

    Local Symbols

    Symbol Name                              Value     Ov Type        Size  Object(Section)

    ../clib/microlib/errno.c                 0x00000000   Number         0  errno.o ABSOLUTE
    ../clib/microlib/init/entry.s            0x00000000   Number         0  entry7a.o ABSOLUTE
    ../clib/microlib/init/entry.s            0x00000000   Number         0  entry12a.o ABSOLUTE
    ../clib/microlib/init/entry.s            0x00000000   Number         0  entry11b.o ABSOLUTE
    ../clib/microlib/init/entry.s            0x00000000   Number         0  entry11a.o ABSOLUTE
    ../clib/microlib/init/entry.s            0x00000000   Number         0  entry10a.o ABSOLUTE
    ../clib/microlib/init/entry.s            0x00000000   Number         0  entry9b.o ABSOLUTE
    ../clib/microlib/init/entry.s            0x00000000   Number         0  entry9a.o ABSOLUTE
    ../clib/microlib/init/entry.s            0x00000000   Number         0  entry8b.o ABSOLUTE
    ../clib/microlib/init/entry.s            0x00000000   Number         0  entry8a.o ABSOLUTE
    ../clib/microlib/init/entry.s            0x00000000   Number         0  entry7b.o ABSOLUTE
    ../clib/microlib/init/entry.s            0x00000000   Number         0  entry.o ABSOLUTE
    ../clib/microlib/init/entry.s            0x00000000   Number         0  entry12b.o ABSOLUTE
    ../clib/microlib/init/entry.s            0x00000000   Number         0  entry5.o ABSOLUTE
    ../clib/microlib/init/entry.s            0x00000000   Number         0  entry10b.o ABSOLUTE
    ../clib/microlib/init/entry.s            0x00000000   Number         0  entry2.o ABSOLUTE
    ../clib/microlib/longlong.c              0x00000000   Number         0  llshl.o ABSOLUTE
    ../clib/microlib/longlong.c              0x00000000   Number         0  llushr.o ABSOLUTE
    ../clib/microlib/longlong.c              0x00000000   Number         0  llsshr.o ABSOLUTE
    ../clib/microlib/string/memset.c         0x00000000   Number         0  memseta.o ABSOLUTE
    ../clib/microlib/stubs.s                 0x00000000   Number         0  iusefp.o ABSOLUTE
    ../fplib/microlib/d2f.c                  0x00000000   Number         0  d2f.o ABSOLUTE
    ../fplib/microlib/f2d.c                  0x00000000   Number         0  f2d.o ABSOLUTE
    ../fplib/microlib/fpadd.c                0x00000000   Number         0  dadd.o ABSOLUTE
    ../fplib/microlib/fpdiv.c                0x00000000   Number         0  ddiv.o ABSOLUTE
    ../fplib/microlib/fpepilogue.c           0x00000000   Number         0  fepilogue.o ABSOLUTE
    ../fplib/microlib/fpepilogue.c           0x00000000   Number         0  depilogue.o ABSOLUTE
    ../fplib/microlib/fpfix.c                0x00000000   Number         0  dfixui.o ABSOLUTE
    ../fplib/microlib/fpfix.c                0x00000000   Number         0  dfixi.o ABSOLUTE
    ../fplib/microlib/fpflt.c                0x00000000   Number         0  dfltui.o ABSOLUTE
    ../fplib/microlib/fpflt.c                0x00000000   Number         0  dflti.o ABSOLUTE
    ../fplib/microlib/fpmul.c                0x00000000   Number         0  dmul.o ABSOLUTE
    ../fplib/microlib/fpneg.c                0x00000000   Number         0  dneg.o ABSOLUTE
    ../mathlib/cos_i.c                       0x00000000   Number         0  cos_i.o ABSOLUTE
    ../mathlib/dunder.c                      0x00000000   Number         0  dunder.o ABSOLUTE
    ../mathlib/fabs.c                        0x00000000   Number         0  fabs.o ABSOLUTE
    ../mathlib/fpclassify.c                  0x00000000   Number         0  fpclassify.o ABSOLUTE
    ../mathlib/poly.c                        0x00000000   Number         0  poly.o ABSOLUTE
    ../mathlib/rred.c                        0x00000000   Number         0  rred.o ABSOLUTE
    ../mathlib/sin.c                         0x00000000   Number         0  sin_x.o ABSOLUTE
    ../mathlib/sin.c                         0x00000000   Number         0  sin.o ABSOLUTE
    ../mathlib/sin_i.c                       0x00000000   Number         0  sin_i_x.o ABSOLUTE
    ../mathlib/sin_i.c                       0x00000000   Number         0  sin_i.o ABSOLUTE
    ../mathlib/sqrtf.c                       0x00000000   Number         0  sqrtf.o ABSOLUTE
    ../mathlib/sqrtf.c                       0x00000000   Number         0  sqrtf_x.o ABSOLUTE
    ..\BasicMathFunctions\arm_abs_f32.c      0x00000000   Number         0  arm_abs_f32.o ABSOLUTE
    ..\FastMathFunctions\arm_cos_f32.c       0x00000000   Number         0  arm_cos_f32.o ABSOLUTE
    ..\FastMathFunctions\arm_sin_f32.c       0x00000000   Number         0  arm_sin_f32.o ABSOLUTE
    ..\\BasicMathFunctions\\arm_abs_f32.c    0x00000000   Number         0  arm_abs_f32.o ABSOLUTE
    ..\\FastMathFunctions\\arm_cos_f32.c     0x00000000   Number         0  arm_cos_f32.o ABSOLUTE
    ..\\FastMathFunctions\\arm_sin_f32.c     0x00000000   Number         0  arm_sin_f32.o ABSOLUTE
    ..\\api\\OLED\\oled.c                    0x00000000   Number         0  oled.o ABSOLUTE
    ..\\cntl_lib_yyds\\SVPWM_CTR.c           0x00000000   Number         0  svpwm_ctr.o ABSOLUTE
    ..\\cntl_lib_yyds\\my_board.c            0x00000000   Number         0  my_board.o ABSOLUTE
    ..\\driver\\dr_led.c                     0x00000000   Number         0  dr_led.o ABSOLUTE
    ..\\driver\\key.c                        0x00000000   Number         0  key.o ABSOLUTE
    ..\\fwlib\\src\\stm32f30x_adc.c          0x00000000   Number         0  stm32f30x_adc.o ABSOLUTE
    ..\\fwlib\\src\\stm32f30x_can.c          0x00000000   Number         0  stm32f30x_can.o ABSOLUTE
    ..\\fwlib\\src\\stm32f30x_comp.c         0x00000000   Number         0  stm32f30x_comp.o ABSOLUTE
    ..\\fwlib\\src\\stm32f30x_crc.c          0x00000000   Number         0  stm32f30x_crc.o ABSOLUTE
    ..\\fwlib\\src\\stm32f30x_dac.c          0x00000000   Number         0  stm32f30x_dac.o ABSOLUTE
    ..\\fwlib\\src\\stm32f30x_dbgmcu.c       0x00000000   Number         0  stm32f30x_dbgmcu.o ABSOLUTE
    ..\\fwlib\\src\\stm32f30x_dma.c          0x00000000   Number         0  stm32f30x_dma.o ABSOLUTE
    ..\\fwlib\\src\\stm32f30x_exti.c         0x00000000   Number         0  stm32f30x_exti.o ABSOLUTE
    ..\\fwlib\\src\\stm32f30x_flash.c        0x00000000   Number         0  stm32f30x_flash.o ABSOLUTE
    ..\\fwlib\\src\\stm32f30x_gpio.c         0x00000000   Number         0  stm32f30x_gpio.o ABSOLUTE
    ..\\fwlib\\src\\stm32f30x_hrtim.c        0x00000000   Number         0  stm32f30x_hrtim.o ABSOLUTE
    ..\\fwlib\\src\\stm32f30x_i2c.c          0x00000000   Number         0  stm32f30x_i2c.o ABSOLUTE
    ..\\fwlib\\src\\stm32f30x_iwdg.c         0x00000000   Number         0  stm32f30x_iwdg.o ABSOLUTE
    ..\\fwlib\\src\\stm32f30x_misc.c         0x00000000   Number         0  stm32f30x_misc.o ABSOLUTE
    ..\\fwlib\\src\\stm32f30x_opamp.c        0x00000000   Number         0  stm32f30x_opamp.o ABSOLUTE
    ..\\fwlib\\src\\stm32f30x_pwr.c          0x00000000   Number         0  stm32f30x_pwr.o ABSOLUTE
    ..\\fwlib\\src\\stm32f30x_rcc.c          0x00000000   Number         0  stm32f30x_rcc.o ABSOLUTE
    ..\\fwlib\\src\\stm32f30x_rtc.c          0x00000000   Number         0  stm32f30x_rtc.o ABSOLUTE
    ..\\fwlib\\src\\stm32f30x_spi.c          0x00000000   Number         0  stm32f30x_spi.o ABSOLUTE
    ..\\fwlib\\src\\stm32f30x_syscfg.c       0x00000000   Number         0  stm32f30x_syscfg.o ABSOLUTE
    ..\\fwlib\\src\\stm32f30x_tim.c          0x00000000   Number         0  stm32f30x_tim.o ABSOLUTE
    ..\\fwlib\\src\\stm32f30x_usart.c        0x00000000   Number         0  stm32f30x_usart.o ABSOLUTE
    ..\\fwlib\\src\\stm32f30x_wwdg.c         0x00000000   Number         0  stm32f30x_wwdg.o ABSOLUTE
    ..\\main\\ELAB_subsystem.c               0x00000000   Number         0  elab_subsystem.o ABSOLUTE
    ..\\main\\main.c                         0x00000000   Number         0  main.o ABSOLUTE
    ..\\main\\stm32f3xx_it.c                 0x00000000   Number         0  stm32f3xx_it.o ABSOLUTE
    ..\\main\\system_stm32f30x.c             0x00000000   Number         0  system_stm32f30x.o ABSOLUTE
    ..\\measure\\power_meas_sine_analyzer.c  0x00000000   Number         0  power_meas_sine_analyzer.o ABSOLUTE
    ..\\measure\\spll_1ph_sogi.c             0x00000000   Number         0  spll_1ph_sogi.o ABSOLUTE
    ..\api\OLED\oled.c                       0x00000000   Number         0  oled.o ABSOLUTE
    ..\cm4_core\startup_stm32f334x8.s        0x00000000   Number         0  startup_stm32f334x8.o ABSOLUTE
    ..\cntl_lib_yyds\SVPWM_CTR.c             0x00000000   Number         0  svpwm_ctr.o ABSOLUTE
    ..\cntl_lib_yyds\my_board.c              0x00000000   Number         0  my_board.o ABSOLUTE
    ..\cntl_lib_yyds\pid_yyds.c              0x00000000   Number         0  pid_yyds.o ABSOLUTE
    ..\driver\dr_led.c                       0x00000000   Number         0  dr_led.o ABSOLUTE
    ..\driver\key.c                          0x00000000   Number         0  key.o ABSOLUTE
    ..\fwlib\src\stm32f30x_adc.c             0x00000000   Number         0  stm32f30x_adc.o ABSOLUTE
    ..\fwlib\src\stm32f30x_can.c             0x00000000   Number         0  stm32f30x_can.o ABSOLUTE
    ..\fwlib\src\stm32f30x_comp.c            0x00000000   Number         0  stm32f30x_comp.o ABSOLUTE
    ..\fwlib\src\stm32f30x_crc.c             0x00000000   Number         0  stm32f30x_crc.o ABSOLUTE
    ..\fwlib\src\stm32f30x_dac.c             0x00000000   Number         0  stm32f30x_dac.o ABSOLUTE
    ..\fwlib\src\stm32f30x_dbgmcu.c          0x00000000   Number         0  stm32f30x_dbgmcu.o ABSOLUTE
    ..\fwlib\src\stm32f30x_dma.c             0x00000000   Number         0  stm32f30x_dma.o ABSOLUTE
    ..\fwlib\src\stm32f30x_exti.c            0x00000000   Number         0  stm32f30x_exti.o ABSOLUTE
    ..\fwlib\src\stm32f30x_flash.c           0x00000000   Number         0  stm32f30x_flash.o ABSOLUTE
    ..\fwlib\src\stm32f30x_gpio.c            0x00000000   Number         0  stm32f30x_gpio.o ABSOLUTE
    ..\fwlib\src\stm32f30x_hrtim.c           0x00000000   Number         0  stm32f30x_hrtim.o ABSOLUTE
    ..\fwlib\src\stm32f30x_i2c.c             0x00000000   Number         0  stm32f30x_i2c.o ABSOLUTE
    ..\fwlib\src\stm32f30x_iwdg.c            0x00000000   Number         0  stm32f30x_iwdg.o ABSOLUTE
    ..\fwlib\src\stm32f30x_misc.c            0x00000000   Number         0  stm32f30x_misc.o ABSOLUTE
    ..\fwlib\src\stm32f30x_opamp.c           0x00000000   Number         0  stm32f30x_opamp.o ABSOLUTE
    ..\fwlib\src\stm32f30x_pwr.c             0x00000000   Number         0  stm32f30x_pwr.o ABSOLUTE
    ..\fwlib\src\stm32f30x_rcc.c             0x00000000   Number         0  stm32f30x_rcc.o ABSOLUTE
    ..\fwlib\src\stm32f30x_rtc.c             0x00000000   Number         0  stm32f30x_rtc.o ABSOLUTE
    ..\fwlib\src\stm32f30x_spi.c             0x00000000   Number         0  stm32f30x_spi.o ABSOLUTE
    ..\fwlib\src\stm32f30x_syscfg.c          0x00000000   Number         0  stm32f30x_syscfg.o ABSOLUTE
    ..\fwlib\src\stm32f30x_tim.c             0x00000000   Number         0  stm32f30x_tim.o ABSOLUTE
    ..\fwlib\src\stm32f30x_usart.c           0x00000000   Number         0  stm32f30x_usart.o ABSOLUTE
    ..\fwlib\src\stm32f30x_wwdg.c            0x00000000   Number         0  stm32f30x_wwdg.o ABSOLUTE
    ..\main\ELAB_subsystem.c                 0x00000000   Number         0  elab_subsystem.o ABSOLUTE
    ..\main\KEY_ELAB.c                       0x00000000   Number         0  key_elab.o ABSOLUTE
    ..\main\main.c                           0x00000000   Number         0  main.o ABSOLUTE
    ..\main\stm32f3xx_it.c                   0x00000000   Number         0  stm32f3xx_it.o ABSOLUTE
    ..\main\system_stm32f30x.c               0x00000000   Number         0  system_stm32f30x.o ABSOLUTE
    ..\measure\power_meas_sine_analyzer.c    0x00000000   Number         0  power_meas_sine_analyzer.o ABSOLUTE
    ..\measure\spll_1ph_sogi.c               0x00000000   Number         0  spll_1ph_sogi.o ABSOLUTE
    dc.s                                     0x00000000   Number         0  dc.o ABSOLUTE
    handlers.s                               0x00000000   Number         0  handlers.o ABSOLUTE
    init.s                                   0x00000000   Number         0  init.o ABSOLUTE
    RESET                                    0x08000000   Section      392  startup_stm32f334x8.o(RESET)
    .ARM.Collect$$$$00000000                 0x08000188   Section        0  entry.o(.ARM.Collect$$$$00000000)
    .ARM.Collect$$$$00000001                 0x08000188   Section        4  entry2.o(.ARM.Collect$$$$00000001)
    .ARM.Collect$$$$00000004                 0x0800018c   Section        4  entry5.o(.ARM.Collect$$$$00000004)
    .ARM.Collect$$$$00000008                 0x08000190   Section        0  entry7b.o(.ARM.Collect$$$$00000008)
    .ARM.Collect$$$$0000000A                 0x08000190   Section        0  entry8b.o(.ARM.Collect$$$$0000000A)
    .ARM.Collect$$$$0000000B                 0x08000190   Section        8  entry9a.o(.ARM.Collect$$$$0000000B)
    .ARM.Collect$$$$0000000E                 0x08000198   Section        4  entry12b.o(.ARM.Collect$$$$0000000E)
    .ARM.Collect$$$$0000000F                 0x0800019c   Section        0  entry10a.o(.ARM.Collect$$$$0000000F)
    .ARM.Collect$$$$00000011                 0x0800019c   Section        0  entry11a.o(.ARM.Collect$$$$00000011)
    .ARM.Collect$$$$00002712                 0x0800019c   Section        4  entry2.o(.ARM.Collect$$$$00002712)
    __lit__00000000                          0x0800019c   Data           4  entry2.o(.ARM.Collect$$$$00002712)
    .text                                    0x080001a0   Section       36  startup_stm32f334x8.o(.text)
    $v0                                      0x080001a0   Number         0  startup_stm32f334x8.o(.text)
    .text                                    0x080001c4   Section        0  memseta.o(.text)
    .text                                    0x080001e8   Section        0  dadd.o(.text)
    .text                                    0x08000336   Section        0  dmul.o(.text)
    .text                                    0x0800041a   Section        0  ddiv.o(.text)
    .text                                    0x080004f8   Section        0  dflti.o(.text)
    .text                                    0x0800051a   Section        0  dfltui.o(.text)
    .text                                    0x08000534   Section        0  dfixui.o(.text)
    .text                                    0x08000566   Section        0  f2d.o(.text)
    .text                                    0x0800058c   Section        0  d2f.o(.text)
    .text                                    0x080005c4   Section        0  llshl.o(.text)
    .text                                    0x080005e2   Section        0  llushr.o(.text)
    .text                                    0x08000602   Section        0  llsshr.o(.text)
    .text                                    0x08000626   Section        0  iusefp.o(.text)
    .text                                    0x08000626   Section        0  fepilogue.o(.text)
    .text                                    0x08000694   Section        0  depilogue.o(.text)
    .text                                    0x08000750   Section       36  init.o(.text)
    .text                                    0x08000774   Section        0  dfixi.o(.text)
    i.ADC_Cmd                                0x080007b2   Section        0  stm32f30x_adc.o(i.ADC_Cmd)
    i.ADC_CommonInit                         0x080007c8   Section        0  stm32f30x_adc.o(i.ADC_CommonInit)
    i.ADC_DMACmd                             0x0800082c   Section        0  stm32f30x_adc.o(i.ADC_DMACmd)
    i.ADC_DMAConfig                          0x08000842   Section        0  stm32f30x_adc.o(i.ADC_DMAConfig)
    i.ADC_DeInit                             0x08000854   Section        0  stm32f30x_adc.o(i.ADC_DeInit)
    i.ADC_GetCalibrationStatus               0x080008a4   Section        0  stm32f30x_adc.o(i.ADC_GetCalibrationStatus)
    i.ADC_GetFlagStatus                      0x080008b8   Section        0  stm32f30x_adc.o(i.ADC_GetFlagStatus)
    i.ADC_Init                               0x080008cc   Section        0  stm32f30x_adc.o(i.ADC_Init)
    i.ADC_RegularChannelConfig               0x0800090c   Section        0  stm32f30x_adc.o(i.ADC_RegularChannelConfig)
    i.ADC_SelectCalibrationMode              0x08000a06   Section        0  stm32f30x_adc.o(i.ADC_SelectCalibrationMode)
    i.ADC_StartCalibration                   0x08000a16   Section        0  stm32f30x_adc.o(i.ADC_StartCalibration)
    i.ADC_StartConversion                    0x08000a20   Section        0  stm32f30x_adc.o(i.ADC_StartConversion)
    i.ADC_VoltageRegulatorCmd                0x08000a2a   Section        0  stm32f30x_adc.o(i.ADC_VoltageRegulatorCmd)
    i.BusFault_Handler                       0x08000a48   Section        0  stm32f3xx_it.o(i.BusFault_Handler)
    i.DMA_Cmd                                0x08000a4c   Section        0  stm32f30x_dma.o(i.DMA_Cmd)
    i.DMA_DeInit                             0x08000a64   Section        0  stm32f30x_dma.o(i.DMA_DeInit)
    i.DMA_Init                               0x08000bb0   Section        0  stm32f30x_dma.o(i.DMA_Init)
    i.DMA_StructInit                         0x08000bec   Section        0  stm32f30x_dma.o(i.DMA_StructInit)
    i.DebugMon_Handler                       0x08000c06   Section        0  stm32f3xx_it.o(i.DebugMon_Handler)
    i.EXTI0_IRQHandler                       0x08000c08   Section        0  stm32f3xx_it.o(i.EXTI0_IRQHandler)
    i.GPIO_Init                              0x08000c0a   Section        0  stm32f30x_gpio.o(i.GPIO_Init)
    i.GPIO_PinAFConfig                       0x08000ca0   Section        0  stm32f30x_gpio.o(i.GPIO_PinAFConfig)
    i.GPIO_ReadInputDataBit                  0x08000ce6   Section        0  stm32f30x_gpio.o(i.GPIO_ReadInputDataBit)
    i.GPIO_ResetBits                         0x08000cf8   Section        0  stm32f30x_gpio.o(i.GPIO_ResetBits)
    i.GPIO_SetBits                           0x08000cfc   Section        0  stm32f30x_gpio.o(i.GPIO_SetBits)
    i.HRTIM1_Master_IRQHandler               0x08000d00   Section        0  main.o(i.HRTIM1_Master_IRQHandler)
    i.HRTIM_ADCTriggerConfig                 0x08000ed4   Section        0  stm32f30x_hrtim.o(i.HRTIM_ADCTriggerConfig)
    i.HRTIM_ClearITPendingBit                0x08000f46   Section        0  stm32f30x_hrtim.o(i.HRTIM_ClearITPendingBit)
    i.HRTIM_DLLCalibrationStart              0x08000f84   Section        0  stm32f30x_hrtim.o(i.HRTIM_DLLCalibrationStart)
    i.HRTIM_DeadTimeConfig                   0x08000fac   Section        0  stm32f30x_hrtim.o(i.HRTIM_DeadTimeConfig)
    i.HRTIM_GetCommonFlagStatus              0x08000ff8   Section        0  stm32f30x_hrtim.o(i.HRTIM_GetCommonFlagStatus)
    i.HRTIM_ITConfig                         0x0800100e   Section        0  stm32f30x_hrtim.o(i.HRTIM_ITConfig)
    i.HRTIM_MasterBase_Config                0x08001070   Section        0  stm32f30x_hrtim.o(i.HRTIM_MasterBase_Config)
    HRTIM_MasterBase_Config                  0x08001071   Thumb Code    42  stm32f30x_hrtim.o(i.HRTIM_MasterBase_Config)
    i.HRTIM_MasterSetCompare                 0x0800109a   Section        0  stm32f30x_hrtim.o(i.HRTIM_MasterSetCompare)
    i.HRTIM_MasterWaveform_Config            0x080010c2   Section        0  stm32f30x_hrtim.o(i.HRTIM_MasterWaveform_Config)
    HRTIM_MasterWaveform_Config              0x080010c3   Thumb Code    88  stm32f30x_hrtim.o(i.HRTIM_MasterWaveform_Config)
    i.HRTIM_OutputConfig                     0x0800111a   Section        0  stm32f30x_hrtim.o(i.HRTIM_OutputConfig)
    HRTIM_OutputConfig                       0x0800111b   Thumb Code   202  stm32f30x_hrtim.o(i.HRTIM_OutputConfig)
    i.HRTIM_SlaveSetCompare                  0x080011e4   Section        0  stm32f30x_hrtim.o(i.HRTIM_SlaveSetCompare)
    i.HRTIM_TimingUnitBase_Config            0x0800122e   Section        0  stm32f30x_hrtim.o(i.HRTIM_TimingUnitBase_Config)
    HRTIM_TimingUnitBase_Config              0x0800122f   Thumb Code   124  stm32f30x_hrtim.o(i.HRTIM_TimingUnitBase_Config)
    i.HRTIM_TimingUnitWaveform_Config        0x080012aa   Section        0  stm32f30x_hrtim.o(i.HRTIM_TimingUnitWaveform_Config)
    HRTIM_TimingUnitWaveform_Config          0x080012ab   Thumb Code   182  stm32f30x_hrtim.o(i.HRTIM_TimingUnitWaveform_Config)
    i.HRTIM_WaveformCounterStart             0x08001360   Section        0  stm32f30x_hrtim.o(i.HRTIM_WaveformCounterStart)
    i.HRTIM_WaveformOutputConfig             0x08001368   Section        0  stm32f30x_hrtim.o(i.HRTIM_WaveformOutputConfig)
    i.HRTIM_WaveformOutputStart              0x08001384   Section        0  stm32f30x_hrtim.o(i.HRTIM_WaveformOutputStart)
    i.HRTIM_WaveformTimerConfig              0x0800138c   Section        0  stm32f30x_hrtim.o(i.HRTIM_WaveformTimerConfig)
    i.HRTIM_Waveform_Init                    0x0800141e   Section        0  stm32f30x_hrtim.o(i.HRTIM_Waveform_Init)
    i.HardFault_Handler                      0x08001458   Section        0  stm32f3xx_it.o(i.HardFault_Handler)
    i.IIC_Start                              0x0800145c   Section        0  oled.o(i.IIC_Start)
    i.IIC_Stop                               0x0800148c   Section        0  oled.o(i.IIC_Stop)
    i.IIC_Wait_Ack                           0x080014b4   Section        0  oled.o(i.IIC_Wait_Ack)
    i.KEY_Init                               0x080014d0   Section        0  key.o(i.KEY_Init)
    i.KEY_Scan                               0x08001534   Section        0  key.o(i.KEY_Scan)
    i.LED_Init                               0x08001594   Section        0  dr_led.o(i.LED_Init)
    i.MemManage_Handler                      0x08001610   Section        0  stm32f3xx_it.o(i.MemManage_Handler)
    i.NMI_Handler                            0x08001614   Section        0  stm32f3xx_it.o(i.NMI_Handler)
    i.NVIC_Init                              0x08001618   Section        0  stm32f30x_misc.o(i.NVIC_Init)
    i.OLED_Clear                             0x08001688   Section        0  oled.o(i.OLED_Clear)
    i.OLED_Init                              0x080016c8   Section        0  oled.o(i.OLED_Init)
    i.OLED_Set_Pos                           0x080017e0   Section        0  oled.o(i.OLED_Set_Pos)
    i.OLED_ShowChar                          0x08001808   Section        0  oled.o(i.OLED_ShowChar)
    i.OLED_ShowNum                           0x080018ac   Section        0  oled.o(i.OLED_ShowNum)
    i.OLED_ShowNum_0                         0x08001938   Section        0  oled.o(i.OLED_ShowNum_0)
    i.OLED_ShowNumf                          0x080019c0   Section        0  oled.o(i.OLED_ShowNumf)
    i.OLED_WR_Byte                           0x08001aac   Section        0  oled.o(i.OLED_WR_Byte)
    i.PWM_ClearITPendingBit                  0x08001ac4   Section        0  my_board.o(i.PWM_ClearITPendingBit)
    i.PendSV_Handler                         0x08001ad8   Section        0  stm32f3xx_it.o(i.PendSV_Handler)
    i.RCC_ADCCLKConfig                       0x08001adc   Section        0  stm32f30x_rcc.o(i.RCC_ADCCLKConfig)
    i.RCC_AHBPeriphClockCmd                  0x08001b0c   Section        0  stm32f30x_rcc.o(i.RCC_AHBPeriphClockCmd)
    i.RCC_AHBPeriphResetCmd                  0x08001b2c   Section        0  stm32f30x_rcc.o(i.RCC_AHBPeriphResetCmd)
    i.RCC_APB2PeriphClockCmd                 0x08001b4c   Section        0  stm32f30x_rcc.o(i.RCC_APB2PeriphClockCmd)
    i.RCC_GetClocksFreq                      0x08001b6c   Section        0  stm32f30x_rcc.o(i.RCC_GetClocksFreq)
    i.RCC_HRTIM1CLKConfig                    0x080020a4   Section        0  stm32f30x_rcc.o(i.RCC_HRTIM1CLKConfig)
    i.SVC_Handler                            0x080020c0   Section        0  stm32f3xx_it.o(i.SVC_Handler)
    i.SetSysClock                            0x080020c4   Section        0  system_stm32f30x.o(i.SetSysClock)
    SetSysClock                              0x080020c5   Thumb Code   188  system_stm32f30x.o(i.SetSysClock)
    i.SysTick_Handler                        0x08002188   Section        0  stm32f3xx_it.o(i.SysTick_Handler)
    i.SystemInit                             0x08002190   Section        0  system_stm32f30x.o(i.SystemInit)
    i.TPHINV_ELAB_initialize                 0x08002214   Section        0  elab_subsystem.o(i.TPHINV_ELAB_initialize)
    i.TPHINV_ELAB_step                       0x08002218   Section        0  elab_subsystem.o(i.TPHINV_ELAB_step)
    i.TPHINV_KEY_initialize                  0x08002580   Section        0  key_elab.o(i.TPHINV_KEY_initialize)
    i.TPHINV_KEY_step                        0x08002582   Section        0  key_elab.o(i.TPHINV_KEY_step)
    i.TimingDelay_Decrement                  0x08002584   Section        0  system_stm32f30x.o(i.TimingDelay_Decrement)
    i.USART_Cmd                              0x0800259c   Section        0  stm32f30x_usart.o(i.USART_Cmd)
    i.USART_Init                             0x080025b4   Section        0  stm32f30x_usart.o(i.USART_Init)
    i.UsageFault_Handler                     0x080026a0   Section        0  stm32f3xx_it.o(i.UsageFault_Handler)
    i.Write_IIC_Byte                         0x080026a4   Section        0  oled.o(i.Write_IIC_Byte)
    i.Write_IIC_Command                      0x08002700   Section        0  oled.o(i.Write_IIC_Command)
    i.Write_IIC_Data                         0x0800272c   Section        0  oled.o(i.Write_IIC_Data)
    i.__ARM_fpclassify                       0x08002758   Section        0  fpclassify.o(i.__ARM_fpclassify)
    i.__hardfp_sin                           0x08002788   Section        0  sin.o(i.__hardfp_sin)
    i.__hardfp_sqrtf                         0x08002850   Section        0  sqrtf.o(i.__hardfp_sqrtf)
    i.__ieee754_rem_pio2                     0x08002890   Section        0  rred.o(i.__ieee754_rem_pio2)
    i.__kernel_cos                           0x08002cc8   Section        0  cos_i.o(i.__kernel_cos)
    i.__kernel_poly                          0x08002e38   Section        0  poly.o(i.__kernel_poly)
    i.__kernel_sin                           0x08002f30   Section        0  sin_i.o(i.__kernel_sin)
    i.__mathlib_dbl_infnan                   0x08003060   Section        0  dunder.o(i.__mathlib_dbl_infnan)
    i.__mathlib_dbl_invalid                  0x08003078   Section        0  dunder.o(i.__mathlib_dbl_invalid)
    i.__mathlib_dbl_underflow                0x08003098   Section        0  dunder.o(i.__mathlib_dbl_underflow)
    i.__scatterload_copy                     0x080030b8   Section       14  handlers.o(i.__scatterload_copy)
    i.__scatterload_null                     0x080030c6   Section        2  handlers.o(i.__scatterload_null)
    i.__scatterload_zeroinit                 0x080030c8   Section       14  handlers.o(i.__scatterload_zeroinit)
    i.__set_errno                            0x080030d8   Section        0  errno.o(i.__set_errno)
    i.delay_ms                               0x080030e4   Section        0  system_stm32f30x.o(i.delay_ms)
    i.fabs                                   0x080030fc   Section        0  fabs.o(i.fabs)
    i.get_middle_num_adc                     0x08003114   Section        0  my_board.o(i.get_middle_num_adc)
    i.led1_off                               0x08003144   Section        0  dr_led.o(i.led1_off)
    i.led1_on                                0x08003154   Section        0  dr_led.o(i.led1_on)
    i.led2_off                               0x08003164   Section        0  dr_led.o(i.led2_off)
    i.led2_on                                0x08003174   Section        0  dr_led.o(i.led2_on)
    i.led3_off                               0x08003184   Section        0  dr_led.o(i.led3_off)
    i.led3_on                                0x08003194   Section        0  dr_led.o(i.led3_on)
    i.main                                   0x080031a4   Section        0  my_board.o(i.main)
    i.main_circle_func                       0x080031b0   Section        0  main.o(i.main_circle_func)
    i.my_adc_init                            0x080032e0   Section        0  my_board.o(i.my_adc_init)
    i.my_board_init                          0x080036d4   Section        0  main.o(i.my_board_init)
    i.my_pwm_init                            0x08003714   Section        0  my_board.o(i.my_pwm_init)
    i.my_pwm_update                          0x08003e68   Section        0  my_board.o(i.my_pwm_update)
    i.my_pwm_update_gai                      0x08003ef4   Section        0  my_board.o(i.my_pwm_update_gai)
    i.my_system_config                       0x08003f80   Section        0  my_board.o(i.my_system_config)
    i.oled_pow                               0x08004000   Section        0  oled.o(i.oled_pow)
    i.usart_set                              0x08004018   Section        0  my_board.o(i.usart_set)
    .constdata                               0x08004094   Section     2072  oled.o(.constdata)
    .constdata                               0x080048b0   Section       48  cos_i.o(.constdata)
    C                                        0x080048b0   Data          48  cos_i.o(.constdata)
    .constdata                               0x080048e0   Section      200  rred.o(.constdata)
    pio2s                                    0x080048e0   Data          48  rred.o(.constdata)
    twooverpi                                0x08004910   Data         152  rred.o(.constdata)
    .constdata                               0x080049a8   Section       40  sin_i.o(.constdata)
    S                                        0x080049a8   Data          40  sin_i.o(.constdata)
    .data                                    0x20000000   Section       26  main.o(.data)
    .data                                    0x2000001c   Section       25  system_stm32f30x.o(.data)
    TimingDelay                              0x20000030   Data           4  system_stm32f30x.o(.data)
    .data                                    0x20000038   Section        8  my_board.o(.data)
    .data                                    0x20000040   Section       48  stm32f30x_rcc.o(.data)
    APBAHBPrescTable                         0x20000040   Data          16  stm32f30x_rcc.o(.data)
    ADCPrescTable                            0x20000050   Data          32  stm32f30x_rcc.o(.data)
    .data                                    0x20000070   Section        4  errno.o(.data)
    _errno                                   0x20000070   Data           4  errno.o(.data)
    .bss                                     0x20000078   Section      136  elab_subsystem.o(.bss)
    .bss                                     0x20000100   Section       24  key_elab.o(.bss)
    .bss                                     0x20000118   Section       80  my_board.o(.bss)
    STACK                                    0x20000168   Section     4096  startup_stm32f334x8.o(STACK)

    Global Symbols

    Symbol Name                              Value     Ov Type        Size  Object(Section)

    BuildAttributes$$THM_ISAv4$E$P$D$K$B$S$7EM$VFPi3$EXTD16$VFPS$VFMA$PE$A:L22UL41UL21$X:L11$S22US41US21$IEEE1$IW$USESV6$~STKCKD$USESV7$~SHL$OTIME$ROPI$IEEEX$EBA8$MICROLIB$REQ8$PRES8$EABIv2 0x00000000   Number         0  anon$$obj.o ABSOLUTE
    __ARM_use_no_argv                        0x00000000   Number         0  my_board.o ABSOLUTE
    __arm_fini_                               - Undefined Weak Reference
    __cpp_initialize__aeabi_                  - Undefined Weak Reference
    __cxa_finalize                            - Undefined Weak Reference
    __decompress                              - Undefined Weak Reference
    _clock_init                               - Undefined Weak Reference
    _microlib_exit                            - Undefined Weak Reference
    __Vectors_Size                           0x00000188   Number         0  startup_stm32f334x8.o ABSOLUTE
    __Vectors                                0x08000000   Data           4  startup_stm32f334x8.o(RESET)
    __Vectors_End                            0x08000188   Data           0  startup_stm32f334x8.o(RESET)
    __main                                   0x08000189   Thumb Code     0  entry.o(.ARM.Collect$$$$00000000)
    _main_stk                                0x08000189   Thumb Code     0  entry2.o(.ARM.Collect$$$$00000001)
    _main_scatterload                        0x0800018d   Thumb Code     0  entry5.o(.ARM.Collect$$$$00000004)
    __main_after_scatterload                 0x08000191   Thumb Code     0  entry5.o(.ARM.Collect$$$$00000004)
    _main_clock                              0x08000191   Thumb Code     0  entry7b.o(.ARM.Collect$$$$00000008)
    _main_cpp_init                           0x08000191   Thumb Code     0  entry8b.o(.ARM.Collect$$$$0000000A)
    _main_init                               0x08000191   Thumb Code     0  entry9a.o(.ARM.Collect$$$$0000000B)
    __rt_lib_shutdown_fini                   0x08000199   Thumb Code     0  entry12b.o(.ARM.Collect$$$$0000000E)
    __rt_final_cpp                           0x0800019d   Thumb Code     0  entry10a.o(.ARM.Collect$$$$0000000F)
    __rt_final_exit                          0x0800019d   Thumb Code     0  entry11a.o(.ARM.Collect$$$$00000011)
    Reset_Handler                            0x080001a1   Thumb Code     8  startup_stm32f334x8.o(.text)
    ADC1_2_IRQHandler                        0x080001bb   Thumb Code     0  startup_stm32f334x8.o(.text)
    CAN1_RX0_IRQHandler                      0x080001bb   Thumb Code     0  startup_stm32f334x8.o(.text)
    CAN1_RX1_IRQHandler                      0x080001bb   Thumb Code     0  startup_stm32f334x8.o(.text)
    CAN1_SCE_IRQHandler                      0x080001bb   Thumb Code     0  startup_stm32f334x8.o(.text)
    CAN1_TX_IRQHandler                       0x080001bb   Thumb Code     0  startup_stm32f334x8.o(.text)
    COMP2_IRQHandler                         0x080001bb   Thumb Code     0  startup_stm32f334x8.o(.text)
    COMP4_6_IRQHandler                       0x080001bb   Thumb Code     0  startup_stm32f334x8.o(.text)
    DMA1_Channel1_IRQHandler                 0x080001bb   Thumb Code     0  startup_stm32f334x8.o(.text)
    DMA1_Channel2_IRQHandler                 0x080001bb   Thumb Code     0  startup_stm32f334x8.o(.text)
    DMA1_Channel3_IRQHandler                 0x080001bb   Thumb Code     0  startup_stm32f334x8.o(.text)
    DMA1_Channel4_IRQHandler                 0x080001bb   Thumb Code     0  startup_stm32f334x8.o(.text)
    DMA1_Channel5_IRQHandler                 0x080001bb   Thumb Code     0  startup_stm32f334x8.o(.text)
    DMA1_Channel6_IRQHandler                 0x080001bb   Thumb Code     0  startup_stm32f334x8.o(.text)
    DMA1_Channel7_IRQHandler                 0x080001bb   Thumb Code     0  startup_stm32f334x8.o(.text)
    EXTI15_10_IRQHandler                     0x080001bb   Thumb Code     0  startup_stm32f334x8.o(.text)
    EXTI1_IRQHandler                         0x080001bb   Thumb Code     0  startup_stm32f334x8.o(.text)
    EXTI2_TS_IRQHandler                      0x080001bb   Thumb Code     0  startup_stm32f334x8.o(.text)
    EXTI3_IRQHandler                         0x080001bb   Thumb Code     0  startup_stm32f334x8.o(.text)
    EXTI4_IRQHandler                         0x080001bb   Thumb Code     0  startup_stm32f334x8.o(.text)
    EXTI9_5_IRQHandler                       0x080001bb   Thumb Code     0  startup_stm32f334x8.o(.text)
    FLASH_IRQHandler                         0x080001bb   Thumb Code     0  startup_stm32f334x8.o(.text)
    FPU_IRQHandler                           0x080001bb   Thumb Code     0  startup_stm32f334x8.o(.text)
    HRTIM1_FLT_IRQHandler                    0x080001bb   Thumb Code     0  startup_stm32f334x8.o(.text)
    HRTIM1_TIMA_IRQHandler                   0x080001bb   Thumb Code     0  startup_stm32f334x8.o(.text)
    HRTIM1_TIMB_IRQHandler                   0x080001bb   Thumb Code     0  startup_stm32f334x8.o(.text)
    HRTIM1_TIMC_IRQHandler                   0x080001bb   Thumb Code     0  startup_stm32f334x8.o(.text)
    HRTIM1_TIMD_IRQHandler                   0x080001bb   Thumb Code     0  startup_stm32f334x8.o(.text)
    HRTIM1_TIME_IRQHandler                   0x080001bb   Thumb Code     0  startup_stm32f334x8.o(.text)
    I2C1_ER_IRQHandler                       0x080001bb   Thumb Code     0  startup_stm32f334x8.o(.text)
    I2C1_EV_IRQHandler                       0x080001bb   Thumb Code     0  startup_stm32f334x8.o(.text)
    PVD_IRQHandler                           0x080001bb   Thumb Code     0  startup_stm32f334x8.o(.text)
    RCC_IRQHandler                           0x080001bb   Thumb Code     0  startup_stm32f334x8.o(.text)
    RTC_Alarm_IRQHandler                     0x080001bb   Thumb Code     0  startup_stm32f334x8.o(.text)
    RTC_WKUP_IRQHandler                      0x080001bb   Thumb Code     0  startup_stm32f334x8.o(.text)
    SPI1_IRQHandler                          0x080001bb   Thumb Code     0  startup_stm32f334x8.o(.text)
    TAMPER_STAMP_IRQHandler                  0x080001bb   Thumb Code     0  startup_stm32f334x8.o(.text)
    TIM1_BRK_TIM15_IRQHandler                0x080001bb   Thumb Code     0  startup_stm32f334x8.o(.text)
    TIM1_CC_IRQHandler                       0x080001bb   Thumb Code     0  startup_stm32f334x8.o(.text)
    TIM1_TRG_COM_TIM17_IRQHandler            0x080001bb   Thumb Code     0  startup_stm32f334x8.o(.text)
    TIM1_UP_TIM16_IRQHandler                 0x080001bb   Thumb Code     0  startup_stm32f334x8.o(.text)
    TIM2_IRQHandler                          0x080001bb   Thumb Code     0  startup_stm32f334x8.o(.text)
    TIM3_IRQHandler                          0x080001bb   Thumb Code     0  startup_stm32f334x8.o(.text)
    TIM6_DAC1_IRQHandler                     0x080001bb   Thumb Code     0  startup_stm32f334x8.o(.text)
    TIM7_DAC2_IRQHandler                     0x080001bb   Thumb Code     0  startup_stm32f334x8.o(.text)
    USART1_IRQHandler                        0x080001bb   Thumb Code     0  startup_stm32f334x8.o(.text)
    USART2_IRQHandler                        0x080001bb   Thumb Code     0  startup_stm32f334x8.o(.text)
    USART3_IRQHandler                        0x080001bb   Thumb Code     0  startup_stm32f334x8.o(.text)
    WWDG_IRQHandler                          0x080001bb   Thumb Code     0  startup_stm32f334x8.o(.text)
    __aeabi_memset                           0x080001c5   Thumb Code    14  memseta.o(.text)
    __aeabi_memset4                          0x080001c5   Thumb Code     0  memseta.o(.text)
    __aeabi_memset8                          0x080001c5   Thumb Code     0  memseta.o(.text)
    __aeabi_memclr                           0x080001d3   Thumb Code     4  memseta.o(.text)
    __aeabi_memclr4                          0x080001d3   Thumb Code     0  memseta.o(.text)
    __aeabi_memclr8                          0x080001d3   Thumb Code     0  memseta.o(.text)
    _memset$wrapper                          0x080001d7   Thumb Code    18  memseta.o(.text)
    __aeabi_dadd                             0x080001e9   Thumb Code   322  dadd.o(.text)
    __aeabi_dsub                             0x0800032b   Thumb Code     6  dadd.o(.text)
    __aeabi_drsub                            0x08000331   Thumb Code     6  dadd.o(.text)
    __aeabi_dmul                             0x08000337   Thumb Code   228  dmul.o(.text)
    __aeabi_ddiv                             0x0800041b   Thumb Code   222  ddiv.o(.text)
    __aeabi_i2d                              0x080004f9   Thumb Code    34  dflti.o(.text)
    __aeabi_ui2d                             0x0800051b   Thumb Code    26  dfltui.o(.text)
    __aeabi_d2uiz                            0x08000535   Thumb Code    50  dfixui.o(.text)
    __aeabi_f2d                              0x08000567   Thumb Code    38  f2d.o(.text)
    __aeabi_d2f                              0x0800058d   Thumb Code    56  d2f.o(.text)
    __aeabi_llsl                             0x080005c5   Thumb Code    30  llshl.o(.text)
    _ll_shift_l                              0x080005c5   Thumb Code     0  llshl.o(.text)
    __aeabi_llsr                             0x080005e3   Thumb Code    32  llushr.o(.text)
    _ll_ushift_r                             0x080005e3   Thumb Code     0  llushr.o(.text)
    __aeabi_lasr                             0x08000603   Thumb Code    36  llsshr.o(.text)
    _ll_sshift_r                             0x08000603   Thumb Code     0  llsshr.o(.text)
    __I$use$fp                               0x08000627   Thumb Code     0  iusefp.o(.text)
    _float_round                             0x08000627   Thumb Code    18  fepilogue.o(.text)
    _float_epilogue                          0x08000639   Thumb Code    92  fepilogue.o(.text)
    _double_round                            0x08000695   Thumb Code    30  depilogue.o(.text)
    _double_epilogue                         0x080006b3   Thumb Code   156  depilogue.o(.text)
    __scatterload                            0x08000751   Thumb Code    28  init.o(.text)
    __scatterload_rt2                        0x08000751   Thumb Code     0  init.o(.text)
    __aeabi_d2iz                             0x08000775   Thumb Code    62  dfixi.o(.text)
    ADC_Cmd                                  0x080007b3   Thumb Code    22  stm32f30x_adc.o(i.ADC_Cmd)
    ADC_CommonInit                           0x080007c9   Thumb Code    82  stm32f30x_adc.o(i.ADC_CommonInit)
    ADC_DMACmd                               0x0800082d   Thumb Code    22  stm32f30x_adc.o(i.ADC_DMACmd)
    ADC_DMAConfig                            0x08000843   Thumb Code    16  stm32f30x_adc.o(i.ADC_DMAConfig)
    ADC_DeInit                               0x08000855   Thumb Code    68  stm32f30x_adc.o(i.ADC_DeInit)
    ADC_GetCalibrationStatus                 0x080008a5   Thumb Code    20  stm32f30x_adc.o(i.ADC_GetCalibrationStatus)
    ADC_GetFlagStatus                        0x080008b9   Thumb Code    18  stm32f30x_adc.o(i.ADC_GetFlagStatus)
    ADC_Init                                 0x080008cd   Thumb Code    58  stm32f30x_adc.o(i.ADC_Init)
    ADC_RegularChannelConfig                 0x0800090d   Thumb Code   250  stm32f30x_adc.o(i.ADC_RegularChannelConfig)
    ADC_SelectCalibrationMode                0x08000a07   Thumb Code    16  stm32f30x_adc.o(i.ADC_SelectCalibrationMode)
    ADC_StartCalibration                     0x08000a17   Thumb Code    10  stm32f30x_adc.o(i.ADC_StartCalibration)
    ADC_StartConversion                      0x08000a21   Thumb Code    10  stm32f30x_adc.o(i.ADC_StartConversion)
    ADC_VoltageRegulatorCmd                  0x08000a2b   Thumb Code    30  stm32f30x_adc.o(i.ADC_VoltageRegulatorCmd)
    BusFault_Handler                         0x08000a49   Thumb Code     4  stm32f3xx_it.o(i.BusFault_Handler)
    DMA_Cmd                                  0x08000a4d   Thumb Code    24  stm32f30x_dma.o(i.DMA_Cmd)
    DMA_DeInit                               0x08000a65   Thumb Code   324  stm32f30x_dma.o(i.DMA_DeInit)
    DMA_Init                                 0x08000bb1   Thumb Code    60  stm32f30x_dma.o(i.DMA_Init)
    DMA_StructInit                           0x08000bed   Thumb Code    26  stm32f30x_dma.o(i.DMA_StructInit)
    DebugMon_Handler                         0x08000c07   Thumb Code     2  stm32f3xx_it.o(i.DebugMon_Handler)
    EXTI0_IRQHandler                         0x08000c09   Thumb Code     2  stm32f3xx_it.o(i.EXTI0_IRQHandler)
    GPIO_Init                                0x08000c0b   Thumb Code   150  stm32f30x_gpio.o(i.GPIO_Init)
    GPIO_PinAFConfig                         0x08000ca1   Thumb Code    70  stm32f30x_gpio.o(i.GPIO_PinAFConfig)
    GPIO_ReadInputDataBit                    0x08000ce7   Thumb Code    18  stm32f30x_gpio.o(i.GPIO_ReadInputDataBit)
    GPIO_ResetBits                           0x08000cf9   Thumb Code     4  stm32f30x_gpio.o(i.GPIO_ResetBits)
    GPIO_SetBits                             0x08000cfd   Thumb Code     4  stm32f30x_gpio.o(i.GPIO_SetBits)
    HRTIM1_Master_IRQHandler                 0x08000d01   Thumb Code   434  main.o(i.HRTIM1_Master_IRQHandler)
    HRTIM_ADCTriggerConfig                   0x08000ed5   Thumb Code   114  stm32f30x_hrtim.o(i.HRTIM_ADCTriggerConfig)
    HRTIM_ClearITPendingBit                  0x08000f47   Thumb Code    62  stm32f30x_hrtim.o(i.HRTIM_ClearITPendingBit)
    HRTIM_DLLCalibrationStart                0x08000f85   Thumb Code    40  stm32f30x_hrtim.o(i.HRTIM_DLLCalibrationStart)
    HRTIM_DeadTimeConfig                     0x08000fad   Thumb Code    70  stm32f30x_hrtim.o(i.HRTIM_DeadTimeConfig)
    HRTIM_GetCommonFlagStatus                0x08000ff9   Thumb Code    22  stm32f30x_hrtim.o(i.HRTIM_GetCommonFlagStatus)
    HRTIM_ITConfig                           0x0800100f   Thumb Code    98  stm32f30x_hrtim.o(i.HRTIM_ITConfig)
    HRTIM_MasterSetCompare                   0x0800109b   Thumb Code    40  stm32f30x_hrtim.o(i.HRTIM_MasterSetCompare)
    HRTIM_SlaveSetCompare                    0x080011e5   Thumb Code    74  stm32f30x_hrtim.o(i.HRTIM_SlaveSetCompare)
    HRTIM_WaveformCounterStart               0x08001361   Thumb Code     8  stm32f30x_hrtim.o(i.HRTIM_WaveformCounterStart)
    HRTIM_WaveformOutputConfig               0x08001369   Thumb Code    28  stm32f30x_hrtim.o(i.HRTIM_WaveformOutputConfig)
    HRTIM_WaveformOutputStart                0x08001385   Thumb Code     8  stm32f30x_hrtim.o(i.HRTIM_WaveformOutputStart)
    HRTIM_WaveformTimerConfig                0x0800138d   Thumb Code   146  stm32f30x_hrtim.o(i.HRTIM_WaveformTimerConfig)
    HRTIM_Waveform_Init                      0x0800141f   Thumb Code    58  stm32f30x_hrtim.o(i.HRTIM_Waveform_Init)
    HardFault_Handler                        0x08001459   Thumb Code     4  stm32f3xx_it.o(i.HardFault_Handler)
    IIC_Start                                0x0800145d   Thumb Code    44  oled.o(i.IIC_Start)
    IIC_Stop                                 0x0800148d   Thumb Code    34  oled.o(i.IIC_Stop)
    IIC_Wait_Ack                             0x080014b5   Thumb Code    24  oled.o(i.IIC_Wait_Ack)
    KEY_Init                                 0x080014d1   Thumb Code    94  key.o(i.KEY_Init)
    KEY_Scan                                 0x08001535   Thumb Code    90  key.o(i.KEY_Scan)
    LED_Init                                 0x08001595   Thumb Code   118  dr_led.o(i.LED_Init)
    MemManage_Handler                        0x08001611   Thumb Code     4  stm32f3xx_it.o(i.MemManage_Handler)
    NMI_Handler                              0x08001615   Thumb Code     2  stm32f3xx_it.o(i.NMI_Handler)
    NVIC_Init                                0x08001619   Thumb Code   100  stm32f30x_misc.o(i.NVIC_Init)
    OLED_Clear                               0x08001689   Thumb Code    62  oled.o(i.OLED_Clear)
    OLED_Init                                0x080016c9   Thumb Code   276  oled.o(i.OLED_Init)
    OLED_Set_Pos                             0x080017e1   Thumb Code    40  oled.o(i.OLED_Set_Pos)
    OLED_ShowChar                            0x08001809   Thumb Code   154  oled.o(i.OLED_ShowChar)
    OLED_ShowNum                             0x080018ad   Thumb Code   140  oled.o(i.OLED_ShowNum)
    OLED_ShowNum_0                           0x08001939   Thumb Code   136  oled.o(i.OLED_ShowNum_0)
    OLED_ShowNumf                            0x080019c1   Thumb Code   236  oled.o(i.OLED_ShowNumf)
    OLED_WR_Byte                             0x08001aad   Thumb Code    24  oled.o(i.OLED_WR_Byte)
    PWM_ClearITPendingBit                    0x08001ac5   Thumb Code    14  my_board.o(i.PWM_ClearITPendingBit)
    PendSV_Handler                           0x08001ad9   Thumb Code     2  stm32f3xx_it.o(i.PendSV_Handler)
    RCC_ADCCLKConfig                         0x08001add   Thumb Code    44  stm32f30x_rcc.o(i.RCC_ADCCLKConfig)
    RCC_AHBPeriphClockCmd                    0x08001b0d   Thumb Code    26  stm32f30x_rcc.o(i.RCC_AHBPeriphClockCmd)
    RCC_AHBPeriphResetCmd                    0x08001b2d   Thumb Code    26  stm32f30x_rcc.o(i.RCC_AHBPeriphResetCmd)
    RCC_APB2PeriphClockCmd                   0x08001b4d   Thumb Code    26  stm32f30x_rcc.o(i.RCC_APB2PeriphClockCmd)
    RCC_GetClocksFreq                        0x08001b6d   Thumb Code  1316  stm32f30x_rcc.o(i.RCC_GetClocksFreq)
    RCC_HRTIM1CLKConfig                      0x080020a5   Thumb Code    22  stm32f30x_rcc.o(i.RCC_HRTIM1CLKConfig)
    SVC_Handler                              0x080020c1   Thumb Code     2  stm32f3xx_it.o(i.SVC_Handler)
    SysTick_Handler                          0x08002189   Thumb Code     8  stm32f3xx_it.o(i.SysTick_Handler)
    SystemInit                               0x08002191   Thumb Code   112  system_stm32f30x.o(i.SystemInit)
    TPHINV_ELAB_initialize                   0x08002215   Thumb Code     2  elab_subsystem.o(i.TPHINV_ELAB_initialize)
    TPHINV_ELAB_step                         0x08002219   Thumb Code   776  elab_subsystem.o(i.TPHINV_ELAB_step)
    TPHINV_KEY_initialize                    0x08002581   Thumb Code     2  key_elab.o(i.TPHINV_KEY_initialize)
    TPHINV_KEY_step                          0x08002583   Thumb Code     2  key_elab.o(i.TPHINV_KEY_step)
    TimingDelay_Decrement                    0x08002585   Thumb Code    18  system_stm32f30x.o(i.TimingDelay_Decrement)
    USART_Cmd                                0x0800259d   Thumb Code    22  stm32f30x_usart.o(i.USART_Cmd)
    USART_Init                               0x080025b5   Thumb Code   220  stm32f30x_usart.o(i.USART_Init)
    UsageFault_Handler                       0x080026a1   Thumb Code     4  stm32f3xx_it.o(i.UsageFault_Handler)
    Write_IIC_Byte                           0x080026a5   Thumb Code    88  oled.o(i.Write_IIC_Byte)
    Write_IIC_Command                        0x08002701   Thumb Code    44  oled.o(i.Write_IIC_Command)
    Write_IIC_Data                           0x0800272d   Thumb Code    44  oled.o(i.Write_IIC_Data)
    __ARM_fpclassify                         0x08002759   Thumb Code    48  fpclassify.o(i.__ARM_fpclassify)
    __hardfp_sin                             0x08002789   Thumb Code   180  sin.o(i.__hardfp_sin)
    __hardfp_sqrtf                           0x08002851   Thumb Code    58  sqrtf.o(i.__hardfp_sqrtf)
    __ieee754_rem_pio2                       0x08002891   Thumb Code   938  rred.o(i.__ieee754_rem_pio2)
    __kernel_cos                             0x08002cc9   Thumb Code   322  cos_i.o(i.__kernel_cos)
    __kernel_poly                            0x08002e39   Thumb Code   248  poly.o(i.__kernel_poly)
    __kernel_sin                             0x08002f31   Thumb Code   280  sin_i.o(i.__kernel_sin)
    __mathlib_dbl_infnan                     0x08003061   Thumb Code    20  dunder.o(i.__mathlib_dbl_infnan)
    __mathlib_dbl_invalid                    0x08003079   Thumb Code    24  dunder.o(i.__mathlib_dbl_invalid)
    __mathlib_dbl_underflow                  0x08003099   Thumb Code    24  dunder.o(i.__mathlib_dbl_underflow)
    __scatterload_copy                       0x080030b9   Thumb Code    14  handlers.o(i.__scatterload_copy)
    __scatterload_null                       0x080030c7   Thumb Code     2  handlers.o(i.__scatterload_null)
    __scatterload_zeroinit                   0x080030c9   Thumb Code    14  handlers.o(i.__scatterload_zeroinit)
    __set_errno                              0x080030d9   Thumb Code     6  errno.o(i.__set_errno)
    delay_ms                                 0x080030e5   Thumb Code    20  system_stm32f30x.o(i.delay_ms)
    fabs                                     0x080030fd   Thumb Code    24  fabs.o(i.fabs)
    get_middle_num_adc                       0x08003115   Thumb Code    46  my_board.o(i.get_middle_num_adc)
    led1_off                                 0x08003145   Thumb Code    10  dr_led.o(i.led1_off)
    led1_on                                  0x08003155   Thumb Code    10  dr_led.o(i.led1_on)
    led2_off                                 0x08003165   Thumb Code    10  dr_led.o(i.led2_off)
    led2_on                                  0x08003175   Thumb Code    10  dr_led.o(i.led2_on)
    led3_off                                 0x08003185   Thumb Code    10  dr_led.o(i.led3_off)
    led3_on                                  0x08003195   Thumb Code    10  dr_led.o(i.led3_on)
    main                                     0x080031a5   Thumb Code    12  my_board.o(i.main)
    main_circle_func                         0x080031b1   Thumb Code   288  main.o(i.main_circle_func)
    my_adc_init                              0x080032e1   Thumb Code   990  my_board.o(i.my_adc_init)
    my_board_init                            0x080036d5   Thumb Code    64  main.o(i.my_board_init)
    my_pwm_init                              0x08003715   Thumb Code  1858  my_board.o(i.my_pwm_init)
    my_pwm_update                            0x08003e69   Thumb Code   130  my_board.o(i.my_pwm_update)
    my_pwm_update_gai                        0x08003ef5   Thumb Code   130  my_board.o(i.my_pwm_update_gai)
    my_system_config                         0x08003f81   Thumb Code   114  my_board.o(i.my_system_config)
    oled_pow                                 0x08004001   Thumb Code    22  oled.o(i.oled_pow)
    usart_set                                0x08004019   Thumb Code   116  my_board.o(i.usart_set)
    F6x8                                     0x08004094   Data         552  oled.o(.constdata)
    F8X16                                    0x080042bc   Data        1520  oled.o(.constdata)
    Region$$Table$$Base                      0x080049d0   Number         0  anon$$obj.o(Region$$Table)
    Region$$Table$$Limit                     0x080049f0   Number         0  anon$$obj.o(Region$$Table)
    pwm_a                                    0x20000000   Data           4  main.o(.data)
    set_point_u                              0x20000004   Data           4  main.o(.data)
    uout                                     0x20000008   Data           4  main.o(.data)
    iout                                     0x2000000c   Data           4  main.o(.data)
    uin                                      0x20000010   Data           4  main.o(.data)
    iin                                      0x20000014   Data           4  main.o(.data)
    TEST                                     0x20000018   Data           1  main.o(.data)
    KEY_NUM                                  0x20000019   Data           1  main.o(.data)
    SystemCoreClock                          0x2000001c   Data           4  system_stm32f30x.o(.data)
    AHBPrescTable                            0x20000020   Data          16  system_stm32f30x.o(.data)
    BlinkSpeed                               0x20000034   Data           1  system_stm32f30x.o(.data)
    dac_num                                  0x20000038   Data           2  my_board.o(.data)
    PWM_PER                                  0x2000003c   Data           4  my_board.o(.data)
    rtDW_TPHINV_ELAB                         0x20000078   Data          24  elab_subsystem.o(.bss)
    rtU_TPHINV_ELAB                          0x20000090   Data          52  elab_subsystem.o(.bss)
    rtY_TPHINV_ELAB                          0x200000c8   Data          56  elab_subsystem.o(.bss)
    rtU_TPHINV_KEY                           0x20000100   Data          12  key_elab.o(.bss)
    rtY_TPHINV_KEY                           0x2000010c   Data          12  key_elab.o(.bss)
    adc_sample_buf                           0x20000118   Data          20  my_board.o(.bss)
    adc_sample_buff                          0x2000012c   Data          60  my_board.o(.bss)
    __initial_sp                             0x20001168   Data           0  startup_stm32f334x8.o(STACK)



==============================================================================

Memory Map of the image

  Image Entry point : 0x08000189

  Load Region LR_IROM1 (Base: 0x08000000, Size: 0x00004a64, Max: 0x00008000, ABSOLUTE)

    Execution Region ER_IROM1 (Exec base: 0x08000000, Load base: 0x08000000, Size: 0x000049f0, Max: 0x00008000, ABSOLUTE)

    Exec Addr    Load Addr    Size         Type   Attr      Idx    E Section Name        Object

    0x08000000   0x08000000   0x00000188   Data   RO         5109    RESET               startup_stm32f334x8.o
    0x08000188   0x08000188   0x00000000   Code   RO         5305  * .ARM.Collect$$$$00000000  mc_w.l(entry.o)
    0x08000188   0x08000188   0x00000004   Code   RO         5354    .ARM.Collect$$$$00000001  mc_w.l(entry2.o)
    0x0800018c   0x0800018c   0x00000004   Code   RO         5357    .ARM.Collect$$$$00000004  mc_w.l(entry5.o)
    0x08000190   0x08000190   0x00000000   Code   RO         5359    .ARM.Collect$$$$00000008  mc_w.l(entry7b.o)
    0x08000190   0x08000190   0x00000000   Code   RO         5361    .ARM.Collect$$$$0000000A  mc_w.l(entry8b.o)
    0x08000190   0x08000190   0x00000008   Code   RO         5362    .ARM.Collect$$$$0000000B  mc_w.l(entry9a.o)
    0x08000198   0x08000198   0x00000004   Code   RO         5369    .ARM.Collect$$$$0000000E  mc_w.l(entry12b.o)
    0x0800019c   0x0800019c   0x00000000   Code   RO         5364    .ARM.Collect$$$$0000000F  mc_w.l(entry10a.o)
    0x0800019c   0x0800019c   0x00000000   Code   RO         5366    .ARM.Collect$$$$00000011  mc_w.l(entry11a.o)
    0x0800019c   0x0800019c   0x00000004   Code   RO         5355    .ARM.Collect$$$$00002712  mc_w.l(entry2.o)
    0x080001a0   0x080001a0   0x00000024   Code   RO         5110    .text               startup_stm32f334x8.o
    0x080001c4   0x080001c4   0x00000024   Code   RO         5308    .text               mc_w.l(memseta.o)
    0x080001e8   0x080001e8   0x0000014e   Code   RO         5310    .text               mf_w.l(dadd.o)
    0x08000336   0x08000336   0x000000e4   Code   RO         5312    .text               mf_w.l(dmul.o)
    0x0800041a   0x0800041a   0x000000de   Code   RO         5314    .text               mf_w.l(ddiv.o)
    0x080004f8   0x080004f8   0x00000022   Code   RO         5316    .text               mf_w.l(dflti.o)
    0x0800051a   0x0800051a   0x0000001a   Code   RO         5318    .text               mf_w.l(dfltui.o)
    0x08000534   0x08000534   0x00000032   Code   RO         5320    .text               mf_w.l(dfixui.o)
    0x08000566   0x08000566   0x00000026   Code   RO         5322    .text               mf_w.l(f2d.o)
    0x0800058c   0x0800058c   0x00000038   Code   RO         5324    .text               mf_w.l(d2f.o)
    0x080005c4   0x080005c4   0x0000001e   Code   RO         5370    .text               mc_w.l(llshl.o)
    0x080005e2   0x080005e2   0x00000020   Code   RO         5372    .text               mc_w.l(llushr.o)
    0x08000602   0x08000602   0x00000024   Code   RO         5374    .text               mc_w.l(llsshr.o)
    0x08000626   0x08000626   0x00000000   Code   RO         5383    .text               mc_w.l(iusefp.o)
    0x08000626   0x08000626   0x0000006e   Code   RO         5384    .text               mf_w.l(fepilogue.o)
    0x08000694   0x08000694   0x000000ba   Code   RO         5386    .text               mf_w.l(depilogue.o)
    0x0800074e   0x0800074e   0x00000002   PAD
    0x08000750   0x08000750   0x00000024   Code   RO         5400    .text               mc_w.l(init.o)
    0x08000774   0x08000774   0x0000003e   Code   RO         5402    .text               mf_w.l(dfixi.o)
    0x080007b2   0x080007b2   0x00000016   Code   RO          867    i.ADC_Cmd           stm32f30x_adc.o
    0x080007c8   0x080007c8   0x00000064   Code   RO          868    i.ADC_CommonInit    stm32f30x_adc.o
    0x0800082c   0x0800082c   0x00000016   Code   RO          870    i.ADC_DMACmd        stm32f30x_adc.o
    0x08000842   0x08000842   0x00000010   Code   RO          871    i.ADC_DMAConfig     stm32f30x_adc.o
    0x08000852   0x08000852   0x00000002   PAD
    0x08000854   0x08000854   0x00000050   Code   RO          872    i.ADC_DeInit        stm32f30x_adc.o
    0x080008a4   0x080008a4   0x00000014   Code   RO          877    i.ADC_GetCalibrationStatus  stm32f30x_adc.o
    0x080008b8   0x080008b8   0x00000012   Code   RO          883    i.ADC_GetFlagStatus  stm32f30x_adc.o
    0x080008ca   0x080008ca   0x00000002   PAD
    0x080008cc   0x080008cc   0x00000040   Code   RO          889    i.ADC_Init          stm32f30x_adc.o
    0x0800090c   0x0800090c   0x000000fa   Code   RO          894    i.ADC_RegularChannelConfig  stm32f30x_adc.o
    0x08000a06   0x08000a06   0x00000010   Code   RO          896    i.ADC_SelectCalibrationMode  stm32f30x_adc.o
    0x08000a16   0x08000a16   0x0000000a   Code   RO          904    i.ADC_StartCalibration  stm32f30x_adc.o
    0x08000a20   0x08000a20   0x0000000a   Code   RO          905    i.ADC_StartConversion  stm32f30x_adc.o
    0x08000a2a   0x08000a2a   0x0000001e   Code   RO          912    i.ADC_VoltageRegulatorCmd  stm32f30x_adc.o
    0x08000a48   0x08000a48   0x00000004   Code   RO          199    i.BusFault_Handler  stm32f3xx_it.o
    0x08000a4c   0x08000a4c   0x00000018   Code   RO         1728    i.DMA_Cmd           stm32f30x_dma.o
    0x08000a64   0x08000a64   0x0000014c   Code   RO         1729    i.DMA_DeInit        stm32f30x_dma.o
    0x08000bb0   0x08000bb0   0x0000003c   Code   RO         1734    i.DMA_Init          stm32f30x_dma.o
    0x08000bec   0x08000bec   0x0000001a   Code   RO         1736    i.DMA_StructInit    stm32f30x_dma.o
    0x08000c06   0x08000c06   0x00000002   Code   RO          200    i.DebugMon_Handler  stm32f3xx_it.o
    0x08000c08   0x08000c08   0x00000002   Code   RO          201    i.EXTI0_IRQHandler  stm32f3xx_it.o
    0x08000c0a   0x08000c0a   0x00000096   Code   RO         2057    i.GPIO_Init         stm32f30x_gpio.o
    0x08000ca0   0x08000ca0   0x00000046   Code   RO         2058    i.GPIO_PinAFConfig  stm32f30x_gpio.o
    0x08000ce6   0x08000ce6   0x00000012   Code   RO         2061    i.GPIO_ReadInputDataBit  stm32f30x_gpio.o
    0x08000cf8   0x08000cf8   0x00000004   Code   RO         2064    i.GPIO_ResetBits    stm32f30x_gpio.o
    0x08000cfc   0x08000cfc   0x00000004   Code   RO         2065    i.GPIO_SetBits      stm32f30x_gpio.o
    0x08000d00   0x08000d00   0x000001d4   Code   RO            3    i.HRTIM1_Master_IRQHandler  main.o
    0x08000ed4   0x08000ed4   0x00000072   Code   RO         2148    i.HRTIM_ADCTriggerConfig  stm32f30x_hrtim.o
    0x08000f46   0x08000f46   0x0000003e   Code   RO         2157    i.HRTIM_ClearITPendingBit  stm32f30x_hrtim.o
    0x08000f84   0x08000f84   0x00000028   Code   RO         2159    i.HRTIM_DLLCalibrationStart  stm32f30x_hrtim.o
    0x08000fac   0x08000fac   0x0000004c   Code   RO         2162    i.HRTIM_DeadTimeConfig  stm32f30x_hrtim.o
    0x08000ff8   0x08000ff8   0x00000016   Code   RO         2171    i.HRTIM_GetCommonFlagStatus  stm32f30x_hrtim.o
    0x0800100e   0x0800100e   0x00000062   Code   RO         2179    i.HRTIM_ITConfig    stm32f30x_hrtim.o
    0x08001070   0x08001070   0x0000002a   Code   RO         2180    i.HRTIM_MasterBase_Config  stm32f30x_hrtim.o
    0x0800109a   0x0800109a   0x00000028   Code   RO         2181    i.HRTIM_MasterSetCompare  stm32f30x_hrtim.o
    0x080010c2   0x080010c2   0x00000058   Code   RO         2182    i.HRTIM_MasterWaveform_Config  stm32f30x_hrtim.o
    0x0800111a   0x0800111a   0x000000ca   Code   RO         2183    i.HRTIM_OutputConfig  stm32f30x_hrtim.o
    0x080011e4   0x080011e4   0x0000004a   Code   RO         2203    i.HRTIM_SlaveSetCompare  stm32f30x_hrtim.o
    0x0800122e   0x0800122e   0x0000007c   Code   RO         2210    i.HRTIM_TimingUnitBase_Config  stm32f30x_hrtim.o
    0x080012aa   0x080012aa   0x000000b6   Code   RO         2211    i.HRTIM_TimingUnitWaveform_Config  stm32f30x_hrtim.o
    0x08001360   0x08001360   0x00000008   Code   RO         2214    i.HRTIM_WaveformCounterStart  stm32f30x_hrtim.o
    0x08001368   0x08001368   0x0000001c   Code   RO         2218    i.HRTIM_WaveformOutputConfig  stm32f30x_hrtim.o
    0x08001384   0x08001384   0x00000008   Code   RO         2219    i.HRTIM_WaveformOutputStart  stm32f30x_hrtim.o
    0x0800138c   0x0800138c   0x00000092   Code   RO         2222    i.HRTIM_WaveformTimerConfig  stm32f30x_hrtim.o
    0x0800141e   0x0800141e   0x0000003a   Code   RO         2223    i.HRTIM_Waveform_Init  stm32f30x_hrtim.o
    0x08001458   0x08001458   0x00000004   Code   RO          202    i.HardFault_Handler  stm32f3xx_it.o
    0x0800145c   0x0800145c   0x00000030   Code   RO          593    i.IIC_Start         oled.o
    0x0800148c   0x0800148c   0x00000028   Code   RO          594    i.IIC_Stop          oled.o
    0x080014b4   0x080014b4   0x0000001c   Code   RO          595    i.IIC_Wait_Ack      oled.o
    0x080014d0   0x080014d0   0x00000064   Code   RO          825    i.KEY_Init          key.o
    0x08001534   0x08001534   0x00000060   Code   RO          826    i.KEY_Scan          key.o
    0x08001594   0x08001594   0x0000007c   Code   RO          751    i.LED_Init          dr_led.o
    0x08001610   0x08001610   0x00000004   Code   RO          203    i.MemManage_Handler  stm32f3xx_it.o
    0x08001614   0x08001614   0x00000002   Code   RO          204    i.NMI_Handler       stm32f3xx_it.o
    0x08001616   0x08001616   0x00000002   PAD
    0x08001618   0x08001618   0x00000070   Code   RO         2933    i.NVIC_Init         stm32f30x_misc.o
    0x08001688   0x08001688   0x0000003e   Code   RO          596    i.OLED_Clear        oled.o
    0x080016c6   0x080016c6   0x00000002   PAD
    0x080016c8   0x080016c8   0x00000118   Code   RO          600    i.OLED_Init         oled.o
    0x080017e0   0x080017e0   0x00000028   Code   RO          602    i.OLED_Set_Pos      oled.o
    0x08001808   0x08001808   0x000000a4   Code   RO          604    i.OLED_ShowChar     oled.o
    0x080018ac   0x080018ac   0x0000008c   Code   RO          605    i.OLED_ShowNum      oled.o
    0x08001938   0x08001938   0x00000088   Code   RO          606    i.OLED_ShowNum_0    oled.o
    0x080019c0   0x080019c0   0x000000ec   Code   RO          607    i.OLED_ShowNumf     oled.o
    0x08001aac   0x08001aac   0x00000018   Code   RO          609    i.OLED_WR_Byte      oled.o
    0x08001ac4   0x08001ac4   0x00000014   Code   RO          396    i.PWM_ClearITPendingBit  my_board.o
    0x08001ad8   0x08001ad8   0x00000002   Code   RO          205    i.PendSV_Handler    stm32f3xx_it.o
    0x08001ada   0x08001ada   0x00000002   PAD
    0x08001adc   0x08001adc   0x00000030   Code   RO         3155    i.RCC_ADCCLKConfig  stm32f30x_rcc.o
    0x08001b0c   0x08001b0c   0x00000020   Code   RO         3156    i.RCC_AHBPeriphClockCmd  stm32f30x_rcc.o
    0x08001b2c   0x08001b2c   0x00000020   Code   RO         3157    i.RCC_AHBPeriphResetCmd  stm32f30x_rcc.o
    0x08001b4c   0x08001b4c   0x00000020   Code   RO         3160    i.RCC_APB2PeriphClockCmd  stm32f30x_rcc.o
    0x08001b6c   0x08001b6c   0x00000538   Code   RO         3168    i.RCC_GetClocksFreq  stm32f30x_rcc.o
    0x080020a4   0x080020a4   0x0000001c   Code   RO         3173    i.RCC_HRTIM1CLKConfig  stm32f30x_rcc.o
    0x080020c0   0x080020c0   0x00000002   Code   RO          206    i.SVC_Handler       stm32f3xx_it.o
    0x080020c2   0x080020c2   0x00000002   PAD
    0x080020c4   0x080020c4   0x000000c4   Code   RO          277    i.SetSysClock       system_stm32f30x.o
    0x08002188   0x08002188   0x00000008   Code   RO          207    i.SysTick_Handler   stm32f3xx_it.o
    0x08002190   0x08002190   0x00000084   Code   RO          279    i.SystemInit        system_stm32f30x.o
    0x08002214   0x08002214   0x00000002   Code   RO          332    i.TPHINV_ELAB_initialize  elab_subsystem.o
    0x08002216   0x08002216   0x00000002   PAD
    0x08002218   0x08002218   0x00000368   Code   RO          333    i.TPHINV_ELAB_step  elab_subsystem.o
    0x08002580   0x08002580   0x00000002   Code   RO          369    i.TPHINV_KEY_initialize  key_elab.o
    0x08002582   0x08002582   0x00000002   Code   RO          370    i.TPHINV_KEY_step   key_elab.o
    0x08002584   0x08002584   0x00000018   Code   RO          280    i.TimingDelay_Decrement  system_stm32f30x.o
    0x0800259c   0x0800259c   0x00000016   Code   RO         4746    i.USART_Cmd         stm32f30x_usart.o
    0x080025b2   0x080025b2   0x00000002   PAD
    0x080025b4   0x080025b4   0x000000ec   Code   RO         4758    i.USART_Init        stm32f30x_usart.o
    0x080026a0   0x080026a0   0x00000004   Code   RO          208    i.UsageFault_Handler  stm32f3xx_it.o
    0x080026a4   0x080026a4   0x0000005c   Code   RO          610    i.Write_IIC_Byte    oled.o
    0x08002700   0x08002700   0x0000002c   Code   RO          611    i.Write_IIC_Command  oled.o
    0x0800272c   0x0800272c   0x0000002c   Code   RO          612    i.Write_IIC_Data    oled.o
    0x08002758   0x08002758   0x00000030   Code   RO         5396    i.__ARM_fpclassify  m_wm.l(fpclassify.o)
    0x08002788   0x08002788   0x000000c8   Code   RO         5281    i.__hardfp_sin      m_wm.l(sin.o)
    0x08002850   0x08002850   0x0000003a   Code   RO         5293    i.__hardfp_sqrtf    m_wm.l(sqrtf.o)
    0x0800288a   0x0800288a   0x00000006   PAD
    0x08002890   0x08002890   0x00000438   Code   RO         5343    i.__ieee754_rem_pio2  m_wm.l(rred.o)
    0x08002cc8   0x08002cc8   0x00000170   Code   RO         5326    i.__kernel_cos      m_wm.l(cos_i.o)
    0x08002e38   0x08002e38   0x000000f8   Code   RO         5398    i.__kernel_poly     m_wm.l(poly.o)
    0x08002f30   0x08002f30   0x00000130   Code   RO         5348    i.__kernel_sin      m_wm.l(sin_i.o)
    0x08003060   0x08003060   0x00000014   Code   RO         5330    i.__mathlib_dbl_infnan  m_wm.l(dunder.o)
    0x08003074   0x08003074   0x00000004   PAD
    0x08003078   0x08003078   0x00000020   Code   RO         5332    i.__mathlib_dbl_invalid  m_wm.l(dunder.o)
    0x08003098   0x08003098   0x00000020   Code   RO         5335    i.__mathlib_dbl_underflow  m_wm.l(dunder.o)
    0x080030b8   0x080030b8   0x0000000e   Code   RO         5406    i.__scatterload_copy  mc_w.l(handlers.o)
    0x080030c6   0x080030c6   0x00000002   Code   RO         5407    i.__scatterload_null  mc_w.l(handlers.o)
    0x080030c8   0x080030c8   0x0000000e   Code   RO         5408    i.__scatterload_zeroinit  mc_w.l(handlers.o)
    0x080030d6   0x080030d6   0x00000002   PAD
    0x080030d8   0x080030d8   0x0000000c   Code   RO         5378    i.__set_errno       mc_w.l(errno.o)
    0x080030e4   0x080030e4   0x00000018   Code   RO          281    i.delay_ms          system_stm32f30x.o
    0x080030fc   0x080030fc   0x00000018   Code   RO         5392    i.fabs              m_wm.l(fabs.o)
    0x08003114   0x08003114   0x0000002e   Code   RO          399    i.get_middle_num_adc  my_board.o
    0x08003142   0x08003142   0x00000002   PAD
    0x08003144   0x08003144   0x00000010   Code   RO          752    i.led1_off          dr_led.o
    0x08003154   0x08003154   0x00000010   Code   RO          753    i.led1_on           dr_led.o
    0x08003164   0x08003164   0x00000010   Code   RO          755    i.led2_off          dr_led.o
    0x08003174   0x08003174   0x00000010   Code   RO          756    i.led2_on           dr_led.o
    0x08003184   0x08003184   0x00000010   Code   RO          758    i.led3_off          dr_led.o
    0x08003194   0x08003194   0x00000010   Code   RO          759    i.led3_on           dr_led.o
    0x080031a4   0x080031a4   0x0000000c   Code   RO          400    i.main              my_board.o
    0x080031b0   0x080031b0   0x00000130   Code   RO            4    i.main_circle_func  main.o
    0x080032e0   0x080032e0   0x000003f4   Code   RO          401    i.my_adc_init       my_board.o
    0x080036d4   0x080036d4   0x00000040   Code   RO            5    i.my_board_init     main.o
    0x08003714   0x08003714   0x00000754   Code   RO          402    i.my_pwm_init       my_board.o
    0x08003e68   0x08003e68   0x0000008c   Code   RO          468    i.my_pwm_update     my_board.o
    0x08003ef4   0x08003ef4   0x0000008c   Code   RO          474    i.my_pwm_update_gai  my_board.o
    0x08003f80   0x08003f80   0x00000080   Code   RO          403    i.my_system_config  my_board.o
    0x08004000   0x08004000   0x00000016   Code   RO          614    i.oled_pow          oled.o
    0x08004016   0x08004016   0x00000002   PAD
    0x08004018   0x08004018   0x0000007c   Code   RO          404    i.usart_set         my_board.o
    0x08004094   0x08004094   0x00000818   Data   RO          615    .constdata          oled.o
    0x080048ac   0x080048ac   0x00000004   PAD
    0x080048b0   0x080048b0   0x00000030   Data   RO         5327    .constdata          m_wm.l(cos_i.o)
    0x080048e0   0x080048e0   0x000000c8   Data   RO         5345    .constdata          m_wm.l(rred.o)
    0x080049a8   0x080049a8   0x00000028   Data   RO         5349    .constdata          m_wm.l(sin_i.o)
    0x080049d0   0x080049d0   0x00000020   Data   RO         5404    Region$$Table       anon$$obj.o


    Execution Region RW_IRAM1 (Exec base: 0x20000000, Load base: 0x080049f0, Size: 0x00001168, Max: 0x00002800, ABSOLUTE)

    Exec Addr    Load Addr    Size         Type   Attr      Idx    E Section Name        Object

    0x20000000   0x080049f0   0x0000001a   Data   RW            7    .data               main.o
    0x2000001a   0x08004a0a   0x00000002   PAD
    0x2000001c   0x08004a0c   0x00000019   Data   RW          283    .data               system_stm32f30x.o
    0x20000035   0x08004a25   0x00000003   PAD
    0x20000038   0x08004a28   0x00000008   Data   RW          406    .data               my_board.o
    0x20000040   0x08004a30   0x00000030   Data   RW         3195    .data               stm32f30x_rcc.o
    0x20000070   0x08004a60   0x00000004   Data   RW         5379    .data               mc_w.l(errno.o)
    0x20000074   0x08004a64   0x00000004   PAD
    0x20000078        -       0x00000088   Zero   RW          334    .bss                elab_subsystem.o
    0x20000100        -       0x00000018   Zero   RW          371    .bss                key_elab.o
    0x20000118        -       0x00000050   Zero   RW          405    .bss                my_board.o
    0x20000168        -       0x00001000   Zero   RW         5107    STACK               startup_stm32f334x8.o


==============================================================================

Image component sizes


      Code (inc. data)   RO Data    RW Data    ZI Data      Debug   Object Name

       220         42          0          0          0       3202   dr_led.o
       874         96          0          0        136       2847   elab_subsystem.o
       196         12          0          0          0       1174   key.o
         4          0          0          0         24       1650   key_elab.o
       836         50          0         26          0     377769   main.o
      3498        112          0          8         80      34639   my_board.o
      1400         32       2072          0          0      10331   oled.o
        36          8        392          0       4096        836   startup_stm32f334x8.o
       658         36          0          0          0       8405   stm32f30x_adc.o
       442          8          0          0          0       3919   stm32f30x_dma.o
       246          0          0          0          0       3487   stm32f30x_gpio.o
      1412         24          0          0          0      13236   stm32f30x_hrtim.o
       112         12          0          0          0       1032   stm32f30x_misc.o
      1508         48          0         48          0       6054   stm32f30x_rcc.o
       258         16          0          0          0       2061   stm32f30x_usart.o
        34          0          0          0          0       4637   stm32f3xx_it.o
       376         38          0         25          0       2795   system_stm32f30x.o

    ----------------------------------------------------------------------
     12130        534       2500        112       4336     478074   Object Totals
         0          0         32          0          0          0   (incl. Generated)
        20          0          4          5          0          0   (incl. Padding)

    ----------------------------------------------------------------------

      Code (inc. data)   RO Data    RW Data    ZI Data      Debug   Library Member Name

       368         46         48          0          0        200   cos_i.o
        84         16          0          0          0        372   dunder.o
        24          0          0          0          0        124   fabs.o
        48          0          0          0          0        124   fpclassify.o
       248          0          0          0          0        152   poly.o
      1080        142        200          0          0        188   rred.o
       200         20          0          0          0        164   sin.o
       304         24         40          0          0        208   sin_i.o
        58          0          0          0          0        136   sqrtf.o
         0          0          0          0          0          0   entry.o
         0          0          0          0          0          0   entry10a.o
         0          0          0          0          0          0   entry11a.o
         4          0          0          0          0          0   entry12b.o
         8          4          0          0          0          0   entry2.o
         4          0          0          0          0          0   entry5.o
         0          0          0          0          0          0   entry7b.o
         0          0          0          0          0          0   entry8b.o
         8          4          0          0          0          0   entry9a.o
        12          6          0          4          0         68   errno.o
        30          0          0          0          0          0   handlers.o
        36          8          0          0          0         68   init.o
         0          0          0          0          0          0   iusefp.o
        30          0          0          0          0         68   llshl.o
        36          0          0          0          0         68   llsshr.o
        32          0          0          0          0         68   llushr.o
        36          0          0          0          0        108   memseta.o
        56          0          0          0          0         88   d2f.o
       334          0          0          0          0        148   dadd.o
       222          0          0          0          0        100   ddiv.o
       186          0          0          0          0        176   depilogue.o
        62          0          0          0          0         80   dfixi.o
        50          0          0          0          0         76   dfixui.o
        34          0          0          0          0         76   dflti.o
        26          0          0          0          0         76   dfltui.o
       228          0          0          0          0         96   dmul.o
        38          0          0          0          0         68   f2d.o
       110          0          0          0          0        168   fepilogue.o

    ----------------------------------------------------------------------
      4010        270        288          4          4       3268   Library Totals
        14          0          0          0          4          0   (incl. Padding)

    ----------------------------------------------------------------------

      Code (inc. data)   RO Data    RW Data    ZI Data      Debug   Library Name

      2414        248        288          0          0       1668   m_wm.l
       236         22          0          4          0        448   mc_w.l
      1346          0          0          0          0       1152   mf_w.l

    ----------------------------------------------------------------------
      4010        270        288          4          4       3268   Library Totals

    ----------------------------------------------------------------------

==============================================================================


      Code (inc. data)   RO Data    RW Data    ZI Data      Debug   

     16140        804       2788        116       4340     470018   Grand Totals
     16140        804       2788        116       4340     470018   ELF Image Totals
     16140        804       2788        116          0          0   ROM Totals

==============================================================================

    Total RO  Size (Code + RO Data)                18928 (  18.48kB)
    Total RW  Size (RW Data + ZI Data)              4456 (   4.35kB)
    Total ROM Size (Code + RO Data + RW Data)      19044 (  18.60kB)

==============================================================================

