Component: ARM Compiler 5.06 update 7 (build 960) Tool: armlink [4d3601]

==============================================================================

Section Cross References

    main.o(i.HRTIM1_Master_IRQHandler) refers to my_board.o(i.PWM_ClearITPendingBit) for PWM_ClearITPendingBit
    main.o(i.HRTIM1_Master_IRQHandler) refers to my_board.o(i.get_middle_num_adc) for get_middle_num_adc
    main.o(i.HRTIM1_Master_IRQHandler) refers to my_board.o(i.my_pwm_update) for my_pwm_update
    main.o(i.HRTIM1_Master_IRQHandler) refers to my_board.o(.bss) for adc_sample_buff
    main.o(i.HRTIM1_Master_IRQHandler) refers to main.o(.data) for UBUS
    main.o(i.main_circle_func) refers to key.o(i.KEY_Scan) for KEY_Scan
    main.o(i.main_circle_func) refers to oled.o(i.OLED_ShowNumf) for OLED_ShowNumf
    main.o(i.main_circle_func) refers to my_board.o(i.get_middle_num_adc) for get_middle_num_adc
    main.o(i.main_circle_func) refers to main.o(.data) for KEY_NUM
    main.o(i.main_circle_func) refers to my_board.o(.bss) for adc_sample_buff
    main.o(i.my_board_init) refers to my_board.o(i.my_system_config) for my_system_config
    main.o(i.my_board_init) refers to my_board.o(i.my_adc_init) for my_adc_init
    main.o(i.my_board_init) refers to my_board.o(i.my_pwm_init) for my_pwm_init
    main.o(i.my_board_init) refers to oled.o(i.OLED_Init) for OLED_Init
    main.o(i.my_board_init) refers to oled.o(i.OLED_Clear) for OLED_Clear
    main.o(i.my_board_init) refers to key.o(i.KEY_Init) for KEY_Init
    main.o(i.my_board_init) refers to dr_led.o(i.LED_Init) for LED_Init
    stm32f3xx_it.o(i.SysTick_Handler) refers to system_stm32f30x.o(i.TimingDelay_Decrement) for TimingDelay_Decrement
==============================================================================

Removing Unused input sections from the image.

    Removing main.o(.rev16_text), (4 bytes).
    Removing main.o(.revsh_text), (4 bytes).
    Removing main.o(.bss), (204 bytes).
    Removing stm32f3xx_it.o(.rev16_text), (4 bytes).
    Removing stm32f3xx_it.o(.revsh_text), (4 bytes).
    Removing system_stm32f30x.o(.rev16_text), (4 bytes).
    Removing system_stm32f30x.o(.revsh_text), (4 bytes).
    Removing system_stm32f30x.o(i.SystemCoreClockUpdate), (160 bytes).
    Removing system_stm32f30x.o(i.delay_us), (24 bytes).
    Removing elab_subsystem.o(i.buck_ELAB_initialize), (48 bytes).
    Removing elab_subsystem.o(i.buck_ELAB_step), (572 bytes).
    Removing elab_subsystem.o(.bss), (208 bytes).
    Removing key_elab.o(i.buck_KEY_initialize), (2 bytes).
    Removing key_elab.o(i.buck_KEY_step), (76 bytes).
    Removing key_elab.o(.bss), (48 bytes).
    Removing key_elab.o(.data), (8 bytes).
    Removing my_board.o(.rev16_text), (4 bytes).
    Removing my_board.o(.revsh_text), (4 bytes).
==============================================================================

Image Symbol Table

    Local Symbols

    Symbol Name                              Value     Ov Type        Size  Object(Section)

    ../clib/microlib/init/entry.s            0x00000000   Number         0  entry9a.o ABSOLUTE
    ../clib/microlib/init/entry.s            0x00000000   Number         0  entry.o ABSOLUTE
    ../clib/microlib/init/entry.s            0x00000000   Number         0  entry12b.o ABSOLUTE
    ../clib/microlib/init/entry.s            0x00000000   Number         0  entry12a.o ABSOLUTE
    ../clib/microlib/init/entry.s            0x00000000   Number         0  entry11b.o ABSOLUTE
    ../clib/microlib/init/entry.s            0x00000000   Number         0  entry11a.o ABSOLUTE
    ../clib/microlib/init/entry.s            0x00000000   Number         0  entry10b.o ABSOLUTE
    ../clib/microlib/init/entry.s            0x00000000   Number         0  entry10a.o ABSOLUTE
    ../clib/microlib/init/entry.s            0x00000000   Number         0  entry9b.o ABSOLUTE
    ../clib/microlib/init/entry.s            0x00000000   Number         0  entry8a.o ABSOLUTE
    ../clib/microlib/init/entry.s            0x00000000   Number         0  entry8b.o ABSOLUTE
    ../clib/microlib/init/entry.s            0x00000000   Number         0  entry7b.o ABSOLUTE
    ../clib/microlib/init/entry.s            0x00000000   Number         0  entry7a.o ABSOLUTE
    ../clib/microlib/init/entry.s            0x00000000   Number         0  entry5.o ABSOLUTE
    ../clib/microlib/init/entry.s            0x00000000   Number         0  entry2.o ABSOLUTE
    ../clib/microlib/longlong.c              0x00000000   Number         0  llsshr.o ABSOLUTE
    ../clib/microlib/longlong.c              0x00000000   Number         0  llushr.o ABSOLUTE
    ../clib/microlib/longlong.c              0x00000000   Number         0  llshl.o ABSOLUTE
    ../clib/microlib/string/memset.c         0x00000000   Number         0  memseta.o ABSOLUTE
    ../clib/microlib/stubs.s                 0x00000000   Number         0  iusefp.o ABSOLUTE
    ../fplib/microlib/f2d.c                  0x00000000   Number         0  f2d.o ABSOLUTE
    ../fplib/microlib/fpadd.c                0x00000000   Number         0  dadd.o ABSOLUTE
    ../fplib/microlib/fpdiv.c                0x00000000   Number         0  ddiv.o ABSOLUTE
    ../fplib/microlib/fpepilogue.c           0x00000000   Number         0  depilogue.o ABSOLUTE
    ../fplib/microlib/fpfix.c                0x00000000   Number         0  dfixui.o ABSOLUTE
    ../fplib/microlib/fpflt.c                0x00000000   Number         0  dfltui.o ABSOLUTE
    ../fplib/microlib/fpflt.c                0x00000000   Number         0  dflti.o ABSOLUTE
    ../fplib/microlib/fpmul.c                0x00000000   Number         0  dmul.o ABSOLUTE
    ..\BasicMathFunctions\arm_abs_f32.c      0x00000000   Number         0  arm_abs_f32.o ABSOLUTE
    ..\FastMathFunctions\arm_cos_f32.c       0x00000000   Number         0  arm_cos_f32.o ABSOLUTE
    ..\FastMathFunctions\arm_sin_f32.c       0x00000000   Number         0  arm_sin_f32.o ABSOLUTE
    ..\\BasicMathFunctions\\arm_abs_f32.c    0x00000000   Number         0  arm_abs_f32.o ABSOLUTE
    ..\\FastMathFunctions\\arm_cos_f32.c     0x00000000   Number         0  arm_cos_f32.o ABSOLUTE
    ..\\FastMathFunctions\\arm_sin_f32.c     0x00000000   Number         0  arm_sin_f32.o ABSOLUTE
    ..\\api\\OLED\\oled.c                    0x00000000   Number         0  oled.o ABSOLUTE
    ..\\cntl_lib_yyds\\SVPWM_CTR.c           0x00000000   Number         0  svpwm_ctr.o ABSOLUTE
    ..\\cntl_lib_yyds\\my_board.c            0x00000000   Number         0  my_board.o ABSOLUTE
    ..\\driver\\dr_led.c                     0x00000000   Number         0  dr_led.o ABSOLUTE
    ..\\driver\\key.c                        0x00000000   Number         0  key.o ABSOLUTE
    ..\\fwlib\\src\\stm32f30x_adc.c          0x00000000   Number         0  stm32f30x_adc.o ABSOLUTE
    ..\\fwlib\\src\\stm32f30x_can.c          0x00000000   Number         0  stm32f30x_can.o ABSOLUTE
    ..\\fwlib\\src\\stm32f30x_comp.c         0x00000000   Number         0  stm32f30x_comp.o ABSOLUTE
    ..\\fwlib\\src\\stm32f30x_crc.c          0x00000000   Number         0  stm32f30x_crc.o ABSOLUTE
    ..\\fwlib\\src\\stm32f30x_dac.c          0x00000000   Number         0  stm32f30x_dac.o ABSOLUTE
    ..\\fwlib\\src\\stm32f30x_dbgmcu.c       0x00000000   Number         0  stm32f30x_dbgmcu.o ABSOLUTE
    ..\\fwlib\\src\\stm32f30x_dma.c          0x00000000   Number         0  stm32f30x_dma.o ABSOLUTE
    ..\\fwlib\\src\\stm32f30x_exti.c         0x00000000   Number         0  stm32f30x_exti.o ABSOLUTE
    ..\\fwlib\\src\\stm32f30x_flash.c        0x00000000   Number         0  stm32f30x_flash.o ABSOLUTE
    ..\\fwlib\\src\\stm32f30x_gpio.c         0x00000000   Number         0  stm32f30x_gpio.o ABSOLUTE
    ..\\fwlib\\src\\stm32f30x_hrtim.c        0x00000000   Number         0  stm32f30x_hrtim.o ABSOLUTE
    ..\\fwlib\\src\\stm32f30x_i2c.c          0x00000000   Number         0  stm32f30x_i2c.o ABSOLUTE
    ..\\fwlib\\src\\stm32f30x_iwdg.c         0x00000000   Number         0  stm32f30x_iwdg.o ABSOLUTE
    ..\\fwlib\\src\\stm32f30x_misc.c         0x00000000   Number         0  stm32f30x_misc.o ABSOLUTE
    ..\\fwlib\\src\\stm32f30x_opamp.c        0x00000000   Number         0  stm32f30x_opamp.o ABSOLUTE
    ..\\fwlib\\src\\stm32f30x_pwr.c          0x00000000   Number         0  stm32f30x_pwr.o ABSOLUTE
    ..\\fwlib\\src\\stm32f30x_rcc.c          0x00000000   Number         0  stm32f30x_rcc.o ABSOLUTE
    ..\\fwlib\\src\\stm32f30x_rtc.c          0x00000000   Number         0  stm32f30x_rtc.o ABSOLUTE
    ..\\fwlib\\src\\stm32f30x_spi.c          0x00000000   Number         0  stm32f30x_spi.o ABSOLUTE
    ..\\fwlib\\src\\stm32f30x_syscfg.c       0x00000000   Number         0  stm32f30x_syscfg.o ABSOLUTE
    ..\\fwlib\\src\\stm32f30x_tim.c          0x00000000   Number         0  stm32f30x_tim.o ABSOLUTE
    ..\\fwlib\\src\\stm32f30x_usart.c        0x00000000   Number         0  stm32f30x_usart.o ABSOLUTE
    ..\\fwlib\\src\\stm32f30x_wwdg.c         0x00000000   Number         0  stm32f30x_wwdg.o ABSOLUTE
    ..\\main\\main.c                         0x00000000   Number         0  main.o ABSOLUTE
    ..\\main\\stm32f3xx_it.c                 0x00000000   Number         0  stm32f3xx_it.o ABSOLUTE
    ..\\main\\system_stm32f30x.c             0x00000000   Number         0  system_stm32f30x.o ABSOLUTE
    ..\\measure\\power_meas_sine_analyzer.c  0x00000000   Number         0  power_meas_sine_analyzer.o ABSOLUTE
    ..\\measure\\spll_1ph_sogi.c             0x00000000   Number         0  spll_1ph_sogi.o ABSOLUTE
    ..\api\OLED\oled.c                       0x00000000   Number         0  oled.o ABSOLUTE
    ..\cm4_core\startup_stm32f334x8.s        0x00000000   Number         0  startup_stm32f334x8.o ABSOLUTE
    ..\cntl_lib_yyds\SVPWM_CTR.c             0x00000000   Number         0  svpwm_ctr.o ABSOLUTE
    ..\cntl_lib_yyds\my_board.c              0x00000000   Number         0  my_board.o ABSOLUTE
    ..\cntl_lib_yyds\pid_yyds.c              0x00000000   Number         0  pid_yyds.o ABSOLUTE
    ..\driver\dr_led.c                       0x00000000   Number         0  dr_led.o ABSOLUTE
    ..\driver\key.c                          0x00000000   Number         0  key.o ABSOLUTE
    ..\fwlib\src\stm32f30x_adc.c             0x00000000   Number         0  stm32f30x_adc.o ABSOLUTE
    ..\fwlib\src\stm32f30x_can.c             0x00000000   Number         0  stm32f30x_can.o ABSOLUTE
    ..\fwlib\src\stm32f30x_comp.c            0x00000000   Number         0  stm32f30x_comp.o ABSOLUTE
    ..\fwlib\src\stm32f30x_crc.c             0x00000000   Number         0  stm32f30x_crc.o ABSOLUTE
    ..\fwlib\src\stm32f30x_dac.c             0x00000000   Number         0  stm32f30x_dac.o ABSOLUTE
    ..\fwlib\src\stm32f30x_dbgmcu.c          0x00000000   Number         0  stm32f30x_dbgmcu.o ABSOLUTE
    ..\fwlib\src\stm32f30x_dma.c             0x00000000   Number         0  stm32f30x_dma.o ABSOLUTE
    ..\fwlib\src\stm32f30x_exti.c            0x00000000   Number         0  stm32f30x_exti.o ABSOLUTE
    ..\fwlib\src\stm32f30x_flash.c           0x00000000   Number         0  stm32f30x_flash.o ABSOLUTE
    ..\fwlib\src\stm32f30x_gpio.c            0x00000000   Number         0  stm32f30x_gpio.o ABSOLUTE
    ..\fwlib\src\stm32f30x_hrtim.c           0x00000000   Number         0  stm32f30x_hrtim.o ABSOLUTE
    ..\fwlib\src\stm32f30x_i2c.c             0x00000000   Number         0  stm32f30x_i2c.o ABSOLUTE
    ..\fwlib\src\stm32f30x_iwdg.c            0x00000000   Number         0  stm32f30x_iwdg.o ABSOLUTE
    ..\fwlib\src\stm32f30x_misc.c            0x00000000   Number         0  stm32f30x_misc.o ABSOLUTE
    ..\fwlib\src\stm32f30x_opamp.c           0x00000000   Number         0  stm32f30x_opamp.o ABSOLUTE
    ..\fwlib\src\stm32f30x_pwr.c             0x00000000   Number         0  stm32f30x_pwr.o ABSOLUTE
    ..\fwlib\src\stm32f30x_rcc.c             0x00000000   Number         0  stm32f30x_rcc.o ABSOLUTE
    ..\fwlib\src\stm32f30x_rtc.c             0x00000000   Number         0  stm32f30x_rtc.o ABSOLUTE
    ..\fwlib\src\stm32f30x_spi.c             0x00000000   Number         0  stm32f30x_spi.o ABSOLUTE
    ..\fwlib\src\stm32f30x_syscfg.c          0x00000000   Number         0  stm32f30x_syscfg.o ABSOLUTE
    ..\fwlib\src\stm32f30x_tim.c             0x00000000   Number         0  stm32f30x_tim.o ABSOLUTE
    ..\fwlib\src\stm32f30x_usart.c           0x00000000   Number         0  stm32f30x_usart.o ABSOLUTE
    ..\fwlib\src\stm32f30x_wwdg.c            0x00000000   Number         0  stm32f30x_wwdg.o ABSOLUTE
    ..\main\ELAB_subsystem.c                 0x00000000   Number         0  elab_subsystem.o ABSOLUTE
    ..\main\KEY_ELAB.c                       0x00000000   Number         0  key_elab.o ABSOLUTE
    ..\main\main.c                           0x00000000   Number         0  main.o ABSOLUTE
    ..\main\stm32f3xx_it.c                   0x00000000   Number         0  stm32f3xx_it.o ABSOLUTE
    ..\main\system_stm32f30x.c               0x00000000   Number         0  system_stm32f30x.o ABSOLUTE
    ..\measure\power_meas_sine_analyzer.c    0x00000000   Number         0  power_meas_sine_analyzer.o ABSOLUTE
    ..\measure\spll_1ph_sogi.c               0x00000000   Number         0  spll_1ph_sogi.o ABSOLUTE
    cdcmple.s                                0x00000000   Number         0  cdcmple.o ABSOLUTE
    cdrcmple.s                               0x00000000   Number         0  cdrcmple.o ABSOLUTE
    dc.s                                     0x00000000   Number         0  dc.o ABSOLUTE
    handlers.s                               0x00000000   Number         0  handlers.o ABSOLUTE
    init.s                                   0x00000000   Number         0  init.o ABSOLUTE
    RESET                                    0x08000000   Section      392  startup_stm32f334x8.o(RESET)
    .ARM.Collect$$$$00000000                 0x08000188   Section        0  entry.o(.ARM.Collect$$$$00000000)
    .ARM.Collect$$$$00000001                 0x08000188   Section        4  entry2.o(.ARM.Collect$$$$00000001)
    .ARM.Collect$$$$00000004                 0x0800018c   Section        4  entry5.o(.ARM.Collect$$$$00000004)
    .ARM.Collect$$$$00000008                 0x08000190   Section        0  entry7b.o(.ARM.Collect$$$$00000008)
    .ARM.Collect$$$$0000000A                 0x08000190   Section        0  entry8b.o(.ARM.Collect$$$$0000000A)
    .ARM.Collect$$$$0000000B                 0x08000190   Section        8  entry9a.o(.ARM.Collect$$$$0000000B)
    .ARM.Collect$$$$0000000E                 0x08000198   Section        4  entry12b.o(.ARM.Collect$$$$0000000E)
    .ARM.Collect$$$$0000000F                 0x0800019c   Section        0  entry10a.o(.ARM.Collect$$$$0000000F)
    .ARM.Collect$$$$00000011                 0x0800019c   Section        0  entry11a.o(.ARM.Collect$$$$00000011)
    .ARM.Collect$$$$00002712                 0x0800019c   Section        4  entry2.o(.ARM.Collect$$$$00002712)
    __lit__00000000                          0x0800019c   Data           4  entry2.o(.ARM.Collect$$$$00002712)
    .text                                    0x080001a0   Section       36  startup_stm32f334x8.o(.text)
    $v0                                      0x080001a0   Number         0  startup_stm32f334x8.o(.text)
    .text                                    0x080001c4   Section        0  memseta.o(.text)
    .text                                    0x080001e8   Section        0  dmul.o(.text)
    .text                                    0x080002cc   Section        0  dfltui.o(.text)
    .text                                    0x080002e6   Section        0  dfixui.o(.text)
    .text                                    0x08000318   Section        0  llshl.o(.text)
    .text                                    0x08000336   Section        0  llushr.o(.text)
    .text                                    0x08000356   Section        0  iusefp.o(.text)
    .text                                    0x08000356   Section        0  depilogue.o(.text)
    .text                                    0x08000410   Section       36  init.o(.text)
    i.ADC_Cmd                                0x08000434   Section        0  stm32f30x_adc.o(i.ADC_Cmd)
    i.ADC_CommonInit                         0x0800044c   Section        0  stm32f30x_adc.o(i.ADC_CommonInit)
    i.ADC_DMACmd                             0x080004b0   Section        0  stm32f30x_adc.o(i.ADC_DMACmd)
    i.ADC_DMAConfig                          0x080004c6   Section        0  stm32f30x_adc.o(i.ADC_DMAConfig)
    i.ADC_DeInit                             0x080004d8   Section        0  stm32f30x_adc.o(i.ADC_DeInit)
    i.ADC_GetCalibrationStatus               0x08000528   Section        0  stm32f30x_adc.o(i.ADC_GetCalibrationStatus)
    i.ADC_GetFlagStatus                      0x0800053c   Section        0  stm32f30x_adc.o(i.ADC_GetFlagStatus)
    i.ADC_Init                               0x08000550   Section        0  stm32f30x_adc.o(i.ADC_Init)
    i.ADC_RegularChannelConfig               0x08000590   Section        0  stm32f30x_adc.o(i.ADC_RegularChannelConfig)
    i.ADC_SelectCalibrationMode              0x0800068a   Section        0  stm32f30x_adc.o(i.ADC_SelectCalibrationMode)
    i.ADC_StartCalibration                   0x0800069a   Section        0  stm32f30x_adc.o(i.ADC_StartCalibration)
    i.ADC_StartConversion                    0x080006a4   Section        0  stm32f30x_adc.o(i.ADC_StartConversion)
    i.ADC_VoltageRegulatorCmd                0x080006ae   Section        0  stm32f30x_adc.o(i.ADC_VoltageRegulatorCmd)
    i.BusFault_Handler                       0x080006cc   Section        0  stm32f3xx_it.o(i.BusFault_Handler)
    i.DMA_Cmd                                0x080006d0   Section        0  stm32f30x_dma.o(i.DMA_Cmd)
    i.DMA_DeInit                             0x080006e8   Section        0  stm32f30x_dma.o(i.DMA_DeInit)
    i.DMA_Init                               0x08000834   Section        0  stm32f30x_dma.o(i.DMA_Init)
    i.DMA_StructInit                         0x08000870   Section        0  stm32f30x_dma.o(i.DMA_StructInit)
    i.DebugMon_Handler                       0x0800088a   Section        0  stm32f3xx_it.o(i.DebugMon_Handler)
    i.EXTI0_IRQHandler                       0x0800088c   Section        0  stm32f3xx_it.o(i.EXTI0_IRQHandler)
    i.GPIO_Init                              0x0800088e   Section        0  stm32f30x_gpio.o(i.GPIO_Init)
    i.GPIO_PinAFConfig                       0x08000924   Section        0  stm32f30x_gpio.o(i.GPIO_PinAFConfig)
    i.GPIO_ReadInputDataBit                  0x0800096a   Section        0  stm32f30x_gpio.o(i.GPIO_ReadInputDataBit)
    i.GPIO_ResetBits                         0x0800097c   Section        0  stm32f30x_gpio.o(i.GPIO_ResetBits)
    i.GPIO_SetBits                           0x08000980   Section        0  stm32f30x_gpio.o(i.GPIO_SetBits)
    i.HRTIM1_Master_IRQHandler               0x08000984   Section        0  main.o(i.HRTIM1_Master_IRQHandler)
    i.HRTIM_ADCTriggerConfig                 0x08000af0   Section        0  stm32f30x_hrtim.o(i.HRTIM_ADCTriggerConfig)
    i.HRTIM_ClearITPendingBit                0x08000b62   Section        0  stm32f30x_hrtim.o(i.HRTIM_ClearITPendingBit)
    i.HRTIM_DLLCalibrationStart              0x08000ba0   Section        0  stm32f30x_hrtim.o(i.HRTIM_DLLCalibrationStart)
    i.HRTIM_DeadTimeConfig                   0x08000bc8   Section        0  stm32f30x_hrtim.o(i.HRTIM_DeadTimeConfig)
    i.HRTIM_GetCommonFlagStatus              0x08000c14   Section        0  stm32f30x_hrtim.o(i.HRTIM_GetCommonFlagStatus)
    i.HRTIM_ITConfig                         0x08000c2a   Section        0  stm32f30x_hrtim.o(i.HRTIM_ITConfig)
    i.HRTIM_MasterBase_Config                0x08000c8c   Section        0  stm32f30x_hrtim.o(i.HRTIM_MasterBase_Config)
    HRTIM_MasterBase_Config                  0x08000c8d   Thumb Code    42  stm32f30x_hrtim.o(i.HRTIM_MasterBase_Config)
    i.HRTIM_MasterSetCompare                 0x08000cb6   Section        0  stm32f30x_hrtim.o(i.HRTIM_MasterSetCompare)
    i.HRTIM_MasterWaveform_Config            0x08000cde   Section        0  stm32f30x_hrtim.o(i.HRTIM_MasterWaveform_Config)
    HRTIM_MasterWaveform_Config              0x08000cdf   Thumb Code    88  stm32f30x_hrtim.o(i.HRTIM_MasterWaveform_Config)
    i.HRTIM_OutputConfig                     0x08000d36   Section        0  stm32f30x_hrtim.o(i.HRTIM_OutputConfig)
    HRTIM_OutputConfig                       0x08000d37   Thumb Code   202  stm32f30x_hrtim.o(i.HRTIM_OutputConfig)
    i.HRTIM_SlaveSetCompare                  0x08000e00   Section        0  stm32f30x_hrtim.o(i.HRTIM_SlaveSetCompare)
    i.HRTIM_TimingUnitBase_Config            0x08000e4a   Section        0  stm32f30x_hrtim.o(i.HRTIM_TimingUnitBase_Config)
    HRTIM_TimingUnitBase_Config              0x08000e4b   Thumb Code   124  stm32f30x_hrtim.o(i.HRTIM_TimingUnitBase_Config)
    i.HRTIM_TimingUnitWaveform_Config        0x08000ec6   Section        0  stm32f30x_hrtim.o(i.HRTIM_TimingUnitWaveform_Config)
    HRTIM_TimingUnitWaveform_Config          0x08000ec7   Thumb Code   182  stm32f30x_hrtim.o(i.HRTIM_TimingUnitWaveform_Config)
    i.HRTIM_WaveformCounterStart             0x08000f7c   Section        0  stm32f30x_hrtim.o(i.HRTIM_WaveformCounterStart)
    i.HRTIM_WaveformOutputConfig             0x08000f84   Section        0  stm32f30x_hrtim.o(i.HRTIM_WaveformOutputConfig)
    i.HRTIM_WaveformOutputStart              0x08000fa0   Section        0  stm32f30x_hrtim.o(i.HRTIM_WaveformOutputStart)
    i.HRTIM_WaveformTimerConfig              0x08000fa8   Section        0  stm32f30x_hrtim.o(i.HRTIM_WaveformTimerConfig)
    i.HRTIM_Waveform_Init                    0x0800103a   Section        0  stm32f30x_hrtim.o(i.HRTIM_Waveform_Init)
    i.HardFault_Handler                      0x08001074   Section        0  stm32f3xx_it.o(i.HardFault_Handler)
    i.IIC_Start                              0x08001078   Section        0  oled.o(i.IIC_Start)
    i.IIC_Stop                               0x080010a8   Section        0  oled.o(i.IIC_Stop)
    i.IIC_Wait_Ack                           0x080010d0   Section        0  oled.o(i.IIC_Wait_Ack)
    i.KEY_Init                               0x080010ec   Section        0  key.o(i.KEY_Init)
    i.KEY_Scan                               0x08001150   Section        0  key.o(i.KEY_Scan)
    i.LED_Init                               0x080011b0   Section        0  dr_led.o(i.LED_Init)
    i.MemManage_Handler                      0x0800122c   Section        0  stm32f3xx_it.o(i.MemManage_Handler)
    i.NMI_Handler                            0x08001230   Section        0  stm32f3xx_it.o(i.NMI_Handler)
    i.NVIC_Init                              0x08001234   Section        0  stm32f30x_misc.o(i.NVIC_Init)
    i.OLED_Clear                             0x080012a4   Section        0  oled.o(i.OLED_Clear)
    i.OLED_Init                              0x080012e4   Section        0  oled.o(i.OLED_Init)
    i.OLED_Set_Pos                           0x080013fc   Section        0  oled.o(i.OLED_Set_Pos)
    i.OLED_ShowChar                          0x08001424   Section        0  oled.o(i.OLED_ShowChar)
    i.OLED_ShowNum                           0x080014c8   Section        0  oled.o(i.OLED_ShowNum)
    i.OLED_ShowNum_0                         0x08001554   Section        0  oled.o(i.OLED_ShowNum_0)
    i.OLED_ShowNumf                          0x080015dc   Section        0  oled.o(i.OLED_ShowNumf)
    i.OLED_WR_Byte                           0x080016c8   Section        0  oled.o(i.OLED_WR_Byte)
    i.PWM_ClearITPendingBit                  0x080016e0   Section        0  my_board.o(i.PWM_ClearITPendingBit)
    i.PendSV_Handler                         0x080016f4   Section        0  stm32f3xx_it.o(i.PendSV_Handler)
    i.RCC_ADCCLKConfig                       0x080016f8   Section        0  stm32f30x_rcc.o(i.RCC_ADCCLKConfig)
    i.RCC_AHBPeriphClockCmd                  0x08001728   Section        0  stm32f30x_rcc.o(i.RCC_AHBPeriphClockCmd)
    i.RCC_AHBPeriphResetCmd                  0x08001748   Section        0  stm32f30x_rcc.o(i.RCC_AHBPeriphResetCmd)
    i.RCC_APB2PeriphClockCmd                 0x08001768   Section        0  stm32f30x_rcc.o(i.RCC_APB2PeriphClockCmd)
    i.RCC_HRTIM1CLKConfig                    0x08001788   Section        0  stm32f30x_rcc.o(i.RCC_HRTIM1CLKConfig)
    i.SVC_Handler                            0x080017a4   Section        0  stm32f3xx_it.o(i.SVC_Handler)
    i.SetSysClock                            0x080017a8   Section        0  system_stm32f30x.o(i.SetSysClock)
    SetSysClock                              0x080017a9   Thumb Code   188  system_stm32f30x.o(i.SetSysClock)
    i.SysTick_Handler                        0x0800186c   Section        0  stm32f3xx_it.o(i.SysTick_Handler)
    i.SystemInit                             0x08001874   Section        0  system_stm32f30x.o(i.SystemInit)
    i.TimingDelay_Decrement                  0x080018f8   Section        0  system_stm32f30x.o(i.TimingDelay_Decrement)
    i.UsageFault_Handler                     0x08001910   Section        0  stm32f3xx_it.o(i.UsageFault_Handler)
    i.Write_IIC_Byte                         0x08001914   Section        0  oled.o(i.Write_IIC_Byte)
    i.Write_IIC_Command                      0x08001970   Section        0  oled.o(i.Write_IIC_Command)
    i.Write_IIC_Data                         0x0800199c   Section        0  oled.o(i.Write_IIC_Data)
    i.__scatterload_copy                     0x080019c8   Section       14  handlers.o(i.__scatterload_copy)
    i.__scatterload_null                     0x080019d6   Section        2  handlers.o(i.__scatterload_null)
    i.__scatterload_zeroinit                 0x080019d8   Section       14  handlers.o(i.__scatterload_zeroinit)
    i.delay_ms                               0x080019e8   Section        0  system_stm32f30x.o(i.delay_ms)
    i.get_middle_num_adc                     0x08001a00   Section        0  my_board.o(i.get_middle_num_adc)
    i.main                                   0x08001a2e   Section        0  my_board.o(i.main)
    i.main_circle_func                       0x08001a3c   Section        0  main.o(i.main_circle_func)
    i.my_adc_init                            0x08001ae0   Section        0  my_board.o(i.my_adc_init)
    i.my_board_init                          0x08001ed4   Section        0  main.o(i.my_board_init)
    i.my_pwm_init                            0x08001efc   Section        0  my_board.o(i.my_pwm_init)
    i.my_pwm_update                          0x08002650   Section        0  my_board.o(i.my_pwm_update)
    i.my_system_config                       0x080026dc   Section        0  my_board.o(i.my_system_config)
    i.oled_pow                               0x0800275c   Section        0  oled.o(i.oled_pow)
    .constdata                               0x08002772   Section     2072  oled.o(.constdata)
    .data                                    0x20000000   Section       72  main.o(.data)
    .data                                    0x20000048   Section       25  system_stm32f30x.o(.data)
    TimingDelay                              0x2000005c   Data           4  system_stm32f30x.o(.data)
    .data                                    0x20000064   Section        8  my_board.o(.data)
    .bss                                     0x2000006c   Section       80  my_board.o(.bss)
    STACK                                    0x200000c0   Section     4096  startup_stm32f334x8.o(STACK)

    Global Symbols

    Symbol Name                              Value     Ov Type        Size  Object(Section)

    BuildAttributes$$THM_ISAv4$E$P$D$K$B$S$7EM$VFPi3$EXTD16$VFPS$VFMA$PE$A:L22UL41UL21$X:L11$S22US41US21$IEEE1$IW$USESV6$~STKCKD$USESV7$~SHL$OTIME$ROPI$EBA8$MICROLIB$REQ8$PRES8$EABIv2 0x00000000   Number         0  anon$$obj.o ABSOLUTE
    __ARM_use_no_argv                        0x00000000   Number         0  my_board.o ABSOLUTE
    __arm_fini_                               - Undefined Weak Reference
    __cpp_initialize__aeabi_                  - Undefined Weak Reference
    __cxa_finalize                            - Undefined Weak Reference
    __decompress                              - Undefined Weak Reference
    _clock_init                               - Undefined Weak Reference
    _microlib_exit                            - Undefined Weak Reference
    __Vectors_Size                           0x00000188   Number         0  startup_stm32f334x8.o ABSOLUTE
    __Vectors                                0x08000000   Data           4  startup_stm32f334x8.o(RESET)
    __Vectors_End                            0x08000188   Data           0  startup_stm32f334x8.o(RESET)
    __main                                   0x08000189   Thumb Code     0  entry.o(.ARM.Collect$$$$00000000)
    _main_stk                                0x08000189   Thumb Code     0  entry2.o(.ARM.Collect$$$$00000001)
    _main_scatterload                        0x0800018d   Thumb Code     0  entry5.o(.ARM.Collect$$$$00000004)
    __main_after_scatterload                 0x08000191   Thumb Code     0  entry5.o(.ARM.Collect$$$$00000004)
    _main_clock                              0x08000191   Thumb Code     0  entry7b.o(.ARM.Collect$$$$00000008)
    _main_cpp_init                           0x08000191   Thumb Code     0  entry8b.o(.ARM.Collect$$$$0000000A)
    _main_init                               0x08000191   Thumb Code     0  entry9a.o(.ARM.Collect$$$$0000000B)
    __rt_lib_shutdown_fini                   0x08000199   Thumb Code     0  entry12b.o(.ARM.Collect$$$$0000000E)
    __rt_final_cpp                           0x0800019d   Thumb Code     0  entry10a.o(.ARM.Collect$$$$0000000F)
    __rt_final_exit                          0x0800019d   Thumb Code     0  entry11a.o(.ARM.Collect$$$$00000011)
    Reset_Handler                            0x080001a1   Thumb Code     8  startup_stm32f334x8.o(.text)
    ADC1_2_IRQHandler                        0x080001bb   Thumb Code     0  startup_stm32f334x8.o(.text)
    CAN1_RX0_IRQHandler                      0x080001bb   Thumb Code     0  startup_stm32f334x8.o(.text)
    CAN1_RX1_IRQHandler                      0x080001bb   Thumb Code     0  startup_stm32f334x8.o(.text)
    CAN1_SCE_IRQHandler                      0x080001bb   Thumb Code     0  startup_stm32f334x8.o(.text)
    CAN1_TX_IRQHandler                       0x080001bb   Thumb Code     0  startup_stm32f334x8.o(.text)
    COMP2_IRQHandler                         0x080001bb   Thumb Code     0  startup_stm32f334x8.o(.text)
    COMP4_6_IRQHandler                       0x080001bb   Thumb Code     0  startup_stm32f334x8.o(.text)
    DMA1_Channel1_IRQHandler                 0x080001bb   Thumb Code     0  startup_stm32f334x8.o(.text)
    DMA1_Channel2_IRQHandler                 0x080001bb   Thumb Code     0  startup_stm32f334x8.o(.text)
    DMA1_Channel3_IRQHandler                 0x080001bb   Thumb Code     0  startup_stm32f334x8.o(.text)
    DMA1_Channel4_IRQHandler                 0x080001bb   Thumb Code     0  startup_stm32f334x8.o(.text)
    DMA1_Channel5_IRQHandler                 0x080001bb   Thumb Code     0  startup_stm32f334x8.o(.text)
    DMA1_Channel6_IRQHandler                 0x080001bb   Thumb Code     0  startup_stm32f334x8.o(.text)
    DMA1_Channel7_IRQHandler                 0x080001bb   Thumb Code     0  startup_stm32f334x8.o(.text)
    EXTI15_10_IRQHandler                     0x080001bb   Thumb Code     0  startup_stm32f334x8.o(.text)
    EXTI1_IRQHandler                         0x080001bb   Thumb Code     0  startup_stm32f334x8.o(.text)
    EXTI2_TS_IRQHandler                      0x080001bb   Thumb Code     0  startup_stm32f334x8.o(.text)
    EXTI3_IRQHandler                         0x080001bb   Thumb Code     0  startup_stm32f334x8.o(.text)
    EXTI4_IRQHandler                         0x080001bb   Thumb Code     0  startup_stm32f334x8.o(.text)
    EXTI9_5_IRQHandler                       0x080001bb   Thumb Code     0  startup_stm32f334x8.o(.text)
    FLASH_IRQHandler                         0x080001bb   Thumb Code     0  startup_stm32f334x8.o(.text)
    FPU_IRQHandler                           0x080001bb   Thumb Code     0  startup_stm32f334x8.o(.text)
    HRTIM1_FLT_IRQHandler                    0x080001bb   Thumb Code     0  startup_stm32f334x8.o(.text)
    HRTIM1_TIMA_IRQHandler                   0x080001bb   Thumb Code     0  startup_stm32f334x8.o(.text)
    HRTIM1_TIMB_IRQHandler                   0x080001bb   Thumb Code     0  startup_stm32f334x8.o(.text)
    HRTIM1_TIMC_IRQHandler                   0x080001bb   Thumb Code     0  startup_stm32f334x8.o(.text)
    HRTIM1_TIMD_IRQHandler                   0x080001bb   Thumb Code     0  startup_stm32f334x8.o(.text)
    HRTIM1_TIME_IRQHandler                   0x080001bb   Thumb Code     0  startup_stm32f334x8.o(.text)
    I2C1_ER_IRQHandler                       0x080001bb   Thumb Code     0  startup_stm32f334x8.o(.text)
    I2C1_EV_IRQHandler                       0x080001bb   Thumb Code     0  startup_stm32f334x8.o(.text)
    PVD_IRQHandler                           0x080001bb   Thumb Code     0  startup_stm32f334x8.o(.text)
    RCC_IRQHandler                           0x080001bb   Thumb Code     0  startup_stm32f334x8.o(.text)
    RTC_Alarm_IRQHandler                     0x080001bb   Thumb Code     0  startup_stm32f334x8.o(.text)
    RTC_WKUP_IRQHandler                      0x080001bb   Thumb Code     0  startup_stm32f334x8.o(.text)
    SPI1_IRQHandler                          0x080001bb   Thumb Code     0  startup_stm32f334x8.o(.text)
    TAMPER_STAMP_IRQHandler                  0x080001bb   Thumb Code     0  startup_stm32f334x8.o(.text)
    TIM1_BRK_TIM15_IRQHandler                0x080001bb   Thumb Code     0  startup_stm32f334x8.o(.text)
    TIM1_CC_IRQHandler                       0x080001bb   Thumb Code     0  startup_stm32f334x8.o(.text)
    TIM1_TRG_COM_TIM17_IRQHandler            0x080001bb   Thumb Code     0  startup_stm32f334x8.o(.text)
    TIM1_UP_TIM16_IRQHandler                 0x080001bb   Thumb Code     0  startup_stm32f334x8.o(.text)
    TIM2_IRQHandler                          0x080001bb   Thumb Code     0  startup_stm32f334x8.o(.text)
    TIM3_IRQHandler                          0x080001bb   Thumb Code     0  startup_stm32f334x8.o(.text)
    TIM6_DAC1_IRQHandler                     0x080001bb   Thumb Code     0  startup_stm32f334x8.o(.text)
    TIM7_DAC2_IRQHandler                     0x080001bb   Thumb Code     0  startup_stm32f334x8.o(.text)
    USART1_IRQHandler                        0x080001bb   Thumb Code     0  startup_stm32f334x8.o(.text)
    USART2_IRQHandler                        0x080001bb   Thumb Code     0  startup_stm32f334x8.o(.text)
    USART3_IRQHandler                        0x080001bb   Thumb Code     0  startup_stm32f334x8.o(.text)
    WWDG_IRQHandler                          0x080001bb   Thumb Code     0  startup_stm32f334x8.o(.text)
    __aeabi_memset                           0x080001c5   Thumb Code    14  memseta.o(.text)
    __aeabi_memset4                          0x080001c5   Thumb Code     0  memseta.o(.text)
    __aeabi_memset8                          0x080001c5   Thumb Code     0  memseta.o(.text)
    __aeabi_memclr                           0x080001d3   Thumb Code     4  memseta.o(.text)
    __aeabi_memclr4                          0x080001d3   Thumb Code     0  memseta.o(.text)
    __aeabi_memclr8                          0x080001d3   Thumb Code     0  memseta.o(.text)
    _memset$wrapper                          0x080001d7   Thumb Code    18  memseta.o(.text)
    __aeabi_dmul                             0x080001e9   Thumb Code   228  dmul.o(.text)
    __aeabi_ui2d                             0x080002cd   Thumb Code    26  dfltui.o(.text)
    __aeabi_d2uiz                            0x080002e7   Thumb Code    50  dfixui.o(.text)
    __aeabi_llsl                             0x08000319   Thumb Code    30  llshl.o(.text)
    _ll_shift_l                              0x08000319   Thumb Code     0  llshl.o(.text)
    __aeabi_llsr                             0x08000337   Thumb Code    32  llushr.o(.text)
    _ll_ushift_r                             0x08000337   Thumb Code     0  llushr.o(.text)
    __I$use$fp                               0x08000357   Thumb Code     0  iusefp.o(.text)
    _double_round                            0x08000357   Thumb Code    30  depilogue.o(.text)
    _double_epilogue                         0x08000375   Thumb Code   156  depilogue.o(.text)
    __scatterload                            0x08000411   Thumb Code    28  init.o(.text)
    __scatterload_rt2                        0x08000411   Thumb Code     0  init.o(.text)
    ADC_Cmd                                  0x08000435   Thumb Code    22  stm32f30x_adc.o(i.ADC_Cmd)
    ADC_CommonInit                           0x0800044d   Thumb Code    82  stm32f30x_adc.o(i.ADC_CommonInit)
    ADC_DMACmd                               0x080004b1   Thumb Code    22  stm32f30x_adc.o(i.ADC_DMACmd)
    ADC_DMAConfig                            0x080004c7   Thumb Code    16  stm32f30x_adc.o(i.ADC_DMAConfig)
    ADC_DeInit                               0x080004d9   Thumb Code    68  stm32f30x_adc.o(i.ADC_DeInit)
    ADC_GetCalibrationStatus                 0x08000529   Thumb Code    20  stm32f30x_adc.o(i.ADC_GetCalibrationStatus)
    ADC_GetFlagStatus                        0x0800053d   Thumb Code    18  stm32f30x_adc.o(i.ADC_GetFlagStatus)
    ADC_Init                                 0x08000551   Thumb Code    58  stm32f30x_adc.o(i.ADC_Init)
    ADC_RegularChannelConfig                 0x08000591   Thumb Code   250  stm32f30x_adc.o(i.ADC_RegularChannelConfig)
    ADC_SelectCalibrationMode                0x0800068b   Thumb Code    16  stm32f30x_adc.o(i.ADC_SelectCalibrationMode)
    ADC_StartCalibration                     0x0800069b   Thumb Code    10  stm32f30x_adc.o(i.ADC_StartCalibration)
    ADC_StartConversion                      0x080006a5   Thumb Code    10  stm32f30x_adc.o(i.ADC_StartConversion)
    ADC_VoltageRegulatorCmd                  0x080006af   Thumb Code    30  stm32f30x_adc.o(i.ADC_VoltageRegulatorCmd)
    BusFault_Handler                         0x080006cd   Thumb Code     4  stm32f3xx_it.o(i.BusFault_Handler)
    DMA_Cmd                                  0x080006d1   Thumb Code    24  stm32f30x_dma.o(i.DMA_Cmd)
    DMA_DeInit                               0x080006e9   Thumb Code   324  stm32f30x_dma.o(i.DMA_DeInit)
    DMA_Init                                 0x08000835   Thumb Code    60  stm32f30x_dma.o(i.DMA_Init)
    DMA_StructInit                           0x08000871   Thumb Code    26  stm32f30x_dma.o(i.DMA_StructInit)
    DebugMon_Handler                         0x0800088b   Thumb Code     2  stm32f3xx_it.o(i.DebugMon_Handler)
    EXTI0_IRQHandler                         0x0800088d   Thumb Code     2  stm32f3xx_it.o(i.EXTI0_IRQHandler)
    GPIO_Init                                0x0800088f   Thumb Code   150  stm32f30x_gpio.o(i.GPIO_Init)
    GPIO_PinAFConfig                         0x08000925   Thumb Code    70  stm32f30x_gpio.o(i.GPIO_PinAFConfig)
    GPIO_ReadInputDataBit                    0x0800096b   Thumb Code    18  stm32f30x_gpio.o(i.GPIO_ReadInputDataBit)
    GPIO_ResetBits                           0x0800097d   Thumb Code     4  stm32f30x_gpio.o(i.GPIO_ResetBits)
    GPIO_SetBits                             0x08000981   Thumb Code     4  stm32f30x_gpio.o(i.GPIO_SetBits)
    HRTIM1_Master_IRQHandler                 0x08000985   Thumb Code   314  main.o(i.HRTIM1_Master_IRQHandler)
    HRTIM_ADCTriggerConfig                   0x08000af1   Thumb Code   114  stm32f30x_hrtim.o(i.HRTIM_ADCTriggerConfig)
    HRTIM_ClearITPendingBit                  0x08000b63   Thumb Code    62  stm32f30x_hrtim.o(i.HRTIM_ClearITPendingBit)
    HRTIM_DLLCalibrationStart                0x08000ba1   Thumb Code    40  stm32f30x_hrtim.o(i.HRTIM_DLLCalibrationStart)
    HRTIM_DeadTimeConfig                     0x08000bc9   Thumb Code    70  stm32f30x_hrtim.o(i.HRTIM_DeadTimeConfig)
    HRTIM_GetCommonFlagStatus                0x08000c15   Thumb Code    22  stm32f30x_hrtim.o(i.HRTIM_GetCommonFlagStatus)
    HRTIM_ITConfig                           0x08000c2b   Thumb Code    98  stm32f30x_hrtim.o(i.HRTIM_ITConfig)
    HRTIM_MasterSetCompare                   0x08000cb7   Thumb Code    40  stm32f30x_hrtim.o(i.HRTIM_MasterSetCompare)
    HRTIM_SlaveSetCompare                    0x08000e01   Thumb Code    74  stm32f30x_hrtim.o(i.HRTIM_SlaveSetCompare)
    HRTIM_WaveformCounterStart               0x08000f7d   Thumb Code     8  stm32f30x_hrtim.o(i.HRTIM_WaveformCounterStart)
    HRTIM_WaveformOutputConfig               0x08000f85   Thumb Code    28  stm32f30x_hrtim.o(i.HRTIM_WaveformOutputConfig)
    HRTIM_WaveformOutputStart                0x08000fa1   Thumb Code     8  stm32f30x_hrtim.o(i.HRTIM_WaveformOutputStart)
    HRTIM_WaveformTimerConfig                0x08000fa9   Thumb Code   146  stm32f30x_hrtim.o(i.HRTIM_WaveformTimerConfig)
    HRTIM_Waveform_Init                      0x0800103b   Thumb Code    58  stm32f30x_hrtim.o(i.HRTIM_Waveform_Init)
    HardFault_Handler                        0x08001075   Thumb Code     4  stm32f3xx_it.o(i.HardFault_Handler)
    IIC_Start                                0x08001079   Thumb Code    44  oled.o(i.IIC_Start)
    IIC_Stop                                 0x080010a9   Thumb Code    34  oled.o(i.IIC_Stop)
    IIC_Wait_Ack                             0x080010d1   Thumb Code    24  oled.o(i.IIC_Wait_Ack)
    KEY_Init                                 0x080010ed   Thumb Code    94  key.o(i.KEY_Init)
    KEY_Scan                                 0x08001151   Thumb Code    90  key.o(i.KEY_Scan)
    LED_Init                                 0x080011b1   Thumb Code   118  dr_led.o(i.LED_Init)
    MemManage_Handler                        0x0800122d   Thumb Code     4  stm32f3xx_it.o(i.MemManage_Handler)
    NMI_Handler                              0x08001231   Thumb Code     2  stm32f3xx_it.o(i.NMI_Handler)
    NVIC_Init                                0x08001235   Thumb Code   100  stm32f30x_misc.o(i.NVIC_Init)
    OLED_Clear                               0x080012a5   Thumb Code    62  oled.o(i.OLED_Clear)
    OLED_Init                                0x080012e5   Thumb Code   276  oled.o(i.OLED_Init)
    OLED_Set_Pos                             0x080013fd   Thumb Code    40  oled.o(i.OLED_Set_Pos)
    OLED_ShowChar                            0x08001425   Thumb Code   154  oled.o(i.OLED_ShowChar)
    OLED_ShowNum                             0x080014c9   Thumb Code   140  oled.o(i.OLED_ShowNum)
    OLED_ShowNum_0                           0x08001555   Thumb Code   136  oled.o(i.OLED_ShowNum_0)
    OLED_ShowNumf                            0x080015dd   Thumb Code   236  oled.o(i.OLED_ShowNumf)
    OLED_WR_Byte                             0x080016c9   Thumb Code    24  oled.o(i.OLED_WR_Byte)
    PWM_ClearITPendingBit                    0x080016e1   Thumb Code    14  my_board.o(i.PWM_ClearITPendingBit)
    PendSV_Handler                           0x080016f5   Thumb Code     2  stm32f3xx_it.o(i.PendSV_Handler)
    RCC_ADCCLKConfig                         0x080016f9   Thumb Code    44  stm32f30x_rcc.o(i.RCC_ADCCLKConfig)
    RCC_AHBPeriphClockCmd                    0x08001729   Thumb Code    26  stm32f30x_rcc.o(i.RCC_AHBPeriphClockCmd)
    RCC_AHBPeriphResetCmd                    0x08001749   Thumb Code    26  stm32f30x_rcc.o(i.RCC_AHBPeriphResetCmd)
    RCC_APB2PeriphClockCmd                   0x08001769   Thumb Code    26  stm32f30x_rcc.o(i.RCC_APB2PeriphClockCmd)
    RCC_HRTIM1CLKConfig                      0x08001789   Thumb Code    22  stm32f30x_rcc.o(i.RCC_HRTIM1CLKConfig)
    SVC_Handler                              0x080017a5   Thumb Code     2  stm32f3xx_it.o(i.SVC_Handler)
    SysTick_Handler                          0x0800186d   Thumb Code     8  stm32f3xx_it.o(i.SysTick_Handler)
    SystemInit                               0x08001875   Thumb Code   112  system_stm32f30x.o(i.SystemInit)
    TimingDelay_Decrement                    0x080018f9   Thumb Code    18  system_stm32f30x.o(i.TimingDelay_Decrement)
    UsageFault_Handler                       0x08001911   Thumb Code     4  stm32f3xx_it.o(i.UsageFault_Handler)
    Write_IIC_Byte                           0x08001915   Thumb Code    88  oled.o(i.Write_IIC_Byte)
    Write_IIC_Command                        0x08001971   Thumb Code    44  oled.o(i.Write_IIC_Command)
    Write_IIC_Data                           0x0800199d   Thumb Code    44  oled.o(i.Write_IIC_Data)
    __scatterload_copy                       0x080019c9   Thumb Code    14  handlers.o(i.__scatterload_copy)
    __scatterload_null                       0x080019d7   Thumb Code     2  handlers.o(i.__scatterload_null)
    __scatterload_zeroinit                   0x080019d9   Thumb Code    14  handlers.o(i.__scatterload_zeroinit)
    delay_ms                                 0x080019e9   Thumb Code    20  system_stm32f30x.o(i.delay_ms)
    get_middle_num_adc                       0x08001a01   Thumb Code    46  my_board.o(i.get_middle_num_adc)
    main                                     0x08001a2f   Thumb Code    12  my_board.o(i.main)
    main_circle_func                         0x08001a3d   Thumb Code   154  main.o(i.main_circle_func)
    my_adc_init                              0x08001ae1   Thumb Code   990  my_board.o(i.my_adc_init)
    my_board_init                            0x08001ed5   Thumb Code    40  main.o(i.my_board_init)
    my_pwm_init                              0x08001efd   Thumb Code  1858  my_board.o(i.my_pwm_init)
    my_pwm_update                            0x08002651   Thumb Code   130  my_board.o(i.my_pwm_update)
    my_system_config                         0x080026dd   Thumb Code   114  my_board.o(i.my_system_config)
    oled_pow                                 0x0800275d   Thumb Code    22  oled.o(i.oled_pow)
    F6x8                                     0x08002772   Data         552  oled.o(.constdata)
    F8X16                                    0x0800299a   Data        1520  oled.o(.constdata)
    Region$$Table$$Base                      0x08002f8c   Number         0  anon$$obj.o(Region$$Table)
    Region$$Table$$Limit                     0x08002fac   Number         0  anon$$obj.o(Region$$Table)
    K1                                       0x20000000   Data           4  main.o(.data)
    K2                                       0x20000004   Data           4  main.o(.data)
    A1                                       0x20000008   Data           4  main.o(.data)
    K3                                       0x2000000c   Data           4  main.o(.data)
    A2                                       0x20000010   Data           4  main.o(.data)
    cnt                                      0x20000014   Data           4  main.o(.data)
    cnt_all                                  0x20000018   Data           4  main.o(.data)
    KEY_NUM                                  0x2000001c   Data           1  main.o(.data)
    KEY_MODE                                 0x2000001d   Data           1  main.o(.data)
    ua                                       0x20000020   Data           4  main.o(.data)
    UB                                       0x20000024   Data           4  main.o(.data)
    UC                                       0x20000028   Data           4  main.o(.data)
    UA                                       0x2000002c   Data           4  main.o(.data)
    ub                                       0x20000030   Data           4  main.o(.data)
    uc                                       0x20000034   Data           4  main.o(.data)
    UBUS                                     0x20000038   Data           4  main.o(.data)
    ia                                       0x2000003c   Data           4  main.o(.data)
    ib                                       0x20000040   Data           4  main.o(.data)
    ic                                       0x20000044   Data           4  main.o(.data)
    SystemCoreClock                          0x20000048   Data           4  system_stm32f30x.o(.data)
    AHBPrescTable                            0x2000004c   Data          16  system_stm32f30x.o(.data)
    BlinkSpeed                               0x20000060   Data           1  system_stm32f30x.o(.data)
    dac_num                                  0x20000064   Data           2  my_board.o(.data)
    PWM_PER                                  0x20000068   Data           4  my_board.o(.data)
    adc_sample_buf                           0x2000006c   Data          20  my_board.o(.bss)
    adc_sample_buff                          0x20000080   Data          60  my_board.o(.bss)
    __initial_sp                             0x200010c0   Data           0  startup_stm32f334x8.o(STACK)



==============================================================================

Memory Map of the image

  Image Entry point : 0x08000189

  Load Region LR_IROM1 (Base: 0x08000000, Size: 0x00003018, Max: 0x00008000, ABSOLUTE)

    Execution Region ER_IROM1 (Exec base: 0x08000000, Load base: 0x08000000, Size: 0x00002fac, Max: 0x00008000, ABSOLUTE)

    Exec Addr    Load Addr    Size         Type   Attr      Idx    E Section Name        Object

    0x08000000   0x08000000   0x00000188   Data   RO         5165    RESET               startup_stm32f334x8.o
    0x08000188   0x08000188   0x00000000   Code   RO         5337  * .ARM.Collect$$$$00000000  mc_w.l(entry.o)
    0x08000188   0x08000188   0x00000004   Code   RO         5360    .ARM.Collect$$$$00000001  mc_w.l(entry2.o)
    0x0800018c   0x0800018c   0x00000004   Code   RO         5363    .ARM.Collect$$$$00000004  mc_w.l(entry5.o)
    0x08000190   0x08000190   0x00000000   Code   RO         5365    .ARM.Collect$$$$00000008  mc_w.l(entry7b.o)
    0x08000190   0x08000190   0x00000000   Code   RO         5367    .ARM.Collect$$$$0000000A  mc_w.l(entry8b.o)
    0x08000190   0x08000190   0x00000008   Code   RO         5368    .ARM.Collect$$$$0000000B  mc_w.l(entry9a.o)
    0x08000198   0x08000198   0x00000004   Code   RO         5375    .ARM.Collect$$$$0000000E  mc_w.l(entry12b.o)
    0x0800019c   0x0800019c   0x00000000   Code   RO         5370    .ARM.Collect$$$$0000000F  mc_w.l(entry10a.o)
    0x0800019c   0x0800019c   0x00000000   Code   RO         5372    .ARM.Collect$$$$00000011  mc_w.l(entry11a.o)
    0x0800019c   0x0800019c   0x00000004   Code   RO         5361    .ARM.Collect$$$$00002712  mc_w.l(entry2.o)
    0x080001a0   0x080001a0   0x00000024   Code   RO         5166    .text               startup_stm32f334x8.o
    0x080001c4   0x080001c4   0x00000024   Code   RO         5340    .text               mc_w.l(memseta.o)
    0x080001e8   0x080001e8   0x000000e4   Code   RO         5344    .text               mf_w.l(dmul.o)
    0x080002cc   0x080002cc   0x0000001a   Code   RO         5350    .text               mf_w.l(dfltui.o)
    0x080002e6   0x080002e6   0x00000032   Code   RO         5352    .text               mf_w.l(dfixui.o)
    0x08000318   0x08000318   0x0000001e   Code   RO         5376    .text               mc_w.l(llshl.o)
    0x08000336   0x08000336   0x00000020   Code   RO         5378    .text               mc_w.l(llushr.o)
    0x08000356   0x08000356   0x00000000   Code   RO         5382    .text               mc_w.l(iusefp.o)
    0x08000356   0x08000356   0x000000ba   Code   RO         5383    .text               mf_w.l(depilogue.o)
    0x08000410   0x08000410   0x00000024   Code   RO         5385    .text               mc_w.l(init.o)
    0x08000434   0x08000434   0x00000016   Code   RO          923    i.ADC_Cmd           stm32f30x_adc.o
    0x0800044a   0x0800044a   0x00000002   PAD
    0x0800044c   0x0800044c   0x00000064   Code   RO          924    i.ADC_CommonInit    stm32f30x_adc.o
    0x080004b0   0x080004b0   0x00000016   Code   RO          926    i.ADC_DMACmd        stm32f30x_adc.o
    0x080004c6   0x080004c6   0x00000010   Code   RO          927    i.ADC_DMAConfig     stm32f30x_adc.o
    0x080004d6   0x080004d6   0x00000002   PAD
    0x080004d8   0x080004d8   0x00000050   Code   RO          928    i.ADC_DeInit        stm32f30x_adc.o
    0x08000528   0x08000528   0x00000014   Code   RO          933    i.ADC_GetCalibrationStatus  stm32f30x_adc.o
    0x0800053c   0x0800053c   0x00000012   Code   RO          939    i.ADC_GetFlagStatus  stm32f30x_adc.o
    0x0800054e   0x0800054e   0x00000002   PAD
    0x08000550   0x08000550   0x00000040   Code   RO          945    i.ADC_Init          stm32f30x_adc.o
    0x08000590   0x08000590   0x000000fa   Code   RO          950    i.ADC_RegularChannelConfig  stm32f30x_adc.o
    0x0800068a   0x0800068a   0x00000010   Code   RO          952    i.ADC_SelectCalibrationMode  stm32f30x_adc.o
    0x0800069a   0x0800069a   0x0000000a   Code   RO          960    i.ADC_StartCalibration  stm32f30x_adc.o
    0x080006a4   0x080006a4   0x0000000a   Code   RO          961    i.ADC_StartConversion  stm32f30x_adc.o
    0x080006ae   0x080006ae   0x0000001e   Code   RO          968    i.ADC_VoltageRegulatorCmd  stm32f30x_adc.o
    0x080006cc   0x080006cc   0x00000004   Code   RO          188    i.BusFault_Handler  stm32f3xx_it.o
    0x080006d0   0x080006d0   0x00000018   Code   RO         1784    i.DMA_Cmd           stm32f30x_dma.o
    0x080006e8   0x080006e8   0x0000014c   Code   RO         1785    i.DMA_DeInit        stm32f30x_dma.o
    0x08000834   0x08000834   0x0000003c   Code   RO         1790    i.DMA_Init          stm32f30x_dma.o
    0x08000870   0x08000870   0x0000001a   Code   RO         1792    i.DMA_StructInit    stm32f30x_dma.o
    0x0800088a   0x0800088a   0x00000002   Code   RO          189    i.DebugMon_Handler  stm32f3xx_it.o
    0x0800088c   0x0800088c   0x00000002   Code   RO          190    i.EXTI0_IRQHandler  stm32f3xx_it.o
    0x0800088e   0x0800088e   0x00000096   Code   RO         2113    i.GPIO_Init         stm32f30x_gpio.o
    0x08000924   0x08000924   0x00000046   Code   RO         2114    i.GPIO_PinAFConfig  stm32f30x_gpio.o
    0x0800096a   0x0800096a   0x00000012   Code   RO         2117    i.GPIO_ReadInputDataBit  stm32f30x_gpio.o
    0x0800097c   0x0800097c   0x00000004   Code   RO         2120    i.GPIO_ResetBits    stm32f30x_gpio.o
    0x08000980   0x08000980   0x00000004   Code   RO         2121    i.GPIO_SetBits      stm32f30x_gpio.o
    0x08000984   0x08000984   0x0000016c   Code   RO            3    i.HRTIM1_Master_IRQHandler  main.o
    0x08000af0   0x08000af0   0x00000072   Code   RO         2204    i.HRTIM_ADCTriggerConfig  stm32f30x_hrtim.o
    0x08000b62   0x08000b62   0x0000003e   Code   RO         2213    i.HRTIM_ClearITPendingBit  stm32f30x_hrtim.o
    0x08000ba0   0x08000ba0   0x00000028   Code   RO         2215    i.HRTIM_DLLCalibrationStart  stm32f30x_hrtim.o
    0x08000bc8   0x08000bc8   0x0000004c   Code   RO         2218    i.HRTIM_DeadTimeConfig  stm32f30x_hrtim.o
    0x08000c14   0x08000c14   0x00000016   Code   RO         2227    i.HRTIM_GetCommonFlagStatus  stm32f30x_hrtim.o
    0x08000c2a   0x08000c2a   0x00000062   Code   RO         2235    i.HRTIM_ITConfig    stm32f30x_hrtim.o
    0x08000c8c   0x08000c8c   0x0000002a   Code   RO         2236    i.HRTIM_MasterBase_Config  stm32f30x_hrtim.o
    0x08000cb6   0x08000cb6   0x00000028   Code   RO         2237    i.HRTIM_MasterSetCompare  stm32f30x_hrtim.o
    0x08000cde   0x08000cde   0x00000058   Code   RO         2238    i.HRTIM_MasterWaveform_Config  stm32f30x_hrtim.o
    0x08000d36   0x08000d36   0x000000ca   Code   RO         2239    i.HRTIM_OutputConfig  stm32f30x_hrtim.o
    0x08000e00   0x08000e00   0x0000004a   Code   RO         2259    i.HRTIM_SlaveSetCompare  stm32f30x_hrtim.o
    0x08000e4a   0x08000e4a   0x0000007c   Code   RO         2266    i.HRTIM_TimingUnitBase_Config  stm32f30x_hrtim.o
    0x08000ec6   0x08000ec6   0x000000b6   Code   RO         2267    i.HRTIM_TimingUnitWaveform_Config  stm32f30x_hrtim.o
    0x08000f7c   0x08000f7c   0x00000008   Code   RO         2270    i.HRTIM_WaveformCounterStart  stm32f30x_hrtim.o
    0x08000f84   0x08000f84   0x0000001c   Code   RO         2274    i.HRTIM_WaveformOutputConfig  stm32f30x_hrtim.o
    0x08000fa0   0x08000fa0   0x00000008   Code   RO         2275    i.HRTIM_WaveformOutputStart  stm32f30x_hrtim.o
    0x08000fa8   0x08000fa8   0x00000092   Code   RO         2278    i.HRTIM_WaveformTimerConfig  stm32f30x_hrtim.o
    0x0800103a   0x0800103a   0x0000003a   Code   RO         2279    i.HRTIM_Waveform_Init  stm32f30x_hrtim.o
    0x08001074   0x08001074   0x00000004   Code   RO          191    i.HardFault_Handler  stm32f3xx_it.o
    0x08001078   0x08001078   0x00000030   Code   RO          645    i.IIC_Start         oled.o
    0x080010a8   0x080010a8   0x00000028   Code   RO          646    i.IIC_Stop          oled.o
    0x080010d0   0x080010d0   0x0000001c   Code   RO          647    i.IIC_Wait_Ack      oled.o
    0x080010ec   0x080010ec   0x00000064   Code   RO          881    i.KEY_Init          key.o
    0x08001150   0x08001150   0x00000060   Code   RO          882    i.KEY_Scan          key.o
    0x080011b0   0x080011b0   0x0000007c   Code   RO          803    i.LED_Init          dr_led.o
    0x0800122c   0x0800122c   0x00000004   Code   RO          192    i.MemManage_Handler  stm32f3xx_it.o
    0x08001230   0x08001230   0x00000002   Code   RO          193    i.NMI_Handler       stm32f3xx_it.o
    0x08001232   0x08001232   0x00000002   PAD
    0x08001234   0x08001234   0x00000070   Code   RO         2989    i.NVIC_Init         stm32f30x_misc.o
    0x080012a4   0x080012a4   0x0000003e   Code   RO          648    i.OLED_Clear        oled.o
    0x080012e2   0x080012e2   0x00000002   PAD
    0x080012e4   0x080012e4   0x00000118   Code   RO          652    i.OLED_Init         oled.o
    0x080013fc   0x080013fc   0x00000028   Code   RO          654    i.OLED_Set_Pos      oled.o
    0x08001424   0x08001424   0x000000a4   Code   RO          656    i.OLED_ShowChar     oled.o
    0x080014c8   0x080014c8   0x0000008c   Code   RO          657    i.OLED_ShowNum      oled.o
    0x08001554   0x08001554   0x00000088   Code   RO          658    i.OLED_ShowNum_0    oled.o
    0x080015dc   0x080015dc   0x000000ec   Code   RO          659    i.OLED_ShowNumf     oled.o
    0x080016c8   0x080016c8   0x00000018   Code   RO          661    i.OLED_WR_Byte      oled.o
    0x080016e0   0x080016e0   0x00000014   Code   RO          466    i.PWM_ClearITPendingBit  my_board.o
    0x080016f4   0x080016f4   0x00000002   Code   RO          194    i.PendSV_Handler    stm32f3xx_it.o
    0x080016f6   0x080016f6   0x00000002   PAD
    0x080016f8   0x080016f8   0x00000030   Code   RO         3211    i.RCC_ADCCLKConfig  stm32f30x_rcc.o
    0x08001728   0x08001728   0x00000020   Code   RO         3212    i.RCC_AHBPeriphClockCmd  stm32f30x_rcc.o
    0x08001748   0x08001748   0x00000020   Code   RO         3213    i.RCC_AHBPeriphResetCmd  stm32f30x_rcc.o
    0x08001768   0x08001768   0x00000020   Code   RO         3216    i.RCC_APB2PeriphClockCmd  stm32f30x_rcc.o
    0x08001788   0x08001788   0x0000001c   Code   RO         3229    i.RCC_HRTIM1CLKConfig  stm32f30x_rcc.o
    0x080017a4   0x080017a4   0x00000002   Code   RO          195    i.SVC_Handler       stm32f3xx_it.o
    0x080017a6   0x080017a6   0x00000002   PAD
    0x080017a8   0x080017a8   0x000000c4   Code   RO          358    i.SetSysClock       system_stm32f30x.o
    0x0800186c   0x0800186c   0x00000008   Code   RO          196    i.SysTick_Handler   stm32f3xx_it.o
    0x08001874   0x08001874   0x00000084   Code   RO          360    i.SystemInit        system_stm32f30x.o
    0x080018f8   0x080018f8   0x00000018   Code   RO          361    i.TimingDelay_Decrement  system_stm32f30x.o
    0x08001910   0x08001910   0x00000004   Code   RO          197    i.UsageFault_Handler  stm32f3xx_it.o
    0x08001914   0x08001914   0x0000005c   Code   RO          662    i.Write_IIC_Byte    oled.o
    0x08001970   0x08001970   0x0000002c   Code   RO          663    i.Write_IIC_Command  oled.o
    0x0800199c   0x0800199c   0x0000002c   Code   RO          664    i.Write_IIC_Data    oled.o
    0x080019c8   0x080019c8   0x0000000e   Code   RO         5389    i.__scatterload_copy  mc_w.l(handlers.o)
    0x080019d6   0x080019d6   0x00000002   Code   RO         5390    i.__scatterload_null  mc_w.l(handlers.o)
    0x080019d8   0x080019d8   0x0000000e   Code   RO         5391    i.__scatterload_zeroinit  mc_w.l(handlers.o)
    0x080019e6   0x080019e6   0x00000002   PAD
    0x080019e8   0x080019e8   0x00000018   Code   RO          362    i.delay_ms          system_stm32f30x.o
    0x08001a00   0x08001a00   0x0000002e   Code   RO          467    i.get_middle_num_adc  my_board.o
    0x08001a2e   0x08001a2e   0x0000000c   Code   RO          468    i.main              my_board.o
    0x08001a3a   0x08001a3a   0x00000002   PAD
    0x08001a3c   0x08001a3c   0x000000a4   Code   RO            4    i.main_circle_func  main.o
    0x08001ae0   0x08001ae0   0x000003f4   Code   RO          469    i.my_adc_init       my_board.o
    0x08001ed4   0x08001ed4   0x00000028   Code   RO            5    i.my_board_init     main.o
    0x08001efc   0x08001efc   0x00000754   Code   RO          470    i.my_pwm_init       my_board.o
    0x08002650   0x08002650   0x0000008c   Code   RO          520    i.my_pwm_update     my_board.o
    0x080026dc   0x080026dc   0x00000080   Code   RO          471    i.my_system_config  my_board.o
    0x0800275c   0x0800275c   0x00000016   Code   RO          666    i.oled_pow          oled.o
    0x08002772   0x08002772   0x00000818   Data   RO          667    .constdata          oled.o
    0x08002f8a   0x08002f8a   0x00000002   PAD
    0x08002f8c   0x08002f8c   0x00000020   Data   RO         5387    Region$$Table       anon$$obj.o


    Execution Region RW_IRAM1 (Exec base: 0x20000000, Load base: 0x08002fac, Size: 0x000010c0, Max: 0x00002800, ABSOLUTE)

    Exec Addr    Load Addr    Size         Type   Attr      Idx    E Section Name        Object

    0x20000000   0x08002fac   0x00000048   Data   RW            7    .data               main.o
    0x20000048   0x08002ff4   0x00000019   Data   RW          364    .data               system_stm32f30x.o
    0x20000061   0x0800300d   0x00000003   PAD
    0x20000064   0x08003010   0x00000008   Data   RW          473    .data               my_board.o
    0x2000006c        -       0x00000050   Zero   RW          472    .bss                my_board.o
    0x200000bc   0x08003018   0x00000004   PAD
    0x200000c0        -       0x00001000   Zero   RW         5163    STACK               startup_stm32f334x8.o


==============================================================================

Image component sizes


      Code (inc. data)   RO Data    RW Data    ZI Data      Debug   Object Name

       124          6          0          0          0        603   dr_led.o
       196         12          0          0          0       1254   key.o
       568         60          0         72          0     352313   main.o
      3234         94          0          8         80      33651   my_board.o
      1400         32       2072          0          0      11011   oled.o
        36          8        392          0       4096        860   startup_stm32f334x8.o
       658         36          0          0          0       8761   stm32f30x_adc.o
       442          8          0          0          0       4043   stm32f30x_dma.o
       246          0          0          0          0       3635   stm32f30x_gpio.o
      1412         24          0          0          0      13720   stm32f30x_hrtim.o
       112         12          0          0          0       1084   stm32f30x_misc.o
       172         28          0          0          0       2950   stm32f30x_rcc.o
        34          0          0          0          0     347613   stm32f3xx_it.o
       376         38          0         25          0       2943   system_stm32f30x.o

    ----------------------------------------------------------------------
      9026        358       2498        108       4180     784441   Object Totals
         0          0         32          0          0          0   (incl. Generated)
        16          0          2          3          4          0   (incl. Padding)

    ----------------------------------------------------------------------

      Code (inc. data)   RO Data    RW Data    ZI Data      Debug   Library Member Name

         0          0          0          0          0          0   entry.o
         0          0          0          0          0          0   entry10a.o
         0          0          0          0          0          0   entry11a.o
         4          0          0          0          0          0   entry12b.o
         8          4          0          0          0          0   entry2.o
         4          0          0          0          0          0   entry5.o
         0          0          0          0          0          0   entry7b.o
         0          0          0          0          0          0   entry8b.o
         8          4          0          0          0          0   entry9a.o
        30          0          0          0          0          0   handlers.o
        36          8          0          0          0         68   init.o
         0          0          0          0          0          0   iusefp.o
        30          0          0          0          0         68   llshl.o
        32          0          0          0          0         68   llushr.o
        36          0          0          0          0        108   memseta.o
       186          0          0          0          0        176   depilogue.o
        50          0          0          0          0         76   dfixui.o
        26          0          0          0          0         76   dfltui.o
       228          0          0          0          0         96   dmul.o

    ----------------------------------------------------------------------
       680         16          0          0          0        736   Library Totals
         2          0          0          0          0          0   (incl. Padding)

    ----------------------------------------------------------------------

      Code (inc. data)   RO Data    RW Data    ZI Data      Debug   Library Name

       188         16          0          0          0        312   mc_w.l
       490          0          0          0          0        424   mf_w.l

    ----------------------------------------------------------------------
       680         16          0          0          0        736   Library Totals

    ----------------------------------------------------------------------

==============================================================================


      Code (inc. data)   RO Data    RW Data    ZI Data      Debug   

      9706        374       2498        108       4180     776869   Grand Totals
      9706        374       2498        108       4180     776869   ELF Image Totals
      9706        374       2498        108          0          0   ROM Totals

==============================================================================

    Total RO  Size (Code + RO Data)                12204 (  11.92kB)
    Total RW  Size (RW Data + ZI Data)              4288 (   4.19kB)
    Total ROM Size (Code + RO Data + RW Data)      12312 (  12.02kB)

==============================================================================

