Component: ARM Compiler 5.06 update 7 (build 960) Tool: armlink [4d3601]

==============================================================================

Section Cross References

    main.o(i.HRTIM1_Master_IRQHandler) refers to my_board.o(i.PWM_ClearITPendingBit) for PWM_ClearITPendingBit
    main.o(i.HRTIM1_Master_IRQHandler) refers to my_board.o(i.get_middle_num_adc) for get_middle_num_adc
    main.o(i.HRTIM1_Master_IRQHandler) refers to power_meas_sine_analyzer.o(i.POWER_MEAS_SINE_ANALYZER_run) for POWER_MEAS_SINE_ANALYZER_run
    main.o(i.HRTIM1_Master_IRQHandler) refers to spll_1ph_sogi.o(i.SPLL_1PH_SOGI_run) for SPLL_1PH_SOGI_run
    main.o(i.HRTIM1_Master_IRQHandler) refers to pid_yyds.o(i.IncPIDCal) for IncPIDCal
    main.o(i.HRTIM1_Master_IRQHandler) refers to my_board.o(i.my_pwm_update) for my_pwm_update
    main.o(i.HRTIM1_Master_IRQHandler) refers to my_board.o(.bss) for adc_sample_buff
    main.o(i.HRTIM1_Master_IRQHandler) refers to main.o(.data) for uin
    main.o(i.HRTIM1_Master_IRQHandler) refers to main.o(.bss) for AC_SIN
    main.o(i.main_circle_func) refers to system_stm32f30x.o(i.delay_ms) for delay_ms
    main.o(i.main_circle_func) refers to key.o(i.KEY_Scan) for KEY_Scan
    main.o(i.main_circle_func) refers to oled.o(i.OLED_ShowNumf) for OLED_ShowNumf
    main.o(i.main_circle_func) refers to main.o(.data) for KEY_NUM
    main.o(i.main_circle_func) refers to main.o(.bss) for AC_SIN
    main.o(i.my_board_init) refers to my_board.o(i.my_system_config) for my_system_config
    main.o(i.my_board_init) refers to system_stm32f30x.o(i.delay_ms) for delay_ms
    main.o(i.my_board_init) refers to my_board.o(i.my_adc_init) for my_adc_init
    main.o(i.my_board_init) refers to pid_yyds.o(i.PI_clc) for PI_clc
==============================================================================

Removing Unused input sections from the image.

    Removing main.o(.rev16_text), (4 bytes).
    Removing main.o(.revsh_text), (4 bytes).
    Removing stm32f3xx_it.o(.rev16_text), (4 bytes).
    Removing stm32f3xx_it.o(.revsh_text), (4 bytes).
    Removing system_stm32f30x.o(.rev16_text), (4 bytes).
    Removing system_stm32f30x.o(.revsh_text), (4 bytes).
    Removing system_stm32f30x.o(i.SystemCoreClockUpdate), (160 bytes).
    Removing system_stm32f30x.o(i.delay_us), (24 bytes).
    Removing elab_subsystem.o(i.buck_ELAB_initialize), (48 bytes).
    Removing elab_subsystem.o(i.buck_ELAB_step), (572 bytes).
    Removing elab_subsystem.o(.bss), (208 bytes).
    Removing key_elab.o(i.buck_KEY_initialize), (2 bytes).
    Removing key_elab.o(i.buck_KEY_step), (76 bytes).
    Removing key_elab.o(.bss), (48 bytes).
    Removing key_elab.o(.data), (8 bytes).
    Removing my_board.o(.rev16_text), (4 bytes).
    Removing my_board.o(.revsh_text), (4 bytes).
    Removing my_board.o(i.Dac1_Init), (92 bytes).
==============================================================================

Image Symbol Table

    Local Symbols

    Symbol Name                              Value     Ov Type        Size  Object(Section)

    ../clib/microlib/init/entry.s            0x00000000   Number         0  entry.o ABSOLUTE
    ../clib/microlib/init/entry.s            0x00000000   Number         0  entry8b.o ABSOLUTE
    ../clib/microlib/init/entry.s            0x00000000   Number         0  entry9b.o ABSOLUTE
    ../clib/microlib/init/entry.s            0x00000000   Number         0  entry7a.o ABSOLUTE
    ../clib/microlib/init/entry.s            0x00000000   Number         0  entry9a.o ABSOLUTE
    ../clib/microlib/init/entry.s            0x00000000   Number         0  entry10a.o ABSOLUTE
    ../clib/microlib/init/entry.s            0x00000000   Number         0  entry12b.o ABSOLUTE
    ../clib/microlib/init/entry.s            0x00000000   Number         0  entry12a.o ABSOLUTE
    ../clib/microlib/init/entry.s            0x00000000   Number         0  entry11b.o ABSOLUTE
    ../clib/microlib/init/entry.s            0x00000000   Number         0  entry11a.o ABSOLUTE
    ../clib/microlib/init/entry.s            0x00000000   Number         0  entry10b.o ABSOLUTE
    ../clib/microlib/init/entry.s            0x00000000   Number         0  entry2.o ABSOLUTE
    ../clib/microlib/init/entry.s            0x00000000   Number         0  entry5.o ABSOLUTE
    ../clib/microlib/init/entry.s            0x00000000   Number         0  entry7b.o ABSOLUTE
    ../clib/microlib/init/entry.s            0x00000000   Number         0  entry8a.o ABSOLUTE
    ../clib/microlib/longlong.c              0x00000000   Number         0  llsshr.o ABSOLUTE
    ../clib/microlib/longlong.c              0x00000000   Number         0  llushr.o ABSOLUTE
    ../clib/microlib/longlong.c              0x00000000   Number         0  llshl.o ABSOLUTE
    ../clib/microlib/string/memset.c         0x00000000   Number         0  memseta.o ABSOLUTE
    ../clib/microlib/stubs.s                 0x00000000   Number         0  iusefp.o ABSOLUTE
    ../fplib/microlib/f2d.c                  0x00000000   Number         0  f2d.o ABSOLUTE
    ../fplib/microlib/fpadd.c                0x00000000   Number         0  dadd.o ABSOLUTE
    ../fplib/microlib/fpdiv.c                0x00000000   Number         0  ddiv.o ABSOLUTE
    ../fplib/microlib/fpepilogue.c           0x00000000   Number         0  depilogue.o ABSOLUTE
    ../fplib/microlib/fpfix.c                0x00000000   Number         0  dfixui.o ABSOLUTE
    ../fplib/microlib/fpflt.c                0x00000000   Number         0  dfltui.o ABSOLUTE
    ../fplib/microlib/fpflt.c                0x00000000   Number         0  dflti.o ABSOLUTE
    ../fplib/microlib/fpmul.c                0x00000000   Number         0  dmul.o ABSOLUTE
    ..\BasicMathFunctions\arm_abs_f32.c      0x00000000   Number         0  arm_abs_f32.o ABSOLUTE
    ..\FastMathFunctions\arm_cos_f32.c       0x00000000   Number         0  arm_cos_f32.o ABSOLUTE
    ..\FastMathFunctions\arm_sin_f32.c       0x00000000   Number         0  arm_sin_f32.o ABSOLUTE
    ..\\BasicMathFunctions\\arm_abs_f32.c    0x00000000   Number         0  arm_abs_f32.o ABSOLUTE
    ..\\FastMathFunctions\\arm_cos_f32.c     0x00000000   Number         0  arm_cos_f32.o ABSOLUTE
    ..\\FastMathFunctions\\arm_sin_f32.c     0x00000000   Number         0  arm_sin_f32.o ABSOLUTE
    ..\\api\\OLED\\oled.c                    0x00000000   Number         0  oled.o ABSOLUTE
    ..\\cntl_lib_yyds\\SVPWM_CTR.c           0x00000000   Number         0  svpwm_ctr.o ABSOLUTE
    ..\\cntl_lib_yyds\\my_board.c            0x00000000   Number         0  my_board.o ABSOLUTE
    ..\\driver\\dr_led.c                     0x00000000   Number         0  dr_led.o ABSOLUTE
    ..\\driver\\key.c                        0x00000000   Number         0  key.o ABSOLUTE
    ..\\fwlib\\src\\stm32f30x_adc.c          0x00000000   Number         0  stm32f30x_adc.o ABSOLUTE
    ..\\fwlib\\src\\stm32f30x_can.c          0x00000000   Number         0  stm32f30x_can.o ABSOLUTE
    ..\\fwlib\\src\\stm32f30x_comp.c         0x00000000   Number         0  stm32f30x_comp.o ABSOLUTE
    ..\\fwlib\\src\\stm32f30x_crc.c          0x00000000   Number         0  stm32f30x_crc.o ABSOLUTE
    ..\\fwlib\\src\\stm32f30x_dac.c          0x00000000   Number         0  stm32f30x_dac.o ABSOLUTE
    ..\\fwlib\\src\\stm32f30x_dbgmcu.c       0x00000000   Number         0  stm32f30x_dbgmcu.o ABSOLUTE
    ..\\fwlib\\src\\stm32f30x_dma.c          0x00000000   Number         0  stm32f30x_dma.o ABSOLUTE
    ..\\fwlib\\src\\stm32f30x_exti.c         0x00000000   Number         0  stm32f30x_exti.o ABSOLUTE
    ..\\fwlib\\src\\stm32f30x_flash.c        0x00000000   Number         0  stm32f30x_flash.o ABSOLUTE
    ..\\fwlib\\src\\stm32f30x_gpio.c         0x00000000   Number         0  stm32f30x_gpio.o ABSOLUTE
    ..\\fwlib\\src\\stm32f30x_hrtim.c        0x00000000   Number         0  stm32f30x_hrtim.o ABSOLUTE
    ..\\fwlib\\src\\stm32f30x_i2c.c          0x00000000   Number         0  stm32f30x_i2c.o ABSOLUTE
    ..\\fwlib\\src\\stm32f30x_iwdg.c         0x00000000   Number         0  stm32f30x_iwdg.o ABSOLUTE
    ..\\fwlib\\src\\stm32f30x_misc.c         0x00000000   Number         0  stm32f30x_misc.o ABSOLUTE
    ..\\fwlib\\src\\stm32f30x_opamp.c        0x00000000   Number         0  stm32f30x_opamp.o ABSOLUTE
    ..\\fwlib\\src\\stm32f30x_pwr.c          0x00000000   Number         0  stm32f30x_pwr.o ABSOLUTE
    ..\\fwlib\\src\\stm32f30x_rcc.c          0x00000000   Number         0  stm32f30x_rcc.o ABSOLUTE
    ..\\fwlib\\src\\stm32f30x_rtc.c          0x00000000   Number         0  stm32f30x_rtc.o ABSOLUTE
    ..\\fwlib\\src\\stm32f30x_spi.c          0x00000000   Number         0  stm32f30x_spi.o ABSOLUTE
    ..\\fwlib\\src\\stm32f30x_syscfg.c       0x00000000   Number         0  stm32f30x_syscfg.o ABSOLUTE
    ..\\fwlib\\src\\stm32f30x_tim.c          0x00000000   Number         0  stm32f30x_tim.o ABSOLUTE
    ..\\fwlib\\src\\stm32f30x_usart.c        0x00000000   Number         0  stm32f30x_usart.o ABSOLUTE
    ..\\fwlib\\src\\stm32f30x_wwdg.c         0x00000000   Number         0  stm32f30x_wwdg.o ABSOLUTE
    ..\\main\\main.c                         0x00000000   Number         0  main.o ABSOLUTE
    ..\\main\\stm32f3xx_it.c                 0x00000000   Number         0  stm32f3xx_it.o ABSOLUTE
    ..\\main\\system_stm32f30x.c             0x00000000   Number         0  system_stm32f30x.o ABSOLUTE
    ..\\measure\\power_meas_sine_analyzer.c  0x00000000   Number         0  power_meas_sine_analyzer.o ABSOLUTE
    ..\\measure\\spll_1ph_sogi.c             0x00000000   Number         0  spll_1ph_sogi.o ABSOLUTE
    ..\api\OLED\oled.c                       0x00000000   Number         0  oled.o ABSOLUTE
    ..\cm4_core\startup_stm32f334x8.s        0x00000000   Number         0  startup_stm32f334x8.o ABSOLUTE
    ..\cntl_lib_yyds\SVPWM_CTR.c             0x00000000   Number         0  svpwm_ctr.o ABSOLUTE
    ..\cntl_lib_yyds\my_board.c              0x00000000   Number         0  my_board.o ABSOLUTE
    ..\cntl_lib_yyds\pid_yyds.c              0x00000000   Number         0  pid_yyds.o ABSOLUTE
    ..\driver\dr_led.c                       0x00000000   Number         0  dr_led.o ABSOLUTE
    ..\driver\key.c                          0x00000000   Number         0  key.o ABSOLUTE
    ..\fwlib\src\stm32f30x_adc.c             0x00000000   Number         0  stm32f30x_adc.o ABSOLUTE
    ..\fwlib\src\stm32f30x_can.c             0x00000000   Number         0  stm32f30x_can.o ABSOLUTE
    ..\fwlib\src\stm32f30x_comp.c            0x00000000   Number         0  stm32f30x_comp.o ABSOLUTE
    ..\fwlib\src\stm32f30x_crc.c             0x00000000   Number         0  stm32f30x_crc.o ABSOLUTE
    ..\fwlib\src\stm32f30x_dac.c             0x00000000   Number         0  stm32f30x_dac.o ABSOLUTE
    ..\fwlib\src\stm32f30x_dbgmcu.c          0x00000000   Number         0  stm32f30x_dbgmcu.o ABSOLUTE
    ..\fwlib\src\stm32f30x_dma.c             0x00000000   Number         0  stm32f30x_dma.o ABSOLUTE
    ..\fwlib\src\stm32f30x_exti.c            0x00000000   Number         0  stm32f30x_exti.o ABSOLUTE
    ..\fwlib\src\stm32f30x_flash.c           0x00000000   Number         0  stm32f30x_flash.o ABSOLUTE
    ..\fwlib\src\stm32f30x_gpio.c            0x00000000   Number         0  stm32f30x_gpio.o ABSOLUTE
    ..\fwlib\src\stm32f30x_hrtim.c           0x00000000   Number         0  stm32f30x_hrtim.o ABSOLUTE
    ..\fwlib\src\stm32f30x_i2c.c             0x00000000   Number         0  stm32f30x_i2c.o ABSOLUTE
    ..\fwlib\src\stm32f30x_iwdg.c            0x00000000   Number         0  stm32f30x_iwdg.o ABSOLUTE
    ..\fwlib\src\stm32f30x_misc.c            0x00000000   Number         0  stm32f30x_misc.o ABSOLUTE
    ..\fwlib\src\stm32f30x_opamp.c           0x00000000   Number         0  stm32f30x_opamp.o ABSOLUTE
    ..\fwlib\src\stm32f30x_pwr.c             0x00000000   Number         0  stm32f30x_pwr.o ABSOLUTE
    ..\fwlib\src\stm32f30x_rcc.c             0x00000000   Number         0  stm32f30x_rcc.o ABSOLUTE
    ..\fwlib\src\stm32f30x_rtc.c             0x00000000   Number         0  stm32f30x_rtc.o ABSOLUTE
    ..\fwlib\src\stm32f30x_spi.c             0x00000000   Number         0  stm32f30x_spi.o ABSOLUTE
    ..\fwlib\src\stm32f30x_syscfg.c          0x00000000   Number         0  stm32f30x_syscfg.o ABSOLUTE
    ..\fwlib\src\stm32f30x_tim.c             0x00000000   Number         0  stm32f30x_tim.o ABSOLUTE
    ..\fwlib\src\stm32f30x_usart.c           0x00000000   Number         0  stm32f30x_usart.o ABSOLUTE
    ..\fwlib\src\stm32f30x_wwdg.c            0x00000000   Number         0  stm32f30x_wwdg.o ABSOLUTE
    ..\main\ELAB_subsystem.c                 0x00000000   Number         0  elab_subsystem.o ABSOLUTE
    ..\main\KEY_ELAB.c                       0x00000000   Number         0  key_elab.o ABSOLUTE
    ..\main\main.c                           0x00000000   Number         0  main.o ABSOLUTE
    ..\main\stm32f3xx_it.c                   0x00000000   Number         0  stm32f3xx_it.o ABSOLUTE
    ..\main\system_stm32f30x.c               0x00000000   Number         0  system_stm32f30x.o ABSOLUTE
    ..\measure\power_meas_sine_analyzer.c    0x00000000   Number         0  power_meas_sine_analyzer.o ABSOLUTE
    ..\measure\spll_1ph_sogi.c               0x00000000   Number         0  spll_1ph_sogi.o ABSOLUTE
    cdcmple.s                                0x00000000   Number         0  cdcmple.o ABSOLUTE
    cdrcmple.s                               0x00000000   Number         0  cdrcmple.o ABSOLUTE
    dc.s                                     0x00000000   Number         0  dc.o ABSOLUTE
    handlers.s                               0x00000000   Number         0  handlers.o ABSOLUTE
    init.s                                   0x00000000   Number         0  init.o ABSOLUTE
    RESET                                    0x08000000   Section      392  startup_stm32f334x8.o(RESET)
    .ARM.Collect$$$$00000000                 0x08000188   Section        0  entry.o(.ARM.Collect$$$$00000000)
    .ARM.Collect$$$$00000001                 0x08000188   Section        4  entry2.o(.ARM.Collect$$$$00000001)
    .ARM.Collect$$$$00000004                 0x0800018c   Section        4  entry5.o(.ARM.Collect$$$$00000004)
    .ARM.Collect$$$$00000008                 0x08000190   Section        0  entry7b.o(.ARM.Collect$$$$00000008)
    .ARM.Collect$$$$0000000A                 0x08000190   Section        0  entry8b.o(.ARM.Collect$$$$0000000A)
    .ARM.Collect$$$$0000000B                 0x08000190   Section        8  entry9a.o(.ARM.Collect$$$$0000000B)
    .ARM.Collect$$$$0000000E                 0x08000198   Section        4  entry12b.o(.ARM.Collect$$$$0000000E)
    .ARM.Collect$$$$0000000F                 0x0800019c   Section        0  entry10a.o(.ARM.Collect$$$$0000000F)
    .ARM.Collect$$$$00000011                 0x0800019c   Section        0  entry11a.o(.ARM.Collect$$$$00000011)
    .ARM.Collect$$$$00002712                 0x0800019c   Section        4  entry2.o(.ARM.Collect$$$$00002712)
    __lit__00000000                          0x0800019c   Data           4  entry2.o(.ARM.Collect$$$$00002712)
    .text                                    0x080001a0   Section       36  startup_stm32f334x8.o(.text)
    $v0                                      0x080001a0   Number         0  startup_stm32f334x8.o(.text)
    .text                                    0x080001c4   Section        0  arm_abs_f32.o(.text)
    .text                                    0x0800021c   Section        0  arm_cos_f32.o(.text)
    .text                                    0x080002f4   Section        0  arm_sin_f32.o(.text)
    .text                                    0x080003cc   Section        0  memseta.o(.text)
    .text                                    0x080003f0   Section        0  dmul.o(.text)
    .text                                    0x080004d4   Section        0  dfltui.o(.text)
    .text                                    0x080004ee   Section        0  dfixui.o(.text)
    .text                                    0x08000520   Section        0  llshl.o(.text)
    .text                                    0x0800053e   Section        0  llushr.o(.text)
    .text                                    0x0800055e   Section        0  iusefp.o(.text)
    .text                                    0x0800055e   Section        0  depilogue.o(.text)
    .text                                    0x08000618   Section       36  init.o(.text)
    i.ADC_Cmd                                0x0800063c   Section        0  stm32f30x_adc.o(i.ADC_Cmd)
    i.ADC_CommonInit                         0x08000654   Section        0  stm32f30x_adc.o(i.ADC_CommonInit)
    i.ADC_DMACmd                             0x080006b8   Section        0  stm32f30x_adc.o(i.ADC_DMACmd)
    i.ADC_DMAConfig                          0x080006ce   Section        0  stm32f30x_adc.o(i.ADC_DMAConfig)
    i.ADC_DeInit                             0x080006e0   Section        0  stm32f30x_adc.o(i.ADC_DeInit)
    i.ADC_GetCalibrationStatus               0x08000730   Section        0  stm32f30x_adc.o(i.ADC_GetCalibrationStatus)
    i.ADC_GetFlagStatus                      0x08000744   Section        0  stm32f30x_adc.o(i.ADC_GetFlagStatus)
    i.ADC_Init                               0x08000758   Section        0  stm32f30x_adc.o(i.ADC_Init)
    i.ADC_RegularChannelConfig               0x08000798   Section        0  stm32f30x_adc.o(i.ADC_RegularChannelConfig)
    i.ADC_SelectCalibrationMode              0x08000892   Section        0  stm32f30x_adc.o(i.ADC_SelectCalibrationMode)
    i.ADC_StartCalibration                   0x080008a2   Section        0  stm32f30x_adc.o(i.ADC_StartCalibration)
    i.ADC_StartConversion                    0x080008ac   Section        0  stm32f30x_adc.o(i.ADC_StartConversion)
    i.ADC_VoltageRegulatorCmd                0x080008b6   Section        0  stm32f30x_adc.o(i.ADC_VoltageRegulatorCmd)
    i.BusFault_Handler                       0x080008d4   Section        0  stm32f3xx_it.o(i.BusFault_Handler)
    i.DMA_Cmd                                0x080008d8   Section        0  stm32f30x_dma.o(i.DMA_Cmd)
    i.DMA_DeInit                             0x080008f0   Section        0  stm32f30x_dma.o(i.DMA_DeInit)
    i.DMA_Init                               0x08000a3c   Section        0  stm32f30x_dma.o(i.DMA_Init)
    i.DMA_StructInit                         0x08000a78   Section        0  stm32f30x_dma.o(i.DMA_StructInit)
    i.DebugMon_Handler                       0x08000a92   Section        0  stm32f3xx_it.o(i.DebugMon_Handler)
    i.EXTI0_IRQHandler                       0x08000a94   Section        0  stm32f3xx_it.o(i.EXTI0_IRQHandler)
    i.GPIO_Init                              0x08000a96   Section        0  stm32f30x_gpio.o(i.GPIO_Init)
    i.GPIO_PinAFConfig                       0x08000b2c   Section        0  stm32f30x_gpio.o(i.GPIO_PinAFConfig)
    i.GPIO_ReadInputDataBit                  0x08000b72   Section        0  stm32f30x_gpio.o(i.GPIO_ReadInputDataBit)
    i.GPIO_ResetBits                         0x08000b84   Section        0  stm32f30x_gpio.o(i.GPIO_ResetBits)
    i.GPIO_SetBits                           0x08000b88   Section        0  stm32f30x_gpio.o(i.GPIO_SetBits)
    i.HRTIM1_Master_IRQHandler               0x08000b8c   Section        0  main.o(i.HRTIM1_Master_IRQHandler)
    i.HRTIM_ADCTriggerConfig                 0x08000d04   Section        0  stm32f30x_hrtim.o(i.HRTIM_ADCTriggerConfig)
    i.HRTIM_ClearITPendingBit                0x08000d76   Section        0  stm32f30x_hrtim.o(i.HRTIM_ClearITPendingBit)
    i.HRTIM_DLLCalibrationStart              0x08000db4   Section        0  stm32f30x_hrtim.o(i.HRTIM_DLLCalibrationStart)
    i.HRTIM_DeadTimeConfig                   0x08000ddc   Section        0  stm32f30x_hrtim.o(i.HRTIM_DeadTimeConfig)
    i.HRTIM_GetCommonFlagStatus              0x08000e28   Section        0  stm32f30x_hrtim.o(i.HRTIM_GetCommonFlagStatus)
    i.HRTIM_ITConfig                         0x08000e3e   Section        0  stm32f30x_hrtim.o(i.HRTIM_ITConfig)
    i.HRTIM_MasterBase_Config                0x08000ea0   Section        0  stm32f30x_hrtim.o(i.HRTIM_MasterBase_Config)
    HRTIM_MasterBase_Config                  0x08000ea1   Thumb Code    42  stm32f30x_hrtim.o(i.HRTIM_MasterBase_Config)
    i.HRTIM_MasterSetCompare                 0x08000eca   Section        0  stm32f30x_hrtim.o(i.HRTIM_MasterSetCompare)
    i.HRTIM_MasterWaveform_Config            0x08000ef2   Section        0  stm32f30x_hrtim.o(i.HRTIM_MasterWaveform_Config)
    HRTIM_MasterWaveform_Config              0x08000ef3   Thumb Code    88  stm32f30x_hrtim.o(i.HRTIM_MasterWaveform_Config)
    i.HRTIM_OutputConfig                     0x08000f4a   Section        0  stm32f30x_hrtim.o(i.HRTIM_OutputConfig)
    HRTIM_OutputConfig                       0x08000f4b   Thumb Code   202  stm32f30x_hrtim.o(i.HRTIM_OutputConfig)
    i.HRTIM_SlaveSetCompare                  0x08001014   Section        0  stm32f30x_hrtim.o(i.HRTIM_SlaveSetCompare)
    i.HRTIM_TimingUnitBase_Config            0x0800105e   Section        0  stm32f30x_hrtim.o(i.HRTIM_TimingUnitBase_Config)
    HRTIM_TimingUnitBase_Config              0x0800105f   Thumb Code   124  stm32f30x_hrtim.o(i.HRTIM_TimingUnitBase_Config)
    i.HRTIM_TimingUnitWaveform_Config        0x080010da   Section        0  stm32f30x_hrtim.o(i.HRTIM_TimingUnitWaveform_Config)
    HRTIM_TimingUnitWaveform_Config          0x080010db   Thumb Code   182  stm32f30x_hrtim.o(i.HRTIM_TimingUnitWaveform_Config)
    i.HRTIM_WaveformCounterStart             0x08001190   Section        0  stm32f30x_hrtim.o(i.HRTIM_WaveformCounterStart)
    i.HRTIM_WaveformOutputConfig             0x08001198   Section        0  stm32f30x_hrtim.o(i.HRTIM_WaveformOutputConfig)
    i.HRTIM_WaveformOutputStart              0x080011b4   Section        0  stm32f30x_hrtim.o(i.HRTIM_WaveformOutputStart)
    i.HRTIM_WaveformTimerConfig              0x080011bc   Section        0  stm32f30x_hrtim.o(i.HRTIM_WaveformTimerConfig)
    i.HRTIM_Waveform_Init                    0x0800124e   Section        0  stm32f30x_hrtim.o(i.HRTIM_Waveform_Init)
    i.HardFault_Handler                      0x08001288   Section        0  stm32f3xx_it.o(i.HardFault_Handler)
    i.IIC_Start                              0x0800128c   Section        0  oled.o(i.IIC_Start)
    i.IIC_Stop                               0x080012bc   Section        0  oled.o(i.IIC_Stop)
    i.IIC_Wait_Ack                           0x080012e4   Section        0  oled.o(i.IIC_Wait_Ack)
    i.IncPIDCal                              0x08001300   Section        0  pid_yyds.o(i.IncPIDCal)
    i.KEY_Init                               0x08001384   Section        0  key.o(i.KEY_Init)
    i.KEY_Scan                               0x080013e8   Section        0  key.o(i.KEY_Scan)
    i.LED_Init                               0x08001448   Section        0  dr_led.o(i.LED_Init)
    i.MemManage_Handler                      0x080014c4   Section        0  stm32f3xx_it.o(i.MemManage_Handler)
    i.NMI_Handler                            0x080014c8   Section        0  stm32f3xx_it.o(i.NMI_Handler)
    i.NVIC_Init                              0x080014cc   Section        0  stm32f30x_misc.o(i.NVIC_Init)
    i.OLED_Clear                             0x0800153c   Section        0  oled.o(i.OLED_Clear)
    i.OLED_Init                              0x0800157c   Section        0  oled.o(i.OLED_Init)
    i.OLED_Set_Pos                           0x08001694   Section        0  oled.o(i.OLED_Set_Pos)
    i.OLED_ShowChar                          0x080016bc   Section        0  oled.o(i.OLED_ShowChar)
    i.OLED_ShowNum                           0x08001760   Section        0  oled.o(i.OLED_ShowNum)
    i.OLED_ShowNum_0                         0x080017ec   Section        0  oled.o(i.OLED_ShowNum_0)
    i.OLED_ShowNumf                          0x08001874   Section        0  oled.o(i.OLED_ShowNumf)
    i.OLED_WR_Byte                           0x08001960   Section        0  oled.o(i.OLED_WR_Byte)
    i.PI_Init                                0x08001978   Section        0  pid_yyds.o(i.PI_Init)
    i.PI_clc                                 0x0800198c   Section        0  pid_yyds.o(i.PI_clc)
    i.POWER_MEAS_SINE_ANALYZER_config        0x080019c4   Section        0  power_meas_sine_analyzer.o(i.POWER_MEAS_SINE_ANALYZER_config)
    i.POWER_MEAS_SINE_ANALYZER_reset         0x080019f8   Section        0  power_meas_sine_analyzer.o(i.POWER_MEAS_SINE_ANALYZER_reset)
    i.POWER_MEAS_SINE_ANALYZER_run           0x08001abc   Section        0  power_meas_sine_analyzer.o(i.POWER_MEAS_SINE_ANALYZER_run)
    i.PWM_ClearITPendingBit                  0x08001dac   Section        0  my_board.o(i.PWM_ClearITPendingBit)
    i.PendSV_Handler                         0x08001dc0   Section        0  stm32f3xx_it.o(i.PendSV_Handler)
    i.RCC_ADCCLKConfig                       0x08001dc4   Section        0  stm32f30x_rcc.o(i.RCC_ADCCLKConfig)
    i.RCC_AHBPeriphClockCmd                  0x08001df4   Section        0  stm32f30x_rcc.o(i.RCC_AHBPeriphClockCmd)
    i.RCC_AHBPeriphResetCmd                  0x08001e14   Section        0  stm32f30x_rcc.o(i.RCC_AHBPeriphResetCmd)
    i.RCC_APB2PeriphClockCmd                 0x08001e34   Section        0  stm32f30x_rcc.o(i.RCC_APB2PeriphClockCmd)
    i.RCC_HRTIM1CLKConfig                    0x08001e54   Section        0  stm32f30x_rcc.o(i.RCC_HRTIM1CLKConfig)
    i.SPLL_1PH_SOGI_coeff_calc               0x08001e70   Section        0  spll_1ph_sogi.o(i.SPLL_1PH_SOGI_coeff_calc)
    i.SPLL_1PH_SOGI_config                   0x08001f48   Section        0  spll_1ph_sogi.o(i.SPLL_1PH_SOGI_config)
    i.SPLL_1PH_SOGI_reset                    0x08001f84   Section        0  spll_1ph_sogi.o(i.SPLL_1PH_SOGI_reset)
    i.SPLL_1PH_SOGI_run                      0x08002024   Section        0  spll_1ph_sogi.o(i.SPLL_1PH_SOGI_run)
    i.SVC_Handler                            0x080021b4   Section        0  stm32f3xx_it.o(i.SVC_Handler)
    i.SetSysClock                            0x080021b8   Section        0  system_stm32f30x.o(i.SetSysClock)
    SetSysClock                              0x080021b9   Thumb Code   188  system_stm32f30x.o(i.SetSysClock)
    i.SysTick_Handler                        0x0800227c   Section        0  stm32f3xx_it.o(i.SysTick_Handler)
    i.SystemInit                             0x08002284   Section        0  system_stm32f30x.o(i.SystemInit)
    i.TimingDelay_Decrement                  0x08002308   Section        0  system_stm32f30x.o(i.TimingDelay_Decrement)
    i.UsageFault_Handler                     0x08002320   Section        0  stm32f3xx_it.o(i.UsageFault_Handler)
    i.Write_IIC_Byte                         0x08002324   Section        0  oled.o(i.Write_IIC_Byte)
    i.Write_IIC_Command                      0x08002380   Section        0  oled.o(i.Write_IIC_Command)
    i.Write_IIC_Data                         0x080023ac   Section        0  oled.o(i.Write_IIC_Data)
    i.__scatterload_copy                     0x080023d8   Section       14  handlers.o(i.__scatterload_copy)
    i.__scatterload_null                     0x080023e6   Section        2  handlers.o(i.__scatterload_null)
    i.__scatterload_zeroinit                 0x080023e8   Section       14  handlers.o(i.__scatterload_zeroinit)
    i.arm_sqrt_f32                           0x080023f8   Section        0  power_meas_sine_analyzer.o(i.arm_sqrt_f32)
    arm_sqrt_f32                             0x080023f9   Thumb Code    38  power_meas_sine_analyzer.o(i.arm_sqrt_f32)
    i.delay_ms                               0x08002424   Section        0  system_stm32f30x.o(i.delay_ms)
    i.get_middle_num_adc                     0x0800243c   Section        0  my_board.o(i.get_middle_num_adc)
    i.main                                   0x0800246a   Section        0  my_board.o(i.main)
    i.main_circle_func                       0x08002478   Section        0  main.o(i.main_circle_func)
    i.my_adc_init                            0x080025c0   Section        0  my_board.o(i.my_adc_init)
    i.my_board_init                          0x080029b4   Section        0  main.o(i.my_board_init)
    i.my_pwm_init                            0x08002a98   Section        0  my_board.o(i.my_pwm_init)
    i.my_pwm_update                          0x080031ec   Section        0  my_board.o(i.my_pwm_update)
    i.my_system_config                       0x08003278   Section        0  my_board.o(i.my_system_config)
    i.oled_pow                               0x080032f8   Section        0  oled.o(i.oled_pow)
    .constdata                               0x0800330e   Section     2072  oled.o(.constdata)
    .constdata                               0x08003b28   Section     1040  arm_cos_f32.o(.constdata)
    cosTable                                 0x08003b28   Data        1040  arm_cos_f32.o(.constdata)
    .constdata                               0x08003f38   Section     1036  arm_sin_f32.o(.constdata)
    sinTable                                 0x08003f38   Data        1036  arm_sin_f32.o(.constdata)
    .data                                    0x20000000   Section       54  main.o(.data)
    .data                                    0x20000038   Section       25  system_stm32f30x.o(.data)
    TimingDelay                              0x2000004c   Data           4  system_stm32f30x.o(.data)
    .data                                    0x20000054   Section        8  my_board.o(.data)
    .bss                                     0x2000005c   Section      312  main.o(.bss)
    .bss                                     0x20000194   Section       80  my_board.o(.bss)
    STACK                                    0x200001e8   Section     4096  startup_stm32f334x8.o(STACK)

    Global Symbols

    Symbol Name                              Value     Ov Type        Size  Object(Section)

    BuildAttributes$$THM_ISAv4$E$P$D$K$B$S$7EM$VFPi3$EXTD16$VFPS$VFMA$PE$A:L22UL41UL21$X:L11$S22US41US21$IEEE1$IW$USESV6$~STKCKD$USESV7$~SHL$OTIME$ROPI$EBA8$MICROLIB$REQ8$PRES8$EABIv2 0x00000000   Number         0  anon$$obj.o ABSOLUTE
    __ARM_use_no_argv                        0x00000000   Number         0  my_board.o ABSOLUTE
    __arm_fini_                               - Undefined Weak Reference
    __cpp_initialize__aeabi_                  - Undefined Weak Reference
    __cxa_finalize                            - Undefined Weak Reference
    __decompress                              - Undefined Weak Reference
    _clock_init                               - Undefined Weak Reference
    _microlib_exit                            - Undefined Weak Reference
    __Vectors_Size                           0x00000188   Number         0  startup_stm32f334x8.o ABSOLUTE
    __Vectors                                0x08000000   Data           4  startup_stm32f334x8.o(RESET)
    __Vectors_End                            0x08000188   Data           0  startup_stm32f334x8.o(RESET)
    __main                                   0x08000189   Thumb Code     0  entry.o(.ARM.Collect$$$$00000000)
    _main_stk                                0x08000189   Thumb Code     0  entry2.o(.ARM.Collect$$$$00000001)
    _main_scatterload                        0x0800018d   Thumb Code     0  entry5.o(.ARM.Collect$$$$00000004)
    __main_after_scatterload                 0x08000191   Thumb Code     0  entry5.o(.ARM.Collect$$$$00000004)
    _main_clock                              0x08000191   Thumb Code     0  entry7b.o(.ARM.Collect$$$$00000008)
    _main_cpp_init                           0x08000191   Thumb Code     0  entry8b.o(.ARM.Collect$$$$0000000A)
    _main_init                               0x08000191   Thumb Code     0  entry9a.o(.ARM.Collect$$$$0000000B)
    __rt_lib_shutdown_fini                   0x08000199   Thumb Code     0  entry12b.o(.ARM.Collect$$$$0000000E)
    __rt_final_cpp                           0x0800019d   Thumb Code     0  entry10a.o(.ARM.Collect$$$$0000000F)
    __rt_final_exit                          0x0800019d   Thumb Code     0  entry11a.o(.ARM.Collect$$$$00000011)
    Reset_Handler                            0x080001a1   Thumb Code     8  startup_stm32f334x8.o(.text)
    ADC1_2_IRQHandler                        0x080001bb   Thumb Code     0  startup_stm32f334x8.o(.text)
    CAN1_RX0_IRQHandler                      0x080001bb   Thumb Code     0  startup_stm32f334x8.o(.text)
    CAN1_RX1_IRQHandler                      0x080001bb   Thumb Code     0  startup_stm32f334x8.o(.text)
    CAN1_SCE_IRQHandler                      0x080001bb   Thumb Code     0  startup_stm32f334x8.o(.text)
    CAN1_TX_IRQHandler                       0x080001bb   Thumb Code     0  startup_stm32f334x8.o(.text)
    COMP2_IRQHandler                         0x080001bb   Thumb Code     0  startup_stm32f334x8.o(.text)
    COMP4_6_IRQHandler                       0x080001bb   Thumb Code     0  startup_stm32f334x8.o(.text)
    DMA1_Channel1_IRQHandler                 0x080001bb   Thumb Code     0  startup_stm32f334x8.o(.text)
    DMA1_Channel2_IRQHandler                 0x080001bb   Thumb Code     0  startup_stm32f334x8.o(.text)
    DMA1_Channel3_IRQHandler                 0x080001bb   Thumb Code     0  startup_stm32f334x8.o(.text)
    DMA1_Channel4_IRQHandler                 0x080001bb   Thumb Code     0  startup_stm32f334x8.o(.text)
    DMA1_Channel5_IRQHandler                 0x080001bb   Thumb Code     0  startup_stm32f334x8.o(.text)
    DMA1_Channel6_IRQHandler                 0x080001bb   Thumb Code     0  startup_stm32f334x8.o(.text)
    DMA1_Channel7_IRQHandler                 0x080001bb   Thumb Code     0  startup_stm32f334x8.o(.text)
    EXTI15_10_IRQHandler                     0x080001bb   Thumb Code     0  startup_stm32f334x8.o(.text)
    EXTI1_IRQHandler                         0x080001bb   Thumb Code     0  startup_stm32f334x8.o(.text)
    EXTI2_TS_IRQHandler                      0x080001bb   Thumb Code     0  startup_stm32f334x8.o(.text)
    EXTI3_IRQHandler                         0x080001bb   Thumb Code     0  startup_stm32f334x8.o(.text)
    EXTI4_IRQHandler                         0x080001bb   Thumb Code     0  startup_stm32f334x8.o(.text)
    EXTI9_5_IRQHandler                       0x080001bb   Thumb Code     0  startup_stm32f334x8.o(.text)
    FLASH_IRQHandler                         0x080001bb   Thumb Code     0  startup_stm32f334x8.o(.text)
    FPU_IRQHandler                           0x080001bb   Thumb Code     0  startup_stm32f334x8.o(.text)
    HRTIM1_FLT_IRQHandler                    0x080001bb   Thumb Code     0  startup_stm32f334x8.o(.text)
    HRTIM1_TIMA_IRQHandler                   0x080001bb   Thumb Code     0  startup_stm32f334x8.o(.text)
    HRTIM1_TIMB_IRQHandler                   0x080001bb   Thumb Code     0  startup_stm32f334x8.o(.text)
    HRTIM1_TIMC_IRQHandler                   0x080001bb   Thumb Code     0  startup_stm32f334x8.o(.text)
    HRTIM1_TIMD_IRQHandler                   0x080001bb   Thumb Code     0  startup_stm32f334x8.o(.text)
    HRTIM1_TIME_IRQHandler                   0x080001bb   Thumb Code     0  startup_stm32f334x8.o(.text)
    I2C1_ER_IRQHandler                       0x080001bb   Thumb Code     0  startup_stm32f334x8.o(.text)
    I2C1_EV_IRQHandler                       0x080001bb   Thumb Code     0  startup_stm32f334x8.o(.text)
    PVD_IRQHandler                           0x080001bb   Thumb Code     0  startup_stm32f334x8.o(.text)
    RCC_IRQHandler                           0x080001bb   Thumb Code     0  startup_stm32f334x8.o(.text)
    RTC_Alarm_IRQHandler                     0x080001bb   Thumb Code     0  startup_stm32f334x8.o(.text)
    RTC_WKUP_IRQHandler                      0x080001bb   Thumb Code     0  startup_stm32f334x8.o(.text)
    SPI1_IRQHandler                          0x080001bb   Thumb Code     0  startup_stm32f334x8.o(.text)
    TAMPER_STAMP_IRQHandler                  0x080001bb   Thumb Code     0  startup_stm32f334x8.o(.text)
    TIM1_BRK_TIM15_IRQHandler                0x080001bb   Thumb Code     0  startup_stm32f334x8.o(.text)
    TIM1_CC_IRQHandler                       0x080001bb   Thumb Code     0  startup_stm32f334x8.o(.text)
    TIM1_TRG_COM_TIM17_IRQHandler            0x080001bb   Thumb Code     0  startup_stm32f334x8.o(.text)
    TIM1_UP_TIM16_IRQHandler                 0x080001bb   Thumb Code     0  startup_stm32f334x8.o(.text)
    TIM2_IRQHandler                          0x080001bb   Thumb Code     0  startup_stm32f334x8.o(.text)
    TIM3_IRQHandler                          0x080001bb   Thumb Code     0  startup_stm32f334x8.o(.text)
    TIM6_DAC1_IRQHandler                     0x080001bb   Thumb Code     0  startup_stm32f334x8.o(.text)
    TIM7_DAC2_IRQHandler                     0x080001bb   Thumb Code     0  startup_stm32f334x8.o(.text)
    USART1_IRQHandler                        0x080001bb   Thumb Code     0  startup_stm32f334x8.o(.text)
    USART2_IRQHandler                        0x080001bb   Thumb Code     0  startup_stm32f334x8.o(.text)
    USART3_IRQHandler                        0x080001bb   Thumb Code     0  startup_stm32f334x8.o(.text)
    WWDG_IRQHandler                          0x080001bb   Thumb Code     0  startup_stm32f334x8.o(.text)
    arm_abs_f32                              0x080001c5   Thumb Code    86  arm_abs_f32.o(.text)
    arm_cos_f32                              0x0800021d   Thumb Code   194  arm_cos_f32.o(.text)
    arm_sin_f32                              0x080002f5   Thumb Code   194  arm_sin_f32.o(.text)
    __aeabi_memset                           0x080003cd   Thumb Code    14  memseta.o(.text)
    __aeabi_memset4                          0x080003cd   Thumb Code     0  memseta.o(.text)
    __aeabi_memset8                          0x080003cd   Thumb Code     0  memseta.o(.text)
    __aeabi_memclr                           0x080003db   Thumb Code     4  memseta.o(.text)
    __aeabi_memclr4                          0x080003db   Thumb Code     0  memseta.o(.text)
    __aeabi_memclr8                          0x080003db   Thumb Code     0  memseta.o(.text)
    _memset$wrapper                          0x080003df   Thumb Code    18  memseta.o(.text)
    __aeabi_dmul                             0x080003f1   Thumb Code   228  dmul.o(.text)
    __aeabi_ui2d                             0x080004d5   Thumb Code    26  dfltui.o(.text)
    __aeabi_d2uiz                            0x080004ef   Thumb Code    50  dfixui.o(.text)
    __aeabi_llsl                             0x08000521   Thumb Code    30  llshl.o(.text)
    _ll_shift_l                              0x08000521   Thumb Code     0  llshl.o(.text)
    __aeabi_llsr                             0x0800053f   Thumb Code    32  llushr.o(.text)
    _ll_ushift_r                             0x0800053f   Thumb Code     0  llushr.o(.text)
    __I$use$fp                               0x0800055f   Thumb Code     0  iusefp.o(.text)
    _double_round                            0x0800055f   Thumb Code    30  depilogue.o(.text)
    _double_epilogue                         0x0800057d   Thumb Code   156  depilogue.o(.text)
    __scatterload                            0x08000619   Thumb Code    28  init.o(.text)
    __scatterload_rt2                        0x08000619   Thumb Code     0  init.o(.text)
    ADC_Cmd                                  0x0800063d   Thumb Code    22  stm32f30x_adc.o(i.ADC_Cmd)
    ADC_CommonInit                           0x08000655   Thumb Code    82  stm32f30x_adc.o(i.ADC_CommonInit)
    ADC_DMACmd                               0x080006b9   Thumb Code    22  stm32f30x_adc.o(i.ADC_DMACmd)
    ADC_DMAConfig                            0x080006cf   Thumb Code    16  stm32f30x_adc.o(i.ADC_DMAConfig)
    ADC_DeInit                               0x080006e1   Thumb Code    68  stm32f30x_adc.o(i.ADC_DeInit)
    ADC_GetCalibrationStatus                 0x08000731   Thumb Code    20  stm32f30x_adc.o(i.ADC_GetCalibrationStatus)
    ADC_GetFlagStatus                        0x08000745   Thumb Code    18  stm32f30x_adc.o(i.ADC_GetFlagStatus)
    ADC_Init                                 0x08000759   Thumb Code    58  stm32f30x_adc.o(i.ADC_Init)
    ADC_RegularChannelConfig                 0x08000799   Thumb Code   250  stm32f30x_adc.o(i.ADC_RegularChannelConfig)
    ADC_SelectCalibrationMode                0x08000893   Thumb Code    16  stm32f30x_adc.o(i.ADC_SelectCalibrationMode)
    ADC_StartCalibration                     0x080008a3   Thumb Code    10  stm32f30x_adc.o(i.ADC_StartCalibration)
    ADC_StartConversion                      0x080008ad   Thumb Code    10  stm32f30x_adc.o(i.ADC_StartConversion)
    ADC_VoltageRegulatorCmd                  0x080008b7   Thumb Code    30  stm32f30x_adc.o(i.ADC_VoltageRegulatorCmd)
    BusFault_Handler                         0x080008d5   Thumb Code     4  stm32f3xx_it.o(i.BusFault_Handler)
    DMA_Cmd                                  0x080008d9   Thumb Code    24  stm32f30x_dma.o(i.DMA_Cmd)
    DMA_DeInit                               0x080008f1   Thumb Code   324  stm32f30x_dma.o(i.DMA_DeInit)
    DMA_Init                                 0x08000a3d   Thumb Code    60  stm32f30x_dma.o(i.DMA_Init)
    DMA_StructInit                           0x08000a79   Thumb Code    26  stm32f30x_dma.o(i.DMA_StructInit)
    DebugMon_Handler                         0x08000a93   Thumb Code     2  stm32f3xx_it.o(i.DebugMon_Handler)
    EXTI0_IRQHandler                         0x08000a95   Thumb Code     2  stm32f3xx_it.o(i.EXTI0_IRQHandler)
    GPIO_Init                                0x08000a97   Thumb Code   150  stm32f30x_gpio.o(i.GPIO_Init)
    GPIO_PinAFConfig                         0x08000b2d   Thumb Code    70  stm32f30x_gpio.o(i.GPIO_PinAFConfig)
    GPIO_ReadInputDataBit                    0x08000b73   Thumb Code    18  stm32f30x_gpio.o(i.GPIO_ReadInputDataBit)
    GPIO_ResetBits                           0x08000b85   Thumb Code     4  stm32f30x_gpio.o(i.GPIO_ResetBits)
    GPIO_SetBits                             0x08000b89   Thumb Code     4  stm32f30x_gpio.o(i.GPIO_SetBits)
    HRTIM1_Master_IRQHandler                 0x08000b8d   Thumb Code   300  main.o(i.HRTIM1_Master_IRQHandler)
    HRTIM_ADCTriggerConfig                   0x08000d05   Thumb Code   114  stm32f30x_hrtim.o(i.HRTIM_ADCTriggerConfig)
    HRTIM_ClearITPendingBit                  0x08000d77   Thumb Code    62  stm32f30x_hrtim.o(i.HRTIM_ClearITPendingBit)
    HRTIM_DLLCalibrationStart                0x08000db5   Thumb Code    40  stm32f30x_hrtim.o(i.HRTIM_DLLCalibrationStart)
    HRTIM_DeadTimeConfig                     0x08000ddd   Thumb Code    70  stm32f30x_hrtim.o(i.HRTIM_DeadTimeConfig)
    HRTIM_GetCommonFlagStatus                0x08000e29   Thumb Code    22  stm32f30x_hrtim.o(i.HRTIM_GetCommonFlagStatus)
    HRTIM_ITConfig                           0x08000e3f   Thumb Code    98  stm32f30x_hrtim.o(i.HRTIM_ITConfig)
    HRTIM_MasterSetCompare                   0x08000ecb   Thumb Code    40  stm32f30x_hrtim.o(i.HRTIM_MasterSetCompare)
    HRTIM_SlaveSetCompare                    0x08001015   Thumb Code    74  stm32f30x_hrtim.o(i.HRTIM_SlaveSetCompare)
    HRTIM_WaveformCounterStart               0x08001191   Thumb Code     8  stm32f30x_hrtim.o(i.HRTIM_WaveformCounterStart)
    HRTIM_WaveformOutputConfig               0x08001199   Thumb Code    28  stm32f30x_hrtim.o(i.HRTIM_WaveformOutputConfig)
    HRTIM_WaveformOutputStart                0x080011b5   Thumb Code     8  stm32f30x_hrtim.o(i.HRTIM_WaveformOutputStart)
    HRTIM_WaveformTimerConfig                0x080011bd   Thumb Code   146  stm32f30x_hrtim.o(i.HRTIM_WaveformTimerConfig)
    HRTIM_Waveform_Init                      0x0800124f   Thumb Code    58  stm32f30x_hrtim.o(i.HRTIM_Waveform_Init)
    HardFault_Handler                        0x08001289   Thumb Code     4  stm32f3xx_it.o(i.HardFault_Handler)
    IIC_Start                                0x0800128d   Thumb Code    44  oled.o(i.IIC_Start)
    IIC_Stop                                 0x080012bd   Thumb Code    34  oled.o(i.IIC_Stop)
    IIC_Wait_Ack                             0x080012e5   Thumb Code    24  oled.o(i.IIC_Wait_Ack)
    IncPIDCal                                0x08001301   Thumb Code   130  pid_yyds.o(i.IncPIDCal)
    KEY_Init                                 0x08001385   Thumb Code    94  key.o(i.KEY_Init)
    KEY_Scan                                 0x080013e9   Thumb Code    90  key.o(i.KEY_Scan)
    LED_Init                                 0x08001449   Thumb Code   118  dr_led.o(i.LED_Init)
    MemManage_Handler                        0x080014c5   Thumb Code     4  stm32f3xx_it.o(i.MemManage_Handler)
    NMI_Handler                              0x080014c9   Thumb Code     2  stm32f3xx_it.o(i.NMI_Handler)
    NVIC_Init                                0x080014cd   Thumb Code   100  stm32f30x_misc.o(i.NVIC_Init)
    OLED_Clear                               0x0800153d   Thumb Code    62  oled.o(i.OLED_Clear)
    OLED_Init                                0x0800157d   Thumb Code   276  oled.o(i.OLED_Init)
    OLED_Set_Pos                             0x08001695   Thumb Code    40  oled.o(i.OLED_Set_Pos)
    OLED_ShowChar                            0x080016bd   Thumb Code   154  oled.o(i.OLED_ShowChar)
    OLED_ShowNum                             0x08001761   Thumb Code   140  oled.o(i.OLED_ShowNum)
    OLED_ShowNum_0                           0x080017ed   Thumb Code   136  oled.o(i.OLED_ShowNum_0)
    OLED_ShowNumf                            0x08001875   Thumb Code   236  oled.o(i.OLED_ShowNumf)
    OLED_WR_Byte                             0x08001961   Thumb Code    24  oled.o(i.OLED_WR_Byte)
    PI_Init                                  0x08001979   Thumb Code    18  pid_yyds.o(i.PI_Init)
    PI_clc                                   0x0800198d   Thumb Code    50  pid_yyds.o(i.PI_clc)
    POWER_MEAS_SINE_ANALYZER_config          0x080019c5   Thumb Code    50  power_meas_sine_analyzer.o(i.POWER_MEAS_SINE_ANALYZER_config)
    POWER_MEAS_SINE_ANALYZER_reset           0x080019f9   Thumb Code   192  power_meas_sine_analyzer.o(i.POWER_MEAS_SINE_ANALYZER_reset)
    POWER_MEAS_SINE_ANALYZER_run             0x08001abd   Thumb Code   744  power_meas_sine_analyzer.o(i.POWER_MEAS_SINE_ANALYZER_run)
    PWM_ClearITPendingBit                    0x08001dad   Thumb Code    14  my_board.o(i.PWM_ClearITPendingBit)
    PendSV_Handler                           0x08001dc1   Thumb Code     2  stm32f3xx_it.o(i.PendSV_Handler)
    RCC_ADCCLKConfig                         0x08001dc5   Thumb Code    44  stm32f30x_rcc.o(i.RCC_ADCCLKConfig)
    RCC_AHBPeriphClockCmd                    0x08001df5   Thumb Code    26  stm32f30x_rcc.o(i.RCC_AHBPeriphClockCmd)
    RCC_AHBPeriphResetCmd                    0x08001e15   Thumb Code    26  stm32f30x_rcc.o(i.RCC_AHBPeriphResetCmd)
    RCC_APB2PeriphClockCmd                   0x08001e35   Thumb Code    26  stm32f30x_rcc.o(i.RCC_APB2PeriphClockCmd)
    RCC_HRTIM1CLKConfig                      0x08001e55   Thumb Code    22  stm32f30x_rcc.o(i.RCC_HRTIM1CLKConfig)
    SPLL_1PH_SOGI_coeff_calc                 0x08001e71   Thumb Code   210  spll_1ph_sogi.o(i.SPLL_1PH_SOGI_coeff_calc)
    SPLL_1PH_SOGI_config                     0x08001f49   Thumb Code    60  spll_1ph_sogi.o(i.SPLL_1PH_SOGI_config)
    SPLL_1PH_SOGI_reset                      0x08001f85   Thumb Code   154  spll_1ph_sogi.o(i.SPLL_1PH_SOGI_reset)
    SPLL_1PH_SOGI_run                        0x08002025   Thumb Code   396  spll_1ph_sogi.o(i.SPLL_1PH_SOGI_run)
    SVC_Handler                              0x080021b5   Thumb Code     2  stm32f3xx_it.o(i.SVC_Handler)
    SysTick_Handler                          0x0800227d   Thumb Code     8  stm32f3xx_it.o(i.SysTick_Handler)
    SystemInit                               0x08002285   Thumb Code   112  system_stm32f30x.o(i.SystemInit)
    TimingDelay_Decrement                    0x08002309   Thumb Code    18  system_stm32f30x.o(i.TimingDelay_Decrement)
    UsageFault_Handler                       0x08002321   Thumb Code     4  stm32f3xx_it.o(i.UsageFault_Handler)
    Write_IIC_Byte                           0x08002325   Thumb Code    88  oled.o(i.Write_IIC_Byte)
    Write_IIC_Command                        0x08002381   Thumb Code    44  oled.o(i.Write_IIC_Command)
    Write_IIC_Data                           0x080023ad   Thumb Code    44  oled.o(i.Write_IIC_Data)
    __scatterload_copy                       0x080023d9   Thumb Code    14  handlers.o(i.__scatterload_copy)
    __scatterload_null                       0x080023e7   Thumb Code     2  handlers.o(i.__scatterload_null)
    __scatterload_zeroinit                   0x080023e9   Thumb Code    14  handlers.o(i.__scatterload_zeroinit)
    delay_ms                                 0x08002425   Thumb Code    20  system_stm32f30x.o(i.delay_ms)
    get_middle_num_adc                       0x0800243d   Thumb Code    46  my_board.o(i.get_middle_num_adc)
    main                                     0x0800246b   Thumb Code    12  my_board.o(i.main)
    main_circle_func                         0x08002479   Thumb Code   294  main.o(i.main_circle_func)
    my_adc_init                              0x080025c1   Thumb Code   990  my_board.o(i.my_adc_init)
    my_board_init                            0x080029b5   Thumb Code   170  main.o(i.my_board_init)
    my_pwm_init                              0x08002a99   Thumb Code  1858  my_board.o(i.my_pwm_init)
    my_pwm_update                            0x080031ed   Thumb Code   130  my_board.o(i.my_pwm_update)
    my_system_config                         0x08003279   Thumb Code   114  my_board.o(i.my_system_config)
    oled_pow                                 0x080032f9   Thumb Code    22  oled.o(i.oled_pow)
    F6x8                                     0x0800330e   Data         552  oled.o(.constdata)
    F8X16                                    0x08003536   Data        1520  oled.o(.constdata)
    Region$$Table$$Base                      0x08004344   Number         0  anon$$obj.o(Region$$Table)
    Region$$Table$$Limit                     0x08004364   Number         0  anon$$obj.o(Region$$Table)
    sin_out                                  0x20000000   Data           4  main.o(.data)
    pwm_a                                    0x20000004   Data           4  main.o(.data)
    pwm                                      0x20000008   Data           4  main.o(.data)
    set_point_u                              0x2000000c   Data           4  main.o(.data)
    uout                                     0x20000010   Data           4  main.o(.data)
    iout                                     0x20000014   Data           4  main.o(.data)
    uin                                      0x20000018   Data           4  main.o(.data)
    iin                                      0x2000001c   Data           4  main.o(.data)
    iref                                     0x20000020   Data           4  main.o(.data)
    TEST                                     0x20000024   Data           1  main.o(.data)
    time_cnt                                 0x20000028   Data           4  main.o(.data)
    time_cnt_all                             0x2000002c   Data           4  main.o(.data)
    aim_fre                                  0x20000030   Data           4  main.o(.data)
    KEY_NUM                                  0x20000034   Data           1  main.o(.data)
    KEY_MODE                                 0x20000035   Data           1  main.o(.data)
    SystemCoreClock                          0x20000038   Data           4  system_stm32f30x.o(.data)
    AHBPrescTable                            0x2000003c   Data          16  system_stm32f30x.o(.data)
    BlinkSpeed                               0x20000050   Data           1  system_stm32f30x.o(.data)
    dac_num                                  0x20000054   Data           2  my_board.o(.data)
    PWM_PER                                  0x20000058   Data           4  my_board.o(.data)
    AC_SIN                                   0x2000005c   Data         132  main.o(.bss)
    voltage_pid                              0x200000e0   Data          24  main.o(.bss)
    current_pid                              0x200000f8   Data          24  main.o(.bss)
    spll                                     0x20000110   Data         132  main.o(.bss)
    adc_sample_buf                           0x20000194   Data          20  my_board.o(.bss)
    adc_sample_buff                          0x200001a8   Data          60  my_board.o(.bss)
    __initial_sp                             0x200011e8   Data           0  startup_stm32f334x8.o(STACK)



==============================================================================

Memory Map of the image

  Image Entry point : 0x08000189

  Load Region LR_IROM1 (Base: 0x08000000, Size: 0x000043c0, Max: 0x00008000, ABSOLUTE)

    Execution Region ER_IROM1 (Exec base: 0x08000000, Load base: 0x08000000, Size: 0x00004364, Max: 0x00008000, ABSOLUTE)

    Exec Addr    Load Addr    Size         Type   Attr      Idx    E Section Name        Object

    0x08000000   0x08000000   0x00000188   Data   RO         5069    RESET               startup_stm32f334x8.o
    0x08000188   0x08000188   0x00000000   Code   RO         5241  * .ARM.Collect$$$$00000000  mc_w.l(entry.o)
    0x08000188   0x08000188   0x00000004   Code   RO         5264    .ARM.Collect$$$$00000001  mc_w.l(entry2.o)
    0x0800018c   0x0800018c   0x00000004   Code   RO         5267    .ARM.Collect$$$$00000004  mc_w.l(entry5.o)
    0x08000190   0x08000190   0x00000000   Code   RO         5269    .ARM.Collect$$$$00000008  mc_w.l(entry7b.o)
    0x08000190   0x08000190   0x00000000   Code   RO         5271    .ARM.Collect$$$$0000000A  mc_w.l(entry8b.o)
    0x08000190   0x08000190   0x00000008   Code   RO         5272    .ARM.Collect$$$$0000000B  mc_w.l(entry9a.o)
    0x08000198   0x08000198   0x00000004   Code   RO         5279    .ARM.Collect$$$$0000000E  mc_w.l(entry12b.o)
    0x0800019c   0x0800019c   0x00000000   Code   RO         5274    .ARM.Collect$$$$0000000F  mc_w.l(entry10a.o)
    0x0800019c   0x0800019c   0x00000000   Code   RO         5276    .ARM.Collect$$$$00000011  mc_w.l(entry11a.o)
    0x0800019c   0x0800019c   0x00000004   Code   RO         5265    .ARM.Collect$$$$00002712  mc_w.l(entry2.o)
    0x080001a0   0x080001a0   0x00000024   Code   RO         5070    .text               startup_stm32f334x8.o
    0x080001c4   0x080001c4   0x00000056   Code   RO         5154    .text               arm_cortexM4lf_math.lib(arm_abs_f32.o)
    0x0800021a   0x0800021a   0x00000002   PAD
    0x0800021c   0x0800021c   0x000000d8   Code   RO         5199    .text               arm_cortexM4lf_math.lib(arm_cos_f32.o)
    0x080002f4   0x080002f4   0x000000d8   Code   RO         5221    .text               arm_cortexM4lf_math.lib(arm_sin_f32.o)
    0x080003cc   0x080003cc   0x00000024   Code   RO         5244    .text               mc_w.l(memseta.o)
    0x080003f0   0x080003f0   0x000000e4   Code   RO         5248    .text               mf_w.l(dmul.o)
    0x080004d4   0x080004d4   0x0000001a   Code   RO         5254    .text               mf_w.l(dfltui.o)
    0x080004ee   0x080004ee   0x00000032   Code   RO         5256    .text               mf_w.l(dfixui.o)
    0x08000520   0x08000520   0x0000001e   Code   RO         5280    .text               mc_w.l(llshl.o)
    0x0800053e   0x0800053e   0x00000020   Code   RO         5282    .text               mc_w.l(llushr.o)
    0x0800055e   0x0800055e   0x00000000   Code   RO         5286    .text               mc_w.l(iusefp.o)
    0x0800055e   0x0800055e   0x000000ba   Code   RO         5287    .text               mf_w.l(depilogue.o)
    0x08000618   0x08000618   0x00000024   Code   RO         5289    .text               mc_w.l(init.o)
    0x0800063c   0x0800063c   0x00000016   Code   RO          827    i.ADC_Cmd           stm32f30x_adc.o
    0x08000652   0x08000652   0x00000002   PAD
    0x08000654   0x08000654   0x00000064   Code   RO          828    i.ADC_CommonInit    stm32f30x_adc.o
    0x080006b8   0x080006b8   0x00000016   Code   RO          830    i.ADC_DMACmd        stm32f30x_adc.o
    0x080006ce   0x080006ce   0x00000010   Code   RO          831    i.ADC_DMAConfig     stm32f30x_adc.o
    0x080006de   0x080006de   0x00000002   PAD
    0x080006e0   0x080006e0   0x00000050   Code   RO          832    i.ADC_DeInit        stm32f30x_adc.o
    0x08000730   0x08000730   0x00000014   Code   RO          837    i.ADC_GetCalibrationStatus  stm32f30x_adc.o
    0x08000744   0x08000744   0x00000012   Code   RO          843    i.ADC_GetFlagStatus  stm32f30x_adc.o
    0x08000756   0x08000756   0x00000002   PAD
    0x08000758   0x08000758   0x00000040   Code   RO          849    i.ADC_Init          stm32f30x_adc.o
    0x08000798   0x08000798   0x000000fa   Code   RO          854    i.ADC_RegularChannelConfig  stm32f30x_adc.o
    0x08000892   0x08000892   0x00000010   Code   RO          856    i.ADC_SelectCalibrationMode  stm32f30x_adc.o
    0x080008a2   0x080008a2   0x0000000a   Code   RO          864    i.ADC_StartCalibration  stm32f30x_adc.o
    0x080008ac   0x080008ac   0x0000000a   Code   RO          865    i.ADC_StartConversion  stm32f30x_adc.o
    0x080008b6   0x080008b6   0x0000001e   Code   RO          872    i.ADC_VoltageRegulatorCmd  stm32f30x_adc.o
    0x080008d4   0x080008d4   0x00000004   Code   RO          188    i.BusFault_Handler  stm32f3xx_it.o
    0x080008d8   0x080008d8   0x00000018   Code   RO         1688    i.DMA_Cmd           stm32f30x_dma.o
    0x080008f0   0x080008f0   0x0000014c   Code   RO         1689    i.DMA_DeInit        stm32f30x_dma.o
    0x08000a3c   0x08000a3c   0x0000003c   Code   RO         1694    i.DMA_Init          stm32f30x_dma.o
    0x08000a78   0x08000a78   0x0000001a   Code   RO         1696    i.DMA_StructInit    stm32f30x_dma.o
    0x08000a92   0x08000a92   0x00000002   Code   RO          189    i.DebugMon_Handler  stm32f3xx_it.o
    0x08000a94   0x08000a94   0x00000002   Code   RO          190    i.EXTI0_IRQHandler  stm32f3xx_it.o
    0x08000a96   0x08000a96   0x00000096   Code   RO         2017    i.GPIO_Init         stm32f30x_gpio.o
    0x08000b2c   0x08000b2c   0x00000046   Code   RO         2018    i.GPIO_PinAFConfig  stm32f30x_gpio.o
    0x08000b72   0x08000b72   0x00000012   Code   RO         2021    i.GPIO_ReadInputDataBit  stm32f30x_gpio.o
    0x08000b84   0x08000b84   0x00000004   Code   RO         2024    i.GPIO_ResetBits    stm32f30x_gpio.o
    0x08000b88   0x08000b88   0x00000004   Code   RO         2025    i.GPIO_SetBits      stm32f30x_gpio.o
    0x08000b8c   0x08000b8c   0x00000178   Code   RO            3    i.HRTIM1_Master_IRQHandler  main.o
    0x08000d04   0x08000d04   0x00000072   Code   RO         2108    i.HRTIM_ADCTriggerConfig  stm32f30x_hrtim.o
    0x08000d76   0x08000d76   0x0000003e   Code   RO         2117    i.HRTIM_ClearITPendingBit  stm32f30x_hrtim.o
    0x08000db4   0x08000db4   0x00000028   Code   RO         2119    i.HRTIM_DLLCalibrationStart  stm32f30x_hrtim.o
    0x08000ddc   0x08000ddc   0x0000004c   Code   RO         2122    i.HRTIM_DeadTimeConfig  stm32f30x_hrtim.o
    0x08000e28   0x08000e28   0x00000016   Code   RO         2131    i.HRTIM_GetCommonFlagStatus  stm32f30x_hrtim.o
    0x08000e3e   0x08000e3e   0x00000062   Code   RO         2139    i.HRTIM_ITConfig    stm32f30x_hrtim.o
    0x08000ea0   0x08000ea0   0x0000002a   Code   RO         2140    i.HRTIM_MasterBase_Config  stm32f30x_hrtim.o
    0x08000eca   0x08000eca   0x00000028   Code   RO         2141    i.HRTIM_MasterSetCompare  stm32f30x_hrtim.o
    0x08000ef2   0x08000ef2   0x00000058   Code   RO         2142    i.HRTIM_MasterWaveform_Config  stm32f30x_hrtim.o
    0x08000f4a   0x08000f4a   0x000000ca   Code   RO         2143    i.HRTIM_OutputConfig  stm32f30x_hrtim.o
    0x08001014   0x08001014   0x0000004a   Code   RO         2163    i.HRTIM_SlaveSetCompare  stm32f30x_hrtim.o
    0x0800105e   0x0800105e   0x0000007c   Code   RO         2170    i.HRTIM_TimingUnitBase_Config  stm32f30x_hrtim.o
    0x080010da   0x080010da   0x000000b6   Code   RO         2171    i.HRTIM_TimingUnitWaveform_Config  stm32f30x_hrtim.o
    0x08001190   0x08001190   0x00000008   Code   RO         2174    i.HRTIM_WaveformCounterStart  stm32f30x_hrtim.o
    0x08001198   0x08001198   0x0000001c   Code   RO         2178    i.HRTIM_WaveformOutputConfig  stm32f30x_hrtim.o
    0x080011b4   0x080011b4   0x00000008   Code   RO         2179    i.HRTIM_WaveformOutputStart  stm32f30x_hrtim.o
    0x080011bc   0x080011bc   0x00000092   Code   RO         2182    i.HRTIM_WaveformTimerConfig  stm32f30x_hrtim.o
    0x0800124e   0x0800124e   0x0000003a   Code   RO         2183    i.HRTIM_Waveform_Init  stm32f30x_hrtim.o
    0x08001288   0x08001288   0x00000004   Code   RO          191    i.HardFault_Handler  stm32f3xx_it.o
    0x0800128c   0x0800128c   0x00000030   Code   RO          553    i.IIC_Start         oled.o
    0x080012bc   0x080012bc   0x00000028   Code   RO          554    i.IIC_Stop          oled.o
    0x080012e4   0x080012e4   0x0000001c   Code   RO          555    i.IIC_Wait_Ack      oled.o
    0x08001300   0x08001300   0x00000082   Code   RO          457    i.IncPIDCal         pid_yyds.o
    0x08001382   0x08001382   0x00000002   PAD
    0x08001384   0x08001384   0x00000064   Code   RO          785    i.KEY_Init          key.o
    0x080013e8   0x080013e8   0x00000060   Code   RO          786    i.KEY_Scan          key.o
    0x08001448   0x08001448   0x0000007c   Code   RO          711    i.LED_Init          dr_led.o
    0x080014c4   0x080014c4   0x00000004   Code   RO          192    i.MemManage_Handler  stm32f3xx_it.o
    0x080014c8   0x080014c8   0x00000002   Code   RO          193    i.NMI_Handler       stm32f3xx_it.o
    0x080014ca   0x080014ca   0x00000002   PAD
    0x080014cc   0x080014cc   0x00000070   Code   RO         2893    i.NVIC_Init         stm32f30x_misc.o
    0x0800153c   0x0800153c   0x0000003e   Code   RO          556    i.OLED_Clear        oled.o
    0x0800157a   0x0800157a   0x00000002   PAD
    0x0800157c   0x0800157c   0x00000118   Code   RO          560    i.OLED_Init         oled.o
    0x08001694   0x08001694   0x00000028   Code   RO          562    i.OLED_Set_Pos      oled.o
    0x080016bc   0x080016bc   0x000000a4   Code   RO          564    i.OLED_ShowChar     oled.o
    0x08001760   0x08001760   0x0000008c   Code   RO          565    i.OLED_ShowNum      oled.o
    0x080017ec   0x080017ec   0x00000088   Code   RO          566    i.OLED_ShowNum_0    oled.o
    0x08001874   0x08001874   0x000000ec   Code   RO          567    i.OLED_ShowNumf     oled.o
    0x08001960   0x08001960   0x00000018   Code   RO          569    i.OLED_WR_Byte      oled.o
    0x08001978   0x08001978   0x00000012   Code   RO          459    i.PI_Init           pid_yyds.o
    0x0800198a   0x0800198a   0x00000002   PAD
    0x0800198c   0x0800198c   0x00000038   Code   RO          460    i.PI_clc            pid_yyds.o
    0x080019c4   0x080019c4   0x00000032   Code   RO         5076    i.POWER_MEAS_SINE_ANALYZER_config  power_meas_sine_analyzer.o
    0x080019f6   0x080019f6   0x00000002   PAD
    0x080019f8   0x080019f8   0x000000c4   Code   RO         5077    i.POWER_MEAS_SINE_ANALYZER_reset  power_meas_sine_analyzer.o
    0x08001abc   0x08001abc   0x000002f0   Code   RO         5078    i.POWER_MEAS_SINE_ANALYZER_run  power_meas_sine_analyzer.o
    0x08001dac   0x08001dac   0x00000014   Code   RO          374    i.PWM_ClearITPendingBit  my_board.o
    0x08001dc0   0x08001dc0   0x00000002   Code   RO          194    i.PendSV_Handler    stm32f3xx_it.o
    0x08001dc2   0x08001dc2   0x00000002   PAD
    0x08001dc4   0x08001dc4   0x00000030   Code   RO         3115    i.RCC_ADCCLKConfig  stm32f30x_rcc.o
    0x08001df4   0x08001df4   0x00000020   Code   RO         3116    i.RCC_AHBPeriphClockCmd  stm32f30x_rcc.o
    0x08001e14   0x08001e14   0x00000020   Code   RO         3117    i.RCC_AHBPeriphResetCmd  stm32f30x_rcc.o
    0x08001e34   0x08001e34   0x00000020   Code   RO         3120    i.RCC_APB2PeriphClockCmd  stm32f30x_rcc.o
    0x08001e54   0x08001e54   0x0000001c   Code   RO         3133    i.RCC_HRTIM1CLKConfig  stm32f30x_rcc.o
    0x08001e70   0x08001e70   0x000000d8   Code   RO         5131    i.SPLL_1PH_SOGI_coeff_calc  spll_1ph_sogi.o
    0x08001f48   0x08001f48   0x0000003c   Code   RO         5137    i.SPLL_1PH_SOGI_config  spll_1ph_sogi.o
    0x08001f84   0x08001f84   0x000000a0   Code   RO         5125    i.SPLL_1PH_SOGI_reset  spll_1ph_sogi.o
    0x08002024   0x08002024   0x00000190   Code   RO         5143    i.SPLL_1PH_SOGI_run  spll_1ph_sogi.o
    0x080021b4   0x080021b4   0x00000002   Code   RO          195    i.SVC_Handler       stm32f3xx_it.o
    0x080021b6   0x080021b6   0x00000002   PAD
    0x080021b8   0x080021b8   0x000000c4   Code   RO          266    i.SetSysClock       system_stm32f30x.o
    0x0800227c   0x0800227c   0x00000008   Code   RO          196    i.SysTick_Handler   stm32f3xx_it.o
    0x08002284   0x08002284   0x00000084   Code   RO          268    i.SystemInit        system_stm32f30x.o
    0x08002308   0x08002308   0x00000018   Code   RO          269    i.TimingDelay_Decrement  system_stm32f30x.o
    0x08002320   0x08002320   0x00000004   Code   RO          197    i.UsageFault_Handler  stm32f3xx_it.o
    0x08002324   0x08002324   0x0000005c   Code   RO          570    i.Write_IIC_Byte    oled.o
    0x08002380   0x08002380   0x0000002c   Code   RO          571    i.Write_IIC_Command  oled.o
    0x080023ac   0x080023ac   0x0000002c   Code   RO          572    i.Write_IIC_Data    oled.o
    0x080023d8   0x080023d8   0x0000000e   Code   RO         5293    i.__scatterload_copy  mc_w.l(handlers.o)
    0x080023e6   0x080023e6   0x00000002   Code   RO         5294    i.__scatterload_null  mc_w.l(handlers.o)
    0x080023e8   0x080023e8   0x0000000e   Code   RO         5295    i.__scatterload_zeroinit  mc_w.l(handlers.o)
    0x080023f6   0x080023f6   0x00000002   PAD
    0x080023f8   0x080023f8   0x0000002c   Code   RO         5079    i.arm_sqrt_f32      power_meas_sine_analyzer.o
    0x08002424   0x08002424   0x00000018   Code   RO          270    i.delay_ms          system_stm32f30x.o
    0x0800243c   0x0800243c   0x0000002e   Code   RO          375    i.get_middle_num_adc  my_board.o
    0x0800246a   0x0800246a   0x0000000c   Code   RO          376    i.main              my_board.o
    0x08002476   0x08002476   0x00000002   PAD
    0x08002478   0x08002478   0x00000148   Code   RO            4    i.main_circle_func  main.o
    0x080025c0   0x080025c0   0x000003f4   Code   RO          377    i.my_adc_init       my_board.o
    0x080029b4   0x080029b4   0x000000e4   Code   RO            5    i.my_board_init     main.o
    0x08002a98   0x08002a98   0x00000754   Code   RO          378    i.my_pwm_init       my_board.o
    0x080031ec   0x080031ec   0x0000008c   Code   RO          428    i.my_pwm_update     my_board.o
    0x08003278   0x08003278   0x00000080   Code   RO          379    i.my_system_config  my_board.o
    0x080032f8   0x080032f8   0x00000016   Code   RO          574    i.oled_pow          oled.o
    0x0800330e   0x0800330e   0x00000818   Data   RO          575    .constdata          oled.o
    0x08003b26   0x08003b26   0x00000002   PAD
    0x08003b28   0x08003b28   0x00000410   Data   RO         5200    .constdata          arm_cortexM4lf_math.lib(arm_cos_f32.o)
    0x08003f38   0x08003f38   0x0000040c   Data   RO         5222    .constdata          arm_cortexM4lf_math.lib(arm_sin_f32.o)
    0x08004344   0x08004344   0x00000020   Data   RO         5291    Region$$Table       anon$$obj.o


    Execution Region RW_IRAM1 (Exec base: 0x20000000, Load base: 0x08004364, Size: 0x000011e8, Max: 0x00002800, ABSOLUTE)

    Exec Addr    Load Addr    Size         Type   Attr      Idx    E Section Name        Object

    0x20000000   0x08004364   0x00000036   Data   RW            7    .data               main.o
    0x20000036   0x0800439a   0x00000002   PAD
    0x20000038   0x0800439c   0x00000019   Data   RW          272    .data               system_stm32f30x.o
    0x20000051   0x080043b5   0x00000003   PAD
    0x20000054   0x080043b8   0x00000008   Data   RW          381    .data               my_board.o
    0x2000005c        -       0x00000138   Zero   RW            6    .bss                main.o
    0x20000194        -       0x00000050   Zero   RW          380    .bss                my_board.o
    0x200001e4   0x080043c0   0x00000004   PAD
    0x200001e8        -       0x00001000   Zero   RW         5067    STACK               startup_stm32f334x8.o


==============================================================================

Image component sizes


      Code (inc. data)   RO Data    RW Data    ZI Data      Debug   Object Name

       124          6          0          0          0        559   dr_led.o
       196         12          0          0          0       1158   key.o
       932        168          0         54        312     352917   main.o
      3234         94          0          8         80      33203   my_board.o
      1400         32       2072          0          0      10215   oled.o
       204          6          0          0          0       2179   pid_yyds.o
      1042         18          0          0          0      15594   power_meas_sine_analyzer.o
       836         16          0          0          0       3100   spll_1ph_sogi.o
        36          8        392          0       4096        828   startup_stm32f334x8.o
       658         36          0          0          0       8321   stm32f30x_adc.o
       442          8          0          0          0       3883   stm32f30x_dma.o
       246          0          0          0          0       3451   stm32f30x_gpio.o
      1412         24          0          0          0      13128   stm32f30x_hrtim.o
       112         12          0          0          0       1020   stm32f30x_misc.o
       172         28          0          0          0       2798   stm32f30x_rcc.o
        34          0          0          0          0       4577   stm32f3xx_it.o
       376         38          0         25          0       2763   system_stm32f30x.o

    ----------------------------------------------------------------------
     11478        506       2498         92       4492     459694   Object Totals
         0          0         32          0          0          0   (incl. Generated)
        22          0          2          5          4          0   (incl. Padding)

    ----------------------------------------------------------------------

      Code (inc. data)   RO Data    RW Data    ZI Data      Debug   Library Member Name

        86          0          0          0          0      15830   arm_abs_f32.o
       216         22       1040          0          0       1382   arm_cos_f32.o
       216         22       1036          0          0       1382   arm_sin_f32.o
         0          0          0          0          0          0   entry.o
         0          0          0          0          0          0   entry10a.o
         0          0          0          0          0          0   entry11a.o
         4          0          0          0          0          0   entry12b.o
         8          4          0          0          0          0   entry2.o
         4          0          0          0          0          0   entry5.o
         0          0          0          0          0          0   entry7b.o
         0          0          0          0          0          0   entry8b.o
         8          4          0          0          0          0   entry9a.o
        30          0          0          0          0          0   handlers.o
        36          8          0          0          0         68   init.o
         0          0          0          0          0          0   iusefp.o
        30          0          0          0          0         68   llshl.o
        32          0          0          0          0         68   llushr.o
        36          0          0          0          0        108   memseta.o
       186          0          0          0          0        176   depilogue.o
        50          0          0          0          0         76   dfixui.o
        26          0          0          0          0         76   dfltui.o
       228          0          0          0          0         96   dmul.o

    ----------------------------------------------------------------------
      1200         60       2076          0          0      19330   Library Totals
         4          0          0          0          0          0   (incl. Padding)

    ----------------------------------------------------------------------

      Code (inc. data)   RO Data    RW Data    ZI Data      Debug   Library Name

       518         44       2076          0          0      18594   arm_cortexM4lf_math.lib
       188         16          0          0          0        312   mc_w.l
       490          0          0          0          0        424   mf_w.l

    ----------------------------------------------------------------------
      1200         60       2076          0          0      19330   Library Totals

    ----------------------------------------------------------------------

==============================================================================


      Code (inc. data)   RO Data    RW Data    ZI Data      Debug   

     12678        566       4574         92       4492     470016   Grand Totals
     12678        566       4574         92       4492     470016   ELF Image Totals
     12678        566       4574         92          0          0   ROM Totals

==============================================================================

    Total RO  Size (Code + RO Data)                17252 (  16.85kB)
    Total RW  Size (RW Data + ZI Data)              4584 (   4.48kB)
    Total ROM Size (Code + RO Data + RW Data)      17344 (  16.94kB)

==============================================================================

