Component: ARM Compiler 5.06 update 7 (build 960) Tool: armlink [4d3601]

==============================================================================

Section Cross References

    main.o(i.HRTIM1_Master_IRQHandler) refers to my_board.o(i.PWM_ClearITPendingBit) for PWM_ClearITPendingBit
    main.o(i.HRTIM1_Master_IRQHandler) refers to my_board.o(i.get_middle_num_adc) for get_middle_num_adc
    main.o(i.HRTIM1_Master_IRQHandler) refers to key_elab.o(i.INV_KEY_step) for INV_KEY_step
    main.o(i.HRTIM1_Master_IRQHandler) refers to elab_subsystem.o(i.INV_ELAB_step) for INV_ELAB_step
    main.o(i.HRTIM1_Master_IRQHandler) refers to my_board.o(i.my_pwm_update) for my_pwm_update
    main.o(i.HRTIM1_Master_IRQHandler) refers to key_elab.o(.bss) for rtY_INV_KEY
    main.o(i.HRTIM1_Master_IRQHandler) refers to elab_subsystem.o(.bss) for rtU_INV_ELAB
    main.o(i.HRTIM1_Master_IRQHandler) refers to my_board.o(.bss) for adc_sample_buff
    main.o(i.main_circle_func) refers to system_stm32f30x.o(i.delay_ms) for delay_ms
    main.o(i.main_circle_func) refers to key.o(i.KEY_Scan) for KEY_Scan
    main.o(i.main_circle_func) refers to oled.o(i.OLED_ShowNumf) for OLED_ShowNumf
    main.o(i.main_circle_func) refers to dr_led.o(i.led1_on) for led1_on
    main.o(i.main_circle_func) refers to dr_led.o(i.led1_off) for led1_off
    main.o(i.main_circle_func) refers to dr_led.o(i.led2_on) for led2_on
    main.o(i.main_circle_func) refers to dr_led.o(i.led2_off) for led2_off
    main.o(i.main_circle_func) refers to dr_led.o(i.led3_on) for led3_on
    main.o(i.main_circle_func) refers to dr_led.o(i.led3_off) for led3_off
    main.o(i.main_circle_func) refers to main.o(.data) for KEY_NUM
==============================================================================

Removing Unused input sections from the image.

    Removing main.o(.rev16_text), (4 bytes).
    Removing main.o(.revsh_text), (4 bytes).
    Removing main.o(.bss), (24 bytes).
    Removing stm32f3xx_it.o(.rev16_text), (4 bytes).
    Removing stm32f3xx_it.o(.revsh_text), (4 bytes).
    Removing system_stm32f30x.o(.rev16_text), (4 bytes).
    Removing system_stm32f30x.o(.revsh_text), (4 bytes).
    Removing system_stm32f30x.o(i.SystemCoreClockUpdate), (160 bytes).
    Removing system_stm32f30x.o(i.delay_us), (24 bytes).
    Removing my_board.o(.rev16_text), (4 bytes).
    Removing my_board.o(.revsh_text), (4 bytes).
    Removing my_board.o(i.Dac1_Init), (92 bytes).
    Removing my_board.o(i.arm_abs_f32_get), (24 bytes).
    Removing my_board.o(i.arm_sqrt_f32_get), (52 bytes).
    Removing pid_yyds.o(i.IncPIDCal), (130 bytes).
    Removing pid_yyds.o(i.PI_Init), (18 bytes).
    Removing pid_yyds.o(i.PI_clc), (56 bytes).
    Removing svpwm_ctr.o(.rev16_text), (4 bytes).
==============================================================================

Image Symbol Table

    Local Symbols

    Symbol Name                              Value     Ov Type        Size  Object(Section)

    ../clib/microlib/errno.c                 0x00000000   Number         0  errno.o ABSOLUTE
    ../clib/microlib/init/entry.s            0x00000000   Number         0  entry2.o ABSOLUTE
    ../clib/microlib/init/entry.s            0x00000000   Number         0  entry.o ABSOLUTE
    ../clib/microlib/init/entry.s            0x00000000   Number         0  entry11a.o ABSOLUTE
    ../clib/microlib/init/entry.s            0x00000000   Number         0  entry5.o ABSOLUTE
    ../clib/microlib/init/entry.s            0x00000000   Number         0  entry7a.o ABSOLUTE
    ../clib/microlib/init/entry.s            0x00000000   Number         0  entry12b.o ABSOLUTE
    ../clib/microlib/init/entry.s            0x00000000   Number         0  entry12a.o ABSOLUTE
    ../clib/microlib/init/entry.s            0x00000000   Number         0  entry7b.o ABSOLUTE
    ../clib/microlib/init/entry.s            0x00000000   Number         0  entry8a.o ABSOLUTE
    ../clib/microlib/init/entry.s            0x00000000   Number         0  entry8b.o ABSOLUTE
    ../clib/microlib/init/entry.s            0x00000000   Number         0  entry9a.o ABSOLUTE
    ../clib/microlib/init/entry.s            0x00000000   Number         0  entry9b.o ABSOLUTE
    ../clib/microlib/init/entry.s            0x00000000   Number         0  entry10a.o ABSOLUTE
    ../clib/microlib/init/entry.s            0x00000000   Number         0  entry11b.o ABSOLUTE
    ../clib/microlib/init/entry.s            0x00000000   Number         0  entry10b.o ABSOLUTE
    ../clib/microlib/longlong.c              0x00000000   Number         0  llshl.o ABSOLUTE
    ../clib/microlib/longlong.c              0x00000000   Number         0  llushr.o ABSOLUTE
    ../clib/microlib/longlong.c              0x00000000   Number         0  llsshr.o ABSOLUTE
    ../clib/microlib/string/memset.c         0x00000000   Number         0  memseta.o ABSOLUTE
    ../clib/microlib/stubs.s                 0x00000000   Number         0  iusefp.o ABSOLUTE
    ../fplib/microlib/d2f.c                  0x00000000   Number         0  d2f.o ABSOLUTE
    ../fplib/microlib/f2d.c                  0x00000000   Number         0  f2d.o ABSOLUTE
    ../fplib/microlib/fpadd.c                0x00000000   Number         0  dadd.o ABSOLUTE
    ../fplib/microlib/fpdiv.c                0x00000000   Number         0  ddiv.o ABSOLUTE
    ../fplib/microlib/fpepilogue.c           0x00000000   Number         0  depilogue.o ABSOLUTE
    ../fplib/microlib/fpepilogue.c           0x00000000   Number         0  fepilogue.o ABSOLUTE
    ../fplib/microlib/fpfix.c                0x00000000   Number         0  dfixi.o ABSOLUTE
    ../fplib/microlib/fpfix.c                0x00000000   Number         0  dfixui.o ABSOLUTE
    ../fplib/microlib/fpflt.c                0x00000000   Number         0  dfltui.o ABSOLUTE
    ../fplib/microlib/fpflt.c                0x00000000   Number         0  dflti.o ABSOLUTE
    ../fplib/microlib/fpmul.c                0x00000000   Number         0  dmul.o ABSOLUTE
    ../fplib/microlib/fpneg.c                0x00000000   Number         0  dneg.o ABSOLUTE
    ../mathlib/cos_i.c                       0x00000000   Number         0  cos_i.o ABSOLUTE
    ../mathlib/dunder.c                      0x00000000   Number         0  dunder.o ABSOLUTE
    ../mathlib/fabs.c                        0x00000000   Number         0  fabs.o ABSOLUTE
    ../mathlib/fabsf.c                       0x00000000   Number         0  fabsfc99.o ABSOLUTE
    ../mathlib/fpclassify.c                  0x00000000   Number         0  fpclassify.o ABSOLUTE
    ../mathlib/poly.c                        0x00000000   Number         0  poly.o ABSOLUTE
    ../mathlib/rred.c                        0x00000000   Number         0  rred.o ABSOLUTE
    ../mathlib/sin.c                         0x00000000   Number         0  sin.o ABSOLUTE
    ../mathlib/sin.c                         0x00000000   Number         0  sin_x.o ABSOLUTE
    ../mathlib/sin_i.c                       0x00000000   Number         0  sin_i_x.o ABSOLUTE
    ../mathlib/sin_i.c                       0x00000000   Number         0  sin_i.o ABSOLUTE
    ../mathlib/sqrtf.c                       0x00000000   Number         0  sqrtf.o ABSOLUTE
    ../mathlib/sqrtf.c                       0x00000000   Number         0  sqrtf_x.o ABSOLUTE
    ..\BasicMathFunctions\arm_abs_f32.c      0x00000000   Number         0  arm_abs_f32.o ABSOLUTE
    ..\FastMathFunctions\arm_cos_f32.c       0x00000000   Number         0  arm_cos_f32.o ABSOLUTE
    ..\FastMathFunctions\arm_sin_f32.c       0x00000000   Number         0  arm_sin_f32.o ABSOLUTE
    ..\\BasicMathFunctions\\arm_abs_f32.c    0x00000000   Number         0  arm_abs_f32.o ABSOLUTE
    ..\\FastMathFunctions\\arm_cos_f32.c     0x00000000   Number         0  arm_cos_f32.o ABSOLUTE
    ..\\FastMathFunctions\\arm_sin_f32.c     0x00000000   Number         0  arm_sin_f32.o ABSOLUTE
    ..\\api\\OLED\\oled.c                    0x00000000   Number         0  oled.o ABSOLUTE
    ..\\cntl_lib_yyds\\SVPWM_CTR.c           0x00000000   Number         0  svpwm_ctr.o ABSOLUTE
    ..\\cntl_lib_yyds\\my_board.c            0x00000000   Number         0  my_board.o ABSOLUTE
    ..\\driver\\dr_led.c                     0x00000000   Number         0  dr_led.o ABSOLUTE
    ..\\driver\\key.c                        0x00000000   Number         0  key.o ABSOLUTE
    ..\\fwlib\\src\\stm32f30x_adc.c          0x00000000   Number         0  stm32f30x_adc.o ABSOLUTE
    ..\\fwlib\\src\\stm32f30x_can.c          0x00000000   Number         0  stm32f30x_can.o ABSOLUTE
    ..\\fwlib\\src\\stm32f30x_comp.c         0x00000000   Number         0  stm32f30x_comp.o ABSOLUTE
    ..\\fwlib\\src\\stm32f30x_crc.c          0x00000000   Number         0  stm32f30x_crc.o ABSOLUTE
    ..\\fwlib\\src\\stm32f30x_dac.c          0x00000000   Number         0  stm32f30x_dac.o ABSOLUTE
    ..\\fwlib\\src\\stm32f30x_dbgmcu.c       0x00000000   Number         0  stm32f30x_dbgmcu.o ABSOLUTE
    ..\\fwlib\\src\\stm32f30x_dma.c          0x00000000   Number         0  stm32f30x_dma.o ABSOLUTE
    ..\\fwlib\\src\\stm32f30x_exti.c         0x00000000   Number         0  stm32f30x_exti.o ABSOLUTE
    ..\\fwlib\\src\\stm32f30x_flash.c        0x00000000   Number         0  stm32f30x_flash.o ABSOLUTE
    ..\\fwlib\\src\\stm32f30x_gpio.c         0x00000000   Number         0  stm32f30x_gpio.o ABSOLUTE
    ..\\fwlib\\src\\stm32f30x_hrtim.c        0x00000000   Number         0  stm32f30x_hrtim.o ABSOLUTE
    ..\\fwlib\\src\\stm32f30x_i2c.c          0x00000000   Number         0  stm32f30x_i2c.o ABSOLUTE
    ..\\fwlib\\src\\stm32f30x_iwdg.c         0x00000000   Number         0  stm32f30x_iwdg.o ABSOLUTE
    ..\\fwlib\\src\\stm32f30x_misc.c         0x00000000   Number         0  stm32f30x_misc.o ABSOLUTE
    ..\\fwlib\\src\\stm32f30x_opamp.c        0x00000000   Number         0  stm32f30x_opamp.o ABSOLUTE
    ..\\fwlib\\src\\stm32f30x_pwr.c          0x00000000   Number         0  stm32f30x_pwr.o ABSOLUTE
    ..\\fwlib\\src\\stm32f30x_rcc.c          0x00000000   Number         0  stm32f30x_rcc.o ABSOLUTE
    ..\\fwlib\\src\\stm32f30x_rtc.c          0x00000000   Number         0  stm32f30x_rtc.o ABSOLUTE
    ..\\fwlib\\src\\stm32f30x_spi.c          0x00000000   Number         0  stm32f30x_spi.o ABSOLUTE
    ..\\fwlib\\src\\stm32f30x_syscfg.c       0x00000000   Number         0  stm32f30x_syscfg.o ABSOLUTE
    ..\\fwlib\\src\\stm32f30x_tim.c          0x00000000   Number         0  stm32f30x_tim.o ABSOLUTE
    ..\\fwlib\\src\\stm32f30x_usart.c        0x00000000   Number         0  stm32f30x_usart.o ABSOLUTE
    ..\\fwlib\\src\\stm32f30x_wwdg.c         0x00000000   Number         0  stm32f30x_wwdg.o ABSOLUTE
    ..\\main\\main.c                         0x00000000   Number         0  main.o ABSOLUTE
    ..\\main\\stm32f3xx_it.c                 0x00000000   Number         0  stm32f3xx_it.o ABSOLUTE
    ..\\main\\system_stm32f30x.c             0x00000000   Number         0  system_stm32f30x.o ABSOLUTE
    ..\\measure\\power_meas_sine_analyzer.c  0x00000000   Number         0  power_meas_sine_analyzer.o ABSOLUTE
    ..\\measure\\spll_1ph_sogi.c             0x00000000   Number         0  spll_1ph_sogi.o ABSOLUTE
    ..\api\OLED\oled.c                       0x00000000   Number         0  oled.o ABSOLUTE
    ..\cm4_core\startup_stm32f334x8.s        0x00000000   Number         0  startup_stm32f334x8.o ABSOLUTE
    ..\cntl_lib_yyds\SVPWM_CTR.c             0x00000000   Number         0  svpwm_ctr.o ABSOLUTE
    ..\cntl_lib_yyds\my_board.c              0x00000000   Number         0  my_board.o ABSOLUTE
    ..\cntl_lib_yyds\pid_yyds.c              0x00000000   Number         0  pid_yyds.o ABSOLUTE
    ..\driver\dr_led.c                       0x00000000   Number         0  dr_led.o ABSOLUTE
    ..\driver\key.c                          0x00000000   Number         0  key.o ABSOLUTE
    ..\fwlib\src\stm32f30x_adc.c             0x00000000   Number         0  stm32f30x_adc.o ABSOLUTE
    ..\fwlib\src\stm32f30x_can.c             0x00000000   Number         0  stm32f30x_can.o ABSOLUTE
    ..\fwlib\src\stm32f30x_comp.c            0x00000000   Number         0  stm32f30x_comp.o ABSOLUTE
    ..\fwlib\src\stm32f30x_crc.c             0x00000000   Number         0  stm32f30x_crc.o ABSOLUTE
    ..\fwlib\src\stm32f30x_dac.c             0x00000000   Number         0  stm32f30x_dac.o ABSOLUTE
    ..\fwlib\src\stm32f30x_dbgmcu.c          0x00000000   Number         0  stm32f30x_dbgmcu.o ABSOLUTE
    ..\fwlib\src\stm32f30x_dma.c             0x00000000   Number         0  stm32f30x_dma.o ABSOLUTE
    ..\fwlib\src\stm32f30x_exti.c            0x00000000   Number         0  stm32f30x_exti.o ABSOLUTE
    ..\fwlib\src\stm32f30x_flash.c           0x00000000   Number         0  stm32f30x_flash.o ABSOLUTE
    ..\fwlib\src\stm32f30x_gpio.c            0x00000000   Number         0  stm32f30x_gpio.o ABSOLUTE
    ..\fwlib\src\stm32f30x_hrtim.c           0x00000000   Number         0  stm32f30x_hrtim.o ABSOLUTE
    ..\fwlib\src\stm32f30x_i2c.c             0x00000000   Number         0  stm32f30x_i2c.o ABSOLUTE
    ..\fwlib\src\stm32f30x_iwdg.c            0x00000000   Number         0  stm32f30x_iwdg.o ABSOLUTE
    ..\fwlib\src\stm32f30x_misc.c            0x00000000   Number         0  stm32f30x_misc.o ABSOLUTE
    ..\fwlib\src\stm32f30x_opamp.c           0x00000000   Number         0  stm32f30x_opamp.o ABSOLUTE
    ..\fwlib\src\stm32f30x_pwr.c             0x00000000   Number         0  stm32f30x_pwr.o ABSOLUTE
    ..\fwlib\src\stm32f30x_rcc.c             0x00000000   Number         0  stm32f30x_rcc.o ABSOLUTE
    ..\fwlib\src\stm32f30x_rtc.c             0x00000000   Number         0  stm32f30x_rtc.o ABSOLUTE
    ..\fwlib\src\stm32f30x_spi.c             0x00000000   Number         0  stm32f30x_spi.o ABSOLUTE
    ..\fwlib\src\stm32f30x_syscfg.c          0x00000000   Number         0  stm32f30x_syscfg.o ABSOLUTE
    ..\fwlib\src\stm32f30x_tim.c             0x00000000   Number         0  stm32f30x_tim.o ABSOLUTE
    ..\fwlib\src\stm32f30x_usart.c           0x00000000   Number         0  stm32f30x_usart.o ABSOLUTE
    ..\fwlib\src\stm32f30x_wwdg.c            0x00000000   Number         0  stm32f30x_wwdg.o ABSOLUTE
    ..\main\ELAB_subsystem.c                 0x00000000   Number         0  elab_subsystem.o ABSOLUTE
    ..\main\KEY_ELAB.c                       0x00000000   Number         0  key_elab.o ABSOLUTE
    ..\main\main.c                           0x00000000   Number         0  main.o ABSOLUTE
    ..\main\stm32f3xx_it.c                   0x00000000   Number         0  stm32f3xx_it.o ABSOLUTE
    ..\main\system_stm32f30x.c               0x00000000   Number         0  system_stm32f30x.o ABSOLUTE
    ..\measure\power_meas_sine_analyzer.c    0x00000000   Number         0  power_meas_sine_analyzer.o ABSOLUTE
    ..\measure\spll_1ph_sogi.c               0x00000000   Number         0  spll_1ph_sogi.o ABSOLUTE
    dc.s                                     0x00000000   Number         0  dc.o ABSOLUTE
    handlers.s                               0x00000000   Number         0  handlers.o ABSOLUTE
    init.s                                   0x00000000   Number         0  init.o ABSOLUTE
    RESET                                    0x08000000   Section      392  startup_stm32f334x8.o(RESET)
    .ARM.Collect$$$$00000000                 0x08000188   Section        0  entry.o(.ARM.Collect$$$$00000000)
    .ARM.Collect$$$$00000001                 0x08000188   Section        4  entry2.o(.ARM.Collect$$$$00000001)
    .ARM.Collect$$$$00000004                 0x0800018c   Section        4  entry5.o(.ARM.Collect$$$$00000004)
    .ARM.Collect$$$$00000008                 0x08000190   Section        0  entry7b.o(.ARM.Collect$$$$00000008)
    .ARM.Collect$$$$0000000A                 0x08000190   Section        0  entry8b.o(.ARM.Collect$$$$0000000A)
    .ARM.Collect$$$$0000000B                 0x08000190   Section        8  entry9a.o(.ARM.Collect$$$$0000000B)
    .ARM.Collect$$$$0000000E                 0x08000198   Section        4  entry12b.o(.ARM.Collect$$$$0000000E)
    .ARM.Collect$$$$0000000F                 0x0800019c   Section        0  entry10a.o(.ARM.Collect$$$$0000000F)
    .ARM.Collect$$$$00000011                 0x0800019c   Section        0  entry11a.o(.ARM.Collect$$$$00000011)
    .ARM.Collect$$$$00002712                 0x0800019c   Section        4  entry2.o(.ARM.Collect$$$$00002712)
    __lit__00000000                          0x0800019c   Data           4  entry2.o(.ARM.Collect$$$$00002712)
    .text                                    0x080001a0   Section       36  startup_stm32f334x8.o(.text)
    $v0                                      0x080001a0   Number         0  startup_stm32f334x8.o(.text)
    .text                                    0x080001c4   Section        0  memseta.o(.text)
    .text                                    0x080001e8   Section        0  dadd.o(.text)
    .text                                    0x08000336   Section        0  dmul.o(.text)
    .text                                    0x0800041a   Section        0  ddiv.o(.text)
    .text                                    0x080004f8   Section        0  dflti.o(.text)
    .text                                    0x0800051a   Section        0  dfltui.o(.text)
    .text                                    0x08000534   Section        0  dfixui.o(.text)
    .text                                    0x08000566   Section        0  f2d.o(.text)
    .text                                    0x0800058c   Section        0  d2f.o(.text)
    .text                                    0x080005c4   Section        0  llshl.o(.text)
    .text                                    0x080005e2   Section        0  llushr.o(.text)
    .text                                    0x08000602   Section        0  llsshr.o(.text)
    .text                                    0x08000626   Section        0  fepilogue.o(.text)
    .text                                    0x08000626   Section        0  iusefp.o(.text)
    .text                                    0x08000694   Section        0  depilogue.o(.text)
    .text                                    0x08000750   Section       36  init.o(.text)
    .text                                    0x08000774   Section        0  dfixi.o(.text)
    i.ADC_Cmd                                0x080007b2   Section        0  stm32f30x_adc.o(i.ADC_Cmd)
    i.ADC_CommonInit                         0x080007c8   Section        0  stm32f30x_adc.o(i.ADC_CommonInit)
    i.ADC_DMACmd                             0x0800082c   Section        0  stm32f30x_adc.o(i.ADC_DMACmd)
    i.ADC_DMAConfig                          0x08000842   Section        0  stm32f30x_adc.o(i.ADC_DMAConfig)
    i.ADC_DeInit                             0x08000854   Section        0  stm32f30x_adc.o(i.ADC_DeInit)
    i.ADC_GetCalibrationStatus               0x080008a4   Section        0  stm32f30x_adc.o(i.ADC_GetCalibrationStatus)
    i.ADC_GetFlagStatus                      0x080008b8   Section        0  stm32f30x_adc.o(i.ADC_GetFlagStatus)
    i.ADC_Init                               0x080008cc   Section        0  stm32f30x_adc.o(i.ADC_Init)
    i.ADC_RegularChannelConfig               0x0800090c   Section        0  stm32f30x_adc.o(i.ADC_RegularChannelConfig)
    i.ADC_SelectCalibrationMode              0x08000a06   Section        0  stm32f30x_adc.o(i.ADC_SelectCalibrationMode)
    i.ADC_StartCalibration                   0x08000a16   Section        0  stm32f30x_adc.o(i.ADC_StartCalibration)
    i.ADC_StartConversion                    0x08000a20   Section        0  stm32f30x_adc.o(i.ADC_StartConversion)
    i.ADC_VoltageRegulatorCmd                0x08000a2a   Section        0  stm32f30x_adc.o(i.ADC_VoltageRegulatorCmd)
    i.BusFault_Handler                       0x08000a48   Section        0  stm32f3xx_it.o(i.BusFault_Handler)
    i.DMA_Cmd                                0x08000a4c   Section        0  stm32f30x_dma.o(i.DMA_Cmd)
    i.DMA_DeInit                             0x08000a64   Section        0  stm32f30x_dma.o(i.DMA_DeInit)
    i.DMA_Init                               0x08000bb0   Section        0  stm32f30x_dma.o(i.DMA_Init)
    i.DMA_StructInit                         0x08000bec   Section        0  stm32f30x_dma.o(i.DMA_StructInit)
    i.DebugMon_Handler                       0x08000c06   Section        0  stm32f3xx_it.o(i.DebugMon_Handler)
    i.EXTI0_IRQHandler                       0x08000c08   Section        0  stm32f3xx_it.o(i.EXTI0_IRQHandler)
    i.GPIO_Init                              0x08000c0a   Section        0  stm32f30x_gpio.o(i.GPIO_Init)
    i.GPIO_PinAFConfig                       0x08000ca0   Section        0  stm32f30x_gpio.o(i.GPIO_PinAFConfig)
    i.GPIO_ReadInputDataBit                  0x08000ce6   Section        0  stm32f30x_gpio.o(i.GPIO_ReadInputDataBit)
    i.GPIO_ResetBits                         0x08000cf8   Section        0  stm32f30x_gpio.o(i.GPIO_ResetBits)
    i.GPIO_SetBits                           0x08000cfc   Section        0  stm32f30x_gpio.o(i.GPIO_SetBits)
    i.HRTIM1_Master_IRQHandler               0x08000d00   Section        0  main.o(i.HRTIM1_Master_IRQHandler)
    i.HRTIM_ADCTriggerConfig                 0x08000e2c   Section        0  stm32f30x_hrtim.o(i.HRTIM_ADCTriggerConfig)
    i.HRTIM_ClearITPendingBit                0x08000e9e   Section        0  stm32f30x_hrtim.o(i.HRTIM_ClearITPendingBit)
    i.HRTIM_DLLCalibrationStart              0x08000edc   Section        0  stm32f30x_hrtim.o(i.HRTIM_DLLCalibrationStart)
    i.HRTIM_DeadTimeConfig                   0x08000f04   Section        0  stm32f30x_hrtim.o(i.HRTIM_DeadTimeConfig)
    i.HRTIM_GetCommonFlagStatus              0x08000f50   Section        0  stm32f30x_hrtim.o(i.HRTIM_GetCommonFlagStatus)
    i.HRTIM_ITConfig                         0x08000f66   Section        0  stm32f30x_hrtim.o(i.HRTIM_ITConfig)
    i.HRTIM_MasterBase_Config                0x08000fc8   Section        0  stm32f30x_hrtim.o(i.HRTIM_MasterBase_Config)
    HRTIM_MasterBase_Config                  0x08000fc9   Thumb Code    42  stm32f30x_hrtim.o(i.HRTIM_MasterBase_Config)
    i.HRTIM_MasterSetCompare                 0x08000ff2   Section        0  stm32f30x_hrtim.o(i.HRTIM_MasterSetCompare)
    i.HRTIM_MasterWaveform_Config            0x0800101a   Section        0  stm32f30x_hrtim.o(i.HRTIM_MasterWaveform_Config)
    HRTIM_MasterWaveform_Config              0x0800101b   Thumb Code    88  stm32f30x_hrtim.o(i.HRTIM_MasterWaveform_Config)
    i.HRTIM_OutputConfig                     0x08001072   Section        0  stm32f30x_hrtim.o(i.HRTIM_OutputConfig)
    HRTIM_OutputConfig                       0x08001073   Thumb Code   202  stm32f30x_hrtim.o(i.HRTIM_OutputConfig)
    i.HRTIM_SlaveSetCompare                  0x0800113c   Section        0  stm32f30x_hrtim.o(i.HRTIM_SlaveSetCompare)
    i.HRTIM_TimingUnitBase_Config            0x08001186   Section        0  stm32f30x_hrtim.o(i.HRTIM_TimingUnitBase_Config)
    HRTIM_TimingUnitBase_Config              0x08001187   Thumb Code   124  stm32f30x_hrtim.o(i.HRTIM_TimingUnitBase_Config)
    i.HRTIM_TimingUnitWaveform_Config        0x08001202   Section        0  stm32f30x_hrtim.o(i.HRTIM_TimingUnitWaveform_Config)
    HRTIM_TimingUnitWaveform_Config          0x08001203   Thumb Code   182  stm32f30x_hrtim.o(i.HRTIM_TimingUnitWaveform_Config)
    i.HRTIM_WaveformCounterStart             0x080012b8   Section        0  stm32f30x_hrtim.o(i.HRTIM_WaveformCounterStart)
    i.HRTIM_WaveformOutputConfig             0x080012c0   Section        0  stm32f30x_hrtim.o(i.HRTIM_WaveformOutputConfig)
    i.HRTIM_WaveformOutputStart              0x080012dc   Section        0  stm32f30x_hrtim.o(i.HRTIM_WaveformOutputStart)
    i.HRTIM_WaveformTimerConfig              0x080012e4   Section        0  stm32f30x_hrtim.o(i.HRTIM_WaveformTimerConfig)
    i.HRTIM_Waveform_Init                    0x08001376   Section        0  stm32f30x_hrtim.o(i.HRTIM_Waveform_Init)
    i.HardFault_Handler                      0x080013b0   Section        0  stm32f3xx_it.o(i.HardFault_Handler)
    i.IIC_Start                              0x080013b4   Section        0  oled.o(i.IIC_Start)
    i.IIC_Stop                               0x080013e4   Section        0  oled.o(i.IIC_Stop)
    i.IIC_Wait_Ack                           0x0800140c   Section        0  oled.o(i.IIC_Wait_Ack)
    i.INV_ELAB_initialize                    0x08001428   Section        0  elab_subsystem.o(i.INV_ELAB_initialize)
    i.INV_ELAB_step                          0x0800142c   Section        0  elab_subsystem.o(i.INV_ELAB_step)
    i.INV_KEY_initialize                     0x08001714   Section        0  key_elab.o(i.INV_KEY_initialize)
    i.INV_KEY_step                           0x08001716   Section        0  key_elab.o(i.INV_KEY_step)
    i.KEY_Init                               0x08001718   Section        0  key.o(i.KEY_Init)
    i.KEY_Scan                               0x0800177c   Section        0  key.o(i.KEY_Scan)
    i.LED_Init                               0x080017dc   Section        0  dr_led.o(i.LED_Init)
    i.MemManage_Handler                      0x08001858   Section        0  stm32f3xx_it.o(i.MemManage_Handler)
    i.NMI_Handler                            0x0800185c   Section        0  stm32f3xx_it.o(i.NMI_Handler)
    i.NVIC_Init                              0x08001860   Section        0  stm32f30x_misc.o(i.NVIC_Init)
    i.OLED_Clear                             0x080018d0   Section        0  oled.o(i.OLED_Clear)
    i.OLED_Init                              0x08001910   Section        0  oled.o(i.OLED_Init)
    i.OLED_Set_Pos                           0x08001a28   Section        0  oled.o(i.OLED_Set_Pos)
    i.OLED_ShowChar                          0x08001a50   Section        0  oled.o(i.OLED_ShowChar)
    i.OLED_ShowNum                           0x08001af4   Section        0  oled.o(i.OLED_ShowNum)
    i.OLED_ShowNum_0                         0x08001b80   Section        0  oled.o(i.OLED_ShowNum_0)
    i.OLED_ShowNumf                          0x08001c08   Section        0  oled.o(i.OLED_ShowNumf)
    i.OLED_WR_Byte                           0x08001cf4   Section        0  oled.o(i.OLED_WR_Byte)
    i.PWM_ClearITPendingBit                  0x08001d0c   Section        0  my_board.o(i.PWM_ClearITPendingBit)
    i.PendSV_Handler                         0x08001d20   Section        0  stm32f3xx_it.o(i.PendSV_Handler)
    i.RCC_ADCCLKConfig                       0x08001d24   Section        0  stm32f30x_rcc.o(i.RCC_ADCCLKConfig)
    i.RCC_AHBPeriphClockCmd                  0x08001d54   Section        0  stm32f30x_rcc.o(i.RCC_AHBPeriphClockCmd)
    i.RCC_AHBPeriphResetCmd                  0x08001d74   Section        0  stm32f30x_rcc.o(i.RCC_AHBPeriphResetCmd)
    i.RCC_APB2PeriphClockCmd                 0x08001d94   Section        0  stm32f30x_rcc.o(i.RCC_APB2PeriphClockCmd)
    i.RCC_HRTIM1CLKConfig                    0x08001db4   Section        0  stm32f30x_rcc.o(i.RCC_HRTIM1CLKConfig)
    i.SVC_Handler                            0x08001dd0   Section        0  stm32f3xx_it.o(i.SVC_Handler)
    i.SetSysClock                            0x08001dd4   Section        0  system_stm32f30x.o(i.SetSysClock)
    SetSysClock                              0x08001dd5   Thumb Code   188  system_stm32f30x.o(i.SetSysClock)
    i.SysTick_Handler                        0x08001e98   Section        0  stm32f3xx_it.o(i.SysTick_Handler)
    i.SystemInit                             0x08001ea0   Section        0  system_stm32f30x.o(i.SystemInit)
    i.TimingDelay_Decrement                  0x08001f24   Section        0  system_stm32f30x.o(i.TimingDelay_Decrement)
    i.UsageFault_Handler                     0x08001f3c   Section        0  stm32f3xx_it.o(i.UsageFault_Handler)
    i.Write_IIC_Byte                         0x08001f40   Section        0  oled.o(i.Write_IIC_Byte)
    i.Write_IIC_Command                      0x08001f9c   Section        0  oled.o(i.Write_IIC_Command)
    i.Write_IIC_Data                         0x08001fc8   Section        0  oled.o(i.Write_IIC_Data)
    i.__ARM_fpclassify                       0x08001ff4   Section        0  fpclassify.o(i.__ARM_fpclassify)
    i.__hardfp_sin                           0x08002028   Section        0  sin.o(i.__hardfp_sin)
    i.__ieee754_rem_pio2                     0x080020f0   Section        0  rred.o(i.__ieee754_rem_pio2)
    i.__kernel_cos                           0x08002528   Section        0  cos_i.o(i.__kernel_cos)
    i.__kernel_poly                          0x08002698   Section        0  poly.o(i.__kernel_poly)
    i.__kernel_sin                           0x08002790   Section        0  sin_i.o(i.__kernel_sin)
    i.__mathlib_dbl_infnan                   0x080028c0   Section        0  dunder.o(i.__mathlib_dbl_infnan)
    i.__mathlib_dbl_invalid                  0x080028d8   Section        0  dunder.o(i.__mathlib_dbl_invalid)
    i.__mathlib_dbl_underflow                0x080028f8   Section        0  dunder.o(i.__mathlib_dbl_underflow)
    i.__scatterload_copy                     0x08002918   Section       14  handlers.o(i.__scatterload_copy)
    i.__scatterload_null                     0x08002926   Section        2  handlers.o(i.__scatterload_null)
    i.__scatterload_zeroinit                 0x08002928   Section       14  handlers.o(i.__scatterload_zeroinit)
    i.__set_errno                            0x08002938   Section        0  errno.o(i.__set_errno)
    i.delay_ms                               0x08002944   Section        0  system_stm32f30x.o(i.delay_ms)
    i.fabs                                   0x0800295c   Section        0  fabs.o(i.fabs)
    i.get_middle_num_adc                     0x08002974   Section        0  my_board.o(i.get_middle_num_adc)
    i.led1_off                               0x080029a4   Section        0  dr_led.o(i.led1_off)
    i.led1_on                                0x080029b4   Section        0  dr_led.o(i.led1_on)
    i.led2_off                               0x080029c4   Section        0  dr_led.o(i.led2_off)
    i.led2_on                                0x080029d4   Section        0  dr_led.o(i.led2_on)
    i.led3_off                               0x080029e4   Section        0  dr_led.o(i.led3_off)
    i.led3_on                                0x080029f4   Section        0  dr_led.o(i.led3_on)
    i.main                                   0x08002a04   Section        0  my_board.o(i.main)
    i.main_circle_func                       0x08002a10   Section        0  main.o(i.main_circle_func)
    i.my_adc_init                            0x08002b40   Section        0  my_board.o(i.my_adc_init)
    i.my_board_init                          0x08002f34   Section        0  main.o(i.my_board_init)
    i.my_pwm_init                            0x08002f6c   Section        0  my_board.o(i.my_pwm_init)
    i.my_pwm_update                          0x080036c0   Section        0  my_board.o(i.my_pwm_update)
    i.my_system_config                       0x0800374c   Section        0  my_board.o(i.my_system_config)
    i.oled_pow                               0x080037cc   Section        0  oled.o(i.oled_pow)
    i.sin                                    0x080037e2   Section        0  sin.o(i.sin)
    i.sqrtf                                  0x080037f2   Section        0  sqrtf.o(i.sqrtf)
    .constdata                               0x08003830   Section     2072  oled.o(.constdata)
    .constdata                               0x08004048   Section       48  cos_i.o(.constdata)
    C                                        0x08004048   Data          48  cos_i.o(.constdata)
    .constdata                               0x08004078   Section      200  rred.o(.constdata)
    pio2s                                    0x08004078   Data          48  rred.o(.constdata)
    twooverpi                                0x080040a8   Data         152  rred.o(.constdata)
    .constdata                               0x08004140   Section       40  sin_i.o(.constdata)
    S                                        0x08004140   Data          40  sin_i.o(.constdata)
    .data                                    0x20000000   Section       26  main.o(.data)
    .data                                    0x2000001c   Section       25  system_stm32f30x.o(.data)
    TimingDelay                              0x20000030   Data           4  system_stm32f30x.o(.data)
    .data                                    0x20000038   Section        8  my_board.o(.data)
    .data                                    0x20000040   Section        4  errno.o(.data)
    _errno                                   0x20000040   Data           4  errno.o(.data)
    .bss                                     0x20000044   Section      120  elab_subsystem.o(.bss)
    .bss                                     0x200000bc   Section       24  key_elab.o(.bss)
    .bss                                     0x200000d4   Section       80  my_board.o(.bss)
    STACK                                    0x20000128   Section     4096  startup_stm32f334x8.o(STACK)

    Global Symbols

    Symbol Name                              Value     Ov Type        Size  Object(Section)

    BuildAttributes$$THM_ISAv4$E$P$D$K$B$S$7EM$VFPi3$EXTD16$VFPS$VFMA$PE$A:L22UL41UL21$X:L11$S22US41US21$IEEE1$IW$USESV6$~STKCKD$USESV7$~SHL$OTIME$ROPI$IEEEX$EBA8$MICROLIB$REQ8$PRES8$EABIv2 0x00000000   Number         0  anon$$obj.o ABSOLUTE
    __ARM_use_no_argv                        0x00000000   Number         0  my_board.o ABSOLUTE
    __arm_fini_                               - Undefined Weak Reference
    __cpp_initialize__aeabi_                  - Undefined Weak Reference
    __cxa_finalize                            - Undefined Weak Reference
    __decompress                              - Undefined Weak Reference
    _clock_init                               - Undefined Weak Reference
    _microlib_exit                            - Undefined Weak Reference
    __Vectors_Size                           0x00000188   Number         0  startup_stm32f334x8.o ABSOLUTE
    __Vectors                                0x08000000   Data           4  startup_stm32f334x8.o(RESET)
    __Vectors_End                            0x08000188   Data           0  startup_stm32f334x8.o(RESET)
    __main                                   0x08000189   Thumb Code     0  entry.o(.ARM.Collect$$$$00000000)
    _main_stk                                0x08000189   Thumb Code     0  entry2.o(.ARM.Collect$$$$00000001)
    _main_scatterload                        0x0800018d   Thumb Code     0  entry5.o(.ARM.Collect$$$$00000004)
    __main_after_scatterload                 0x08000191   Thumb Code     0  entry5.o(.ARM.Collect$$$$00000004)
    _main_clock                              0x08000191   Thumb Code     0  entry7b.o(.ARM.Collect$$$$00000008)
    _main_cpp_init                           0x08000191   Thumb Code     0  entry8b.o(.ARM.Collect$$$$0000000A)
    _main_init                               0x08000191   Thumb Code     0  entry9a.o(.ARM.Collect$$$$0000000B)
    __rt_lib_shutdown_fini                   0x08000199   Thumb Code     0  entry12b.o(.ARM.Collect$$$$0000000E)
    __rt_final_cpp                           0x0800019d   Thumb Code     0  entry10a.o(.ARM.Collect$$$$0000000F)
    __rt_final_exit                          0x0800019d   Thumb Code     0  entry11a.o(.ARM.Collect$$$$00000011)
    Reset_Handler                            0x080001a1   Thumb Code     8  startup_stm32f334x8.o(.text)
    ADC1_2_IRQHandler                        0x080001bb   Thumb Code     0  startup_stm32f334x8.o(.text)
    CAN1_RX0_IRQHandler                      0x080001bb   Thumb Code     0  startup_stm32f334x8.o(.text)
    CAN1_RX1_IRQHandler                      0x080001bb   Thumb Code     0  startup_stm32f334x8.o(.text)
    CAN1_SCE_IRQHandler                      0x080001bb   Thumb Code     0  startup_stm32f334x8.o(.text)
    CAN1_TX_IRQHandler                       0x080001bb   Thumb Code     0  startup_stm32f334x8.o(.text)
    COMP2_IRQHandler                         0x080001bb   Thumb Code     0  startup_stm32f334x8.o(.text)
    COMP4_6_IRQHandler                       0x080001bb   Thumb Code     0  startup_stm32f334x8.o(.text)
    DMA1_Channel1_IRQHandler                 0x080001bb   Thumb Code     0  startup_stm32f334x8.o(.text)
    DMA1_Channel2_IRQHandler                 0x080001bb   Thumb Code     0  startup_stm32f334x8.o(.text)
    DMA1_Channel3_IRQHandler                 0x080001bb   Thumb Code     0  startup_stm32f334x8.o(.text)
    DMA1_Channel4_IRQHandler                 0x080001bb   Thumb Code     0  startup_stm32f334x8.o(.text)
    DMA1_Channel5_IRQHandler                 0x080001bb   Thumb Code     0  startup_stm32f334x8.o(.text)
    DMA1_Channel6_IRQHandler                 0x080001bb   Thumb Code     0  startup_stm32f334x8.o(.text)
    DMA1_Channel7_IRQHandler                 0x080001bb   Thumb Code     0  startup_stm32f334x8.o(.text)
    EXTI15_10_IRQHandler                     0x080001bb   Thumb Code     0  startup_stm32f334x8.o(.text)
    EXTI1_IRQHandler                         0x080001bb   Thumb Code     0  startup_stm32f334x8.o(.text)
    EXTI2_TS_IRQHandler                      0x080001bb   Thumb Code     0  startup_stm32f334x8.o(.text)
    EXTI3_IRQHandler                         0x080001bb   Thumb Code     0  startup_stm32f334x8.o(.text)
    EXTI4_IRQHandler                         0x080001bb   Thumb Code     0  startup_stm32f334x8.o(.text)
    EXTI9_5_IRQHandler                       0x080001bb   Thumb Code     0  startup_stm32f334x8.o(.text)
    FLASH_IRQHandler                         0x080001bb   Thumb Code     0  startup_stm32f334x8.o(.text)
    FPU_IRQHandler                           0x080001bb   Thumb Code     0  startup_stm32f334x8.o(.text)
    HRTIM1_FLT_IRQHandler                    0x080001bb   Thumb Code     0  startup_stm32f334x8.o(.text)
    HRTIM1_TIMA_IRQHandler                   0x080001bb   Thumb Code     0  startup_stm32f334x8.o(.text)
    HRTIM1_TIMB_IRQHandler                   0x080001bb   Thumb Code     0  startup_stm32f334x8.o(.text)
    HRTIM1_TIMC_IRQHandler                   0x080001bb   Thumb Code     0  startup_stm32f334x8.o(.text)
    HRTIM1_TIMD_IRQHandler                   0x080001bb   Thumb Code     0  startup_stm32f334x8.o(.text)
    HRTIM1_TIME_IRQHandler                   0x080001bb   Thumb Code     0  startup_stm32f334x8.o(.text)
    I2C1_ER_IRQHandler                       0x080001bb   Thumb Code     0  startup_stm32f334x8.o(.text)
    I2C1_EV_IRQHandler                       0x080001bb   Thumb Code     0  startup_stm32f334x8.o(.text)
    PVD_IRQHandler                           0x080001bb   Thumb Code     0  startup_stm32f334x8.o(.text)
    RCC_IRQHandler                           0x080001bb   Thumb Code     0  startup_stm32f334x8.o(.text)
    RTC_Alarm_IRQHandler                     0x080001bb   Thumb Code     0  startup_stm32f334x8.o(.text)
    RTC_WKUP_IRQHandler                      0x080001bb   Thumb Code     0  startup_stm32f334x8.o(.text)
    SPI1_IRQHandler                          0x080001bb   Thumb Code     0  startup_stm32f334x8.o(.text)
    TAMPER_STAMP_IRQHandler                  0x080001bb   Thumb Code     0  startup_stm32f334x8.o(.text)
    TIM1_BRK_TIM15_IRQHandler                0x080001bb   Thumb Code     0  startup_stm32f334x8.o(.text)
    TIM1_CC_IRQHandler                       0x080001bb   Thumb Code     0  startup_stm32f334x8.o(.text)
    TIM1_TRG_COM_TIM17_IRQHandler            0x080001bb   Thumb Code     0  startup_stm32f334x8.o(.text)
    TIM1_UP_TIM16_IRQHandler                 0x080001bb   Thumb Code     0  startup_stm32f334x8.o(.text)
    TIM2_IRQHandler                          0x080001bb   Thumb Code     0  startup_stm32f334x8.o(.text)
    TIM3_IRQHandler                          0x080001bb   Thumb Code     0  startup_stm32f334x8.o(.text)
    TIM6_DAC1_IRQHandler                     0x080001bb   Thumb Code     0  startup_stm32f334x8.o(.text)
    TIM7_DAC2_IRQHandler                     0x080001bb   Thumb Code     0  startup_stm32f334x8.o(.text)
    USART1_IRQHandler                        0x080001bb   Thumb Code     0  startup_stm32f334x8.o(.text)
    USART2_IRQHandler                        0x080001bb   Thumb Code     0  startup_stm32f334x8.o(.text)
    USART3_IRQHandler                        0x080001bb   Thumb Code     0  startup_stm32f334x8.o(.text)
    WWDG_IRQHandler                          0x080001bb   Thumb Code     0  startup_stm32f334x8.o(.text)
    __aeabi_memset                           0x080001c5   Thumb Code    14  memseta.o(.text)
    __aeabi_memset4                          0x080001c5   Thumb Code     0  memseta.o(.text)
    __aeabi_memset8                          0x080001c5   Thumb Code     0  memseta.o(.text)
    __aeabi_memclr                           0x080001d3   Thumb Code     4  memseta.o(.text)
    __aeabi_memclr4                          0x080001d3   Thumb Code     0  memseta.o(.text)
    __aeabi_memclr8                          0x080001d3   Thumb Code     0  memseta.o(.text)
    _memset$wrapper                          0x080001d7   Thumb Code    18  memseta.o(.text)
    __aeabi_dadd                             0x080001e9   Thumb Code   322  dadd.o(.text)
    __aeabi_dsub                             0x0800032b   Thumb Code     6  dadd.o(.text)
    __aeabi_drsub                            0x08000331   Thumb Code     6  dadd.o(.text)
    __aeabi_dmul                             0x08000337   Thumb Code   228  dmul.o(.text)
    __aeabi_ddiv                             0x0800041b   Thumb Code   222  ddiv.o(.text)
    __aeabi_i2d                              0x080004f9   Thumb Code    34  dflti.o(.text)
    __aeabi_ui2d                             0x0800051b   Thumb Code    26  dfltui.o(.text)
    __aeabi_d2uiz                            0x08000535   Thumb Code    50  dfixui.o(.text)
    __aeabi_f2d                              0x08000567   Thumb Code    38  f2d.o(.text)
    __aeabi_d2f                              0x0800058d   Thumb Code    56  d2f.o(.text)
    __aeabi_llsl                             0x080005c5   Thumb Code    30  llshl.o(.text)
    _ll_shift_l                              0x080005c5   Thumb Code     0  llshl.o(.text)
    __aeabi_llsr                             0x080005e3   Thumb Code    32  llushr.o(.text)
    _ll_ushift_r                             0x080005e3   Thumb Code     0  llushr.o(.text)
    __aeabi_lasr                             0x08000603   Thumb Code    36  llsshr.o(.text)
    _ll_sshift_r                             0x08000603   Thumb Code     0  llsshr.o(.text)
    __I$use$fp                               0x08000627   Thumb Code     0  iusefp.o(.text)
    _float_round                             0x08000627   Thumb Code    18  fepilogue.o(.text)
    _float_epilogue                          0x08000639   Thumb Code    92  fepilogue.o(.text)
    _double_round                            0x08000695   Thumb Code    30  depilogue.o(.text)
    _double_epilogue                         0x080006b3   Thumb Code   156  depilogue.o(.text)
    __scatterload                            0x08000751   Thumb Code    28  init.o(.text)
    __scatterload_rt2                        0x08000751   Thumb Code     0  init.o(.text)
    __aeabi_d2iz                             0x08000775   Thumb Code    62  dfixi.o(.text)
    ADC_Cmd                                  0x080007b3   Thumb Code    22  stm32f30x_adc.o(i.ADC_Cmd)
    ADC_CommonInit                           0x080007c9   Thumb Code    82  stm32f30x_adc.o(i.ADC_CommonInit)
    ADC_DMACmd                               0x0800082d   Thumb Code    22  stm32f30x_adc.o(i.ADC_DMACmd)
    ADC_DMAConfig                            0x08000843   Thumb Code    16  stm32f30x_adc.o(i.ADC_DMAConfig)
    ADC_DeInit                               0x08000855   Thumb Code    68  stm32f30x_adc.o(i.ADC_DeInit)
    ADC_GetCalibrationStatus                 0x080008a5   Thumb Code    20  stm32f30x_adc.o(i.ADC_GetCalibrationStatus)
    ADC_GetFlagStatus                        0x080008b9   Thumb Code    18  stm32f30x_adc.o(i.ADC_GetFlagStatus)
    ADC_Init                                 0x080008cd   Thumb Code    58  stm32f30x_adc.o(i.ADC_Init)
    ADC_RegularChannelConfig                 0x0800090d   Thumb Code   250  stm32f30x_adc.o(i.ADC_RegularChannelConfig)
    ADC_SelectCalibrationMode                0x08000a07   Thumb Code    16  stm32f30x_adc.o(i.ADC_SelectCalibrationMode)
    ADC_StartCalibration                     0x08000a17   Thumb Code    10  stm32f30x_adc.o(i.ADC_StartCalibration)
    ADC_StartConversion                      0x08000a21   Thumb Code    10  stm32f30x_adc.o(i.ADC_StartConversion)
    ADC_VoltageRegulatorCmd                  0x08000a2b   Thumb Code    30  stm32f30x_adc.o(i.ADC_VoltageRegulatorCmd)
    BusFault_Handler                         0x08000a49   Thumb Code     4  stm32f3xx_it.o(i.BusFault_Handler)
    DMA_Cmd                                  0x08000a4d   Thumb Code    24  stm32f30x_dma.o(i.DMA_Cmd)
    DMA_DeInit                               0x08000a65   Thumb Code   324  stm32f30x_dma.o(i.DMA_DeInit)
    DMA_Init                                 0x08000bb1   Thumb Code    60  stm32f30x_dma.o(i.DMA_Init)
    DMA_StructInit                           0x08000bed   Thumb Code    26  stm32f30x_dma.o(i.DMA_StructInit)
    DebugMon_Handler                         0x08000c07   Thumb Code     2  stm32f3xx_it.o(i.DebugMon_Handler)
    EXTI0_IRQHandler                         0x08000c09   Thumb Code     2  stm32f3xx_it.o(i.EXTI0_IRQHandler)
    GPIO_Init                                0x08000c0b   Thumb Code   150  stm32f30x_gpio.o(i.GPIO_Init)
    GPIO_PinAFConfig                         0x08000ca1   Thumb Code    70  stm32f30x_gpio.o(i.GPIO_PinAFConfig)
    GPIO_ReadInputDataBit                    0x08000ce7   Thumb Code    18  stm32f30x_gpio.o(i.GPIO_ReadInputDataBit)
    GPIO_ResetBits                           0x08000cf9   Thumb Code     4  stm32f30x_gpio.o(i.GPIO_ResetBits)
    GPIO_SetBits                             0x08000cfd   Thumb Code     4  stm32f30x_gpio.o(i.GPIO_SetBits)
    HRTIM1_Master_IRQHandler                 0x08000d01   Thumb Code   258  main.o(i.HRTIM1_Master_IRQHandler)
    HRTIM_ADCTriggerConfig                   0x08000e2d   Thumb Code   114  stm32f30x_hrtim.o(i.HRTIM_ADCTriggerConfig)
    HRTIM_ClearITPendingBit                  0x08000e9f   Thumb Code    62  stm32f30x_hrtim.o(i.HRTIM_ClearITPendingBit)
    HRTIM_DLLCalibrationStart                0x08000edd   Thumb Code    40  stm32f30x_hrtim.o(i.HRTIM_DLLCalibrationStart)
    HRTIM_DeadTimeConfig                     0x08000f05   Thumb Code    70  stm32f30x_hrtim.o(i.HRTIM_DeadTimeConfig)
    HRTIM_GetCommonFlagStatus                0x08000f51   Thumb Code    22  stm32f30x_hrtim.o(i.HRTIM_GetCommonFlagStatus)
    HRTIM_ITConfig                           0x08000f67   Thumb Code    98  stm32f30x_hrtim.o(i.HRTIM_ITConfig)
    HRTIM_MasterSetCompare                   0x08000ff3   Thumb Code    40  stm32f30x_hrtim.o(i.HRTIM_MasterSetCompare)
    HRTIM_SlaveSetCompare                    0x0800113d   Thumb Code    74  stm32f30x_hrtim.o(i.HRTIM_SlaveSetCompare)
    HRTIM_WaveformCounterStart               0x080012b9   Thumb Code     8  stm32f30x_hrtim.o(i.HRTIM_WaveformCounterStart)
    HRTIM_WaveformOutputConfig               0x080012c1   Thumb Code    28  stm32f30x_hrtim.o(i.HRTIM_WaveformOutputConfig)
    HRTIM_WaveformOutputStart                0x080012dd   Thumb Code     8  stm32f30x_hrtim.o(i.HRTIM_WaveformOutputStart)
    HRTIM_WaveformTimerConfig                0x080012e5   Thumb Code   146  stm32f30x_hrtim.o(i.HRTIM_WaveformTimerConfig)
    HRTIM_Waveform_Init                      0x08001377   Thumb Code    58  stm32f30x_hrtim.o(i.HRTIM_Waveform_Init)
    HardFault_Handler                        0x080013b1   Thumb Code     4  stm32f3xx_it.o(i.HardFault_Handler)
    IIC_Start                                0x080013b5   Thumb Code    44  oled.o(i.IIC_Start)
    IIC_Stop                                 0x080013e5   Thumb Code    34  oled.o(i.IIC_Stop)
    IIC_Wait_Ack                             0x0800140d   Thumb Code    24  oled.o(i.IIC_Wait_Ack)
    INV_ELAB_initialize                      0x08001429   Thumb Code     2  elab_subsystem.o(i.INV_ELAB_initialize)
    INV_ELAB_step                            0x0800142d   Thumb Code   650  elab_subsystem.o(i.INV_ELAB_step)
    INV_KEY_initialize                       0x08001715   Thumb Code     2  key_elab.o(i.INV_KEY_initialize)
    INV_KEY_step                             0x08001717   Thumb Code     2  key_elab.o(i.INV_KEY_step)
    KEY_Init                                 0x08001719   Thumb Code    94  key.o(i.KEY_Init)
    KEY_Scan                                 0x0800177d   Thumb Code    90  key.o(i.KEY_Scan)
    LED_Init                                 0x080017dd   Thumb Code   118  dr_led.o(i.LED_Init)
    MemManage_Handler                        0x08001859   Thumb Code     4  stm32f3xx_it.o(i.MemManage_Handler)
    NMI_Handler                              0x0800185d   Thumb Code     2  stm32f3xx_it.o(i.NMI_Handler)
    NVIC_Init                                0x08001861   Thumb Code   100  stm32f30x_misc.o(i.NVIC_Init)
    OLED_Clear                               0x080018d1   Thumb Code    62  oled.o(i.OLED_Clear)
    OLED_Init                                0x08001911   Thumb Code   276  oled.o(i.OLED_Init)
    OLED_Set_Pos                             0x08001a29   Thumb Code    40  oled.o(i.OLED_Set_Pos)
    OLED_ShowChar                            0x08001a51   Thumb Code   154  oled.o(i.OLED_ShowChar)
    OLED_ShowNum                             0x08001af5   Thumb Code   140  oled.o(i.OLED_ShowNum)
    OLED_ShowNum_0                           0x08001b81   Thumb Code   136  oled.o(i.OLED_ShowNum_0)
    OLED_ShowNumf                            0x08001c09   Thumb Code   236  oled.o(i.OLED_ShowNumf)
    OLED_WR_Byte                             0x08001cf5   Thumb Code    24  oled.o(i.OLED_WR_Byte)
    PWM_ClearITPendingBit                    0x08001d0d   Thumb Code    14  my_board.o(i.PWM_ClearITPendingBit)
    PendSV_Handler                           0x08001d21   Thumb Code     2  stm32f3xx_it.o(i.PendSV_Handler)
    RCC_ADCCLKConfig                         0x08001d25   Thumb Code    44  stm32f30x_rcc.o(i.RCC_ADCCLKConfig)
    RCC_AHBPeriphClockCmd                    0x08001d55   Thumb Code    26  stm32f30x_rcc.o(i.RCC_AHBPeriphClockCmd)
    RCC_AHBPeriphResetCmd                    0x08001d75   Thumb Code    26  stm32f30x_rcc.o(i.RCC_AHBPeriphResetCmd)
    RCC_APB2PeriphClockCmd                   0x08001d95   Thumb Code    26  stm32f30x_rcc.o(i.RCC_APB2PeriphClockCmd)
    RCC_HRTIM1CLKConfig                      0x08001db5   Thumb Code    22  stm32f30x_rcc.o(i.RCC_HRTIM1CLKConfig)
    SVC_Handler                              0x08001dd1   Thumb Code     2  stm32f3xx_it.o(i.SVC_Handler)
    SysTick_Handler                          0x08001e99   Thumb Code     8  stm32f3xx_it.o(i.SysTick_Handler)
    SystemInit                               0x08001ea1   Thumb Code   112  system_stm32f30x.o(i.SystemInit)
    TimingDelay_Decrement                    0x08001f25   Thumb Code    18  system_stm32f30x.o(i.TimingDelay_Decrement)
    UsageFault_Handler                       0x08001f3d   Thumb Code     4  stm32f3xx_it.o(i.UsageFault_Handler)
    Write_IIC_Byte                           0x08001f41   Thumb Code    88  oled.o(i.Write_IIC_Byte)
    Write_IIC_Command                        0x08001f9d   Thumb Code    44  oled.o(i.Write_IIC_Command)
    Write_IIC_Data                           0x08001fc9   Thumb Code    44  oled.o(i.Write_IIC_Data)
    __ARM_fpclassify                         0x08001ff5   Thumb Code    48  fpclassify.o(i.__ARM_fpclassify)
    __hardfp_sin                             0x08002029   Thumb Code   180  sin.o(i.__hardfp_sin)
    __ieee754_rem_pio2                       0x080020f1   Thumb Code   938  rred.o(i.__ieee754_rem_pio2)
    __kernel_cos                             0x08002529   Thumb Code   322  cos_i.o(i.__kernel_cos)
    __kernel_poly                            0x08002699   Thumb Code   248  poly.o(i.__kernel_poly)
    __kernel_sin                             0x08002791   Thumb Code   280  sin_i.o(i.__kernel_sin)
    __mathlib_dbl_infnan                     0x080028c1   Thumb Code    20  dunder.o(i.__mathlib_dbl_infnan)
    __mathlib_dbl_invalid                    0x080028d9   Thumb Code    24  dunder.o(i.__mathlib_dbl_invalid)
    __mathlib_dbl_underflow                  0x080028f9   Thumb Code    24  dunder.o(i.__mathlib_dbl_underflow)
    __scatterload_copy                       0x08002919   Thumb Code    14  handlers.o(i.__scatterload_copy)
    __scatterload_null                       0x08002927   Thumb Code     2  handlers.o(i.__scatterload_null)
    __scatterload_zeroinit                   0x08002929   Thumb Code    14  handlers.o(i.__scatterload_zeroinit)
    __set_errno                              0x08002939   Thumb Code     6  errno.o(i.__set_errno)
    delay_ms                                 0x08002945   Thumb Code    20  system_stm32f30x.o(i.delay_ms)
    fabs                                     0x0800295d   Thumb Code    24  fabs.o(i.fabs)
    get_middle_num_adc                       0x08002975   Thumb Code    46  my_board.o(i.get_middle_num_adc)
    led1_off                                 0x080029a5   Thumb Code    10  dr_led.o(i.led1_off)
    led1_on                                  0x080029b5   Thumb Code    10  dr_led.o(i.led1_on)
    led2_off                                 0x080029c5   Thumb Code    10  dr_led.o(i.led2_off)
    led2_on                                  0x080029d5   Thumb Code    10  dr_led.o(i.led2_on)
    led3_off                                 0x080029e5   Thumb Code    10  dr_led.o(i.led3_off)
    led3_on                                  0x080029f5   Thumb Code    10  dr_led.o(i.led3_on)
    main                                     0x08002a05   Thumb Code    12  my_board.o(i.main)
    main_circle_func                         0x08002a11   Thumb Code   288  main.o(i.main_circle_func)
    my_adc_init                              0x08002b41   Thumb Code   990  my_board.o(i.my_adc_init)
    my_board_init                            0x08002f35   Thumb Code    56  main.o(i.my_board_init)
    my_pwm_init                              0x08002f6d   Thumb Code  1858  my_board.o(i.my_pwm_init)
    my_pwm_update                            0x080036c1   Thumb Code   130  my_board.o(i.my_pwm_update)
    my_system_config                         0x0800374d   Thumb Code   114  my_board.o(i.my_system_config)
    oled_pow                                 0x080037cd   Thumb Code    22  oled.o(i.oled_pow)
    sin                                      0x080037e3   Thumb Code    16  sin.o(i.sin)
    sqrtf                                    0x080037f3   Thumb Code    62  sqrtf.o(i.sqrtf)
    F6x8                                     0x08003830   Data         552  oled.o(.constdata)
    F8X16                                    0x08003a58   Data        1520  oled.o(.constdata)
    Region$$Table$$Base                      0x08004168   Number         0  anon$$obj.o(Region$$Table)
    Region$$Table$$Limit                     0x08004188   Number         0  anon$$obj.o(Region$$Table)
    pwm_a                                    0x20000000   Data           4  main.o(.data)
    set_point_u                              0x20000004   Data           4  main.o(.data)
    uout                                     0x20000008   Data           4  main.o(.data)
    iout                                     0x2000000c   Data           4  main.o(.data)
    uin                                      0x20000010   Data           4  main.o(.data)
    iin                                      0x20000014   Data           4  main.o(.data)
    TEST                                     0x20000018   Data           1  main.o(.data)
    KEY_NUM                                  0x20000019   Data           1  main.o(.data)
    SystemCoreClock                          0x2000001c   Data           4  system_stm32f30x.o(.data)
    AHBPrescTable                            0x20000020   Data          16  system_stm32f30x.o(.data)
    BlinkSpeed                               0x20000034   Data           1  system_stm32f30x.o(.data)
    dac_num                                  0x20000038   Data           2  my_board.o(.data)
    PWM_PER                                  0x2000003c   Data           4  my_board.o(.data)
    rtDW_INV_ELAB                            0x20000044   Data          24  elab_subsystem.o(.bss)
    rtU_INV_ELAB                             0x2000005c   Data          52  elab_subsystem.o(.bss)
    rtY_INV_ELAB                             0x20000090   Data          44  elab_subsystem.o(.bss)
    rtU_INV_KEY                              0x200000bc   Data          12  key_elab.o(.bss)
    rtY_INV_KEY                              0x200000c8   Data          12  key_elab.o(.bss)
    adc_sample_buf                           0x200000d4   Data          20  my_board.o(.bss)
    adc_sample_buff                          0x200000e8   Data          60  my_board.o(.bss)
    __initial_sp                             0x20001128   Data           0  startup_stm32f334x8.o(STACK)



==============================================================================

Memory Map of the image

  Image Entry point : 0x08000189

  Load Region LR_IROM1 (Base: 0x08000000, Size: 0x000041cc, Max: 0x00008000, ABSOLUTE)

    Execution Region ER_IROM1 (Exec base: 0x08000000, Load base: 0x08000000, Size: 0x00004188, Max: 0x00008000, ABSOLUTE)

    Exec Addr    Load Addr    Size         Type   Attr      Idx    E Section Name        Object

    0x08000000   0x08000000   0x00000188   Data   RO         5085    RESET               startup_stm32f334x8.o
    0x08000188   0x08000188   0x00000000   Code   RO         5287  * .ARM.Collect$$$$00000000  mc_w.l(entry.o)
    0x08000188   0x08000188   0x00000004   Code   RO         5336    .ARM.Collect$$$$00000001  mc_w.l(entry2.o)
    0x0800018c   0x0800018c   0x00000004   Code   RO         5339    .ARM.Collect$$$$00000004  mc_w.l(entry5.o)
    0x08000190   0x08000190   0x00000000   Code   RO         5341    .ARM.Collect$$$$00000008  mc_w.l(entry7b.o)
    0x08000190   0x08000190   0x00000000   Code   RO         5343    .ARM.Collect$$$$0000000A  mc_w.l(entry8b.o)
    0x08000190   0x08000190   0x00000008   Code   RO         5344    .ARM.Collect$$$$0000000B  mc_w.l(entry9a.o)
    0x08000198   0x08000198   0x00000004   Code   RO         5351    .ARM.Collect$$$$0000000E  mc_w.l(entry12b.o)
    0x0800019c   0x0800019c   0x00000000   Code   RO         5346    .ARM.Collect$$$$0000000F  mc_w.l(entry10a.o)
    0x0800019c   0x0800019c   0x00000000   Code   RO         5348    .ARM.Collect$$$$00000011  mc_w.l(entry11a.o)
    0x0800019c   0x0800019c   0x00000004   Code   RO         5337    .ARM.Collect$$$$00002712  mc_w.l(entry2.o)
    0x080001a0   0x080001a0   0x00000024   Code   RO         5086    .text               startup_stm32f334x8.o
    0x080001c4   0x080001c4   0x00000024   Code   RO         5290    .text               mc_w.l(memseta.o)
    0x080001e8   0x080001e8   0x0000014e   Code   RO         5292    .text               mf_w.l(dadd.o)
    0x08000336   0x08000336   0x000000e4   Code   RO         5294    .text               mf_w.l(dmul.o)
    0x0800041a   0x0800041a   0x000000de   Code   RO         5296    .text               mf_w.l(ddiv.o)
    0x080004f8   0x080004f8   0x00000022   Code   RO         5298    .text               mf_w.l(dflti.o)
    0x0800051a   0x0800051a   0x0000001a   Code   RO         5300    .text               mf_w.l(dfltui.o)
    0x08000534   0x08000534   0x00000032   Code   RO         5302    .text               mf_w.l(dfixui.o)
    0x08000566   0x08000566   0x00000026   Code   RO         5304    .text               mf_w.l(f2d.o)
    0x0800058c   0x0800058c   0x00000038   Code   RO         5306    .text               mf_w.l(d2f.o)
    0x080005c4   0x080005c4   0x0000001e   Code   RO         5352    .text               mc_w.l(llshl.o)
    0x080005e2   0x080005e2   0x00000020   Code   RO         5354    .text               mc_w.l(llushr.o)
    0x08000602   0x08000602   0x00000024   Code   RO         5356    .text               mc_w.l(llsshr.o)
    0x08000626   0x08000626   0x00000000   Code   RO         5365    .text               mc_w.l(iusefp.o)
    0x08000626   0x08000626   0x0000006e   Code   RO         5366    .text               mf_w.l(fepilogue.o)
    0x08000694   0x08000694   0x000000ba   Code   RO         5368    .text               mf_w.l(depilogue.o)
    0x0800074e   0x0800074e   0x00000002   PAD
    0x08000750   0x08000750   0x00000024   Code   RO         5382    .text               mc_w.l(init.o)
    0x08000774   0x08000774   0x0000003e   Code   RO         5384    .text               mf_w.l(dfixi.o)
    0x080007b2   0x080007b2   0x00000016   Code   RO          843    i.ADC_Cmd           stm32f30x_adc.o
    0x080007c8   0x080007c8   0x00000064   Code   RO          844    i.ADC_CommonInit    stm32f30x_adc.o
    0x0800082c   0x0800082c   0x00000016   Code   RO          846    i.ADC_DMACmd        stm32f30x_adc.o
    0x08000842   0x08000842   0x00000010   Code   RO          847    i.ADC_DMAConfig     stm32f30x_adc.o
    0x08000852   0x08000852   0x00000002   PAD
    0x08000854   0x08000854   0x00000050   Code   RO          848    i.ADC_DeInit        stm32f30x_adc.o
    0x080008a4   0x080008a4   0x00000014   Code   RO          853    i.ADC_GetCalibrationStatus  stm32f30x_adc.o
    0x080008b8   0x080008b8   0x00000012   Code   RO          859    i.ADC_GetFlagStatus  stm32f30x_adc.o
    0x080008ca   0x080008ca   0x00000002   PAD
    0x080008cc   0x080008cc   0x00000040   Code   RO          865    i.ADC_Init          stm32f30x_adc.o
    0x0800090c   0x0800090c   0x000000fa   Code   RO          870    i.ADC_RegularChannelConfig  stm32f30x_adc.o
    0x08000a06   0x08000a06   0x00000010   Code   RO          872    i.ADC_SelectCalibrationMode  stm32f30x_adc.o
    0x08000a16   0x08000a16   0x0000000a   Code   RO          880    i.ADC_StartCalibration  stm32f30x_adc.o
    0x08000a20   0x08000a20   0x0000000a   Code   RO          881    i.ADC_StartConversion  stm32f30x_adc.o
    0x08000a2a   0x08000a2a   0x0000001e   Code   RO          888    i.ADC_VoltageRegulatorCmd  stm32f30x_adc.o
    0x08000a48   0x08000a48   0x00000004   Code   RO          199    i.BusFault_Handler  stm32f3xx_it.o
    0x08000a4c   0x08000a4c   0x00000018   Code   RO         1704    i.DMA_Cmd           stm32f30x_dma.o
    0x08000a64   0x08000a64   0x0000014c   Code   RO         1705    i.DMA_DeInit        stm32f30x_dma.o
    0x08000bb0   0x08000bb0   0x0000003c   Code   RO         1710    i.DMA_Init          stm32f30x_dma.o
    0x08000bec   0x08000bec   0x0000001a   Code   RO         1712    i.DMA_StructInit    stm32f30x_dma.o
    0x08000c06   0x08000c06   0x00000002   Code   RO          200    i.DebugMon_Handler  stm32f3xx_it.o
    0x08000c08   0x08000c08   0x00000002   Code   RO          201    i.EXTI0_IRQHandler  stm32f3xx_it.o
    0x08000c0a   0x08000c0a   0x00000096   Code   RO         2033    i.GPIO_Init         stm32f30x_gpio.o
    0x08000ca0   0x08000ca0   0x00000046   Code   RO         2034    i.GPIO_PinAFConfig  stm32f30x_gpio.o
    0x08000ce6   0x08000ce6   0x00000012   Code   RO         2037    i.GPIO_ReadInputDataBit  stm32f30x_gpio.o
    0x08000cf8   0x08000cf8   0x00000004   Code   RO         2040    i.GPIO_ResetBits    stm32f30x_gpio.o
    0x08000cfc   0x08000cfc   0x00000004   Code   RO         2041    i.GPIO_SetBits      stm32f30x_gpio.o
    0x08000d00   0x08000d00   0x0000012c   Code   RO            3    i.HRTIM1_Master_IRQHandler  main.o
    0x08000e2c   0x08000e2c   0x00000072   Code   RO         2124    i.HRTIM_ADCTriggerConfig  stm32f30x_hrtim.o
    0x08000e9e   0x08000e9e   0x0000003e   Code   RO         2133    i.HRTIM_ClearITPendingBit  stm32f30x_hrtim.o
    0x08000edc   0x08000edc   0x00000028   Code   RO         2135    i.HRTIM_DLLCalibrationStart  stm32f30x_hrtim.o
    0x08000f04   0x08000f04   0x0000004c   Code   RO         2138    i.HRTIM_DeadTimeConfig  stm32f30x_hrtim.o
    0x08000f50   0x08000f50   0x00000016   Code   RO         2147    i.HRTIM_GetCommonFlagStatus  stm32f30x_hrtim.o
    0x08000f66   0x08000f66   0x00000062   Code   RO         2155    i.HRTIM_ITConfig    stm32f30x_hrtim.o
    0x08000fc8   0x08000fc8   0x0000002a   Code   RO         2156    i.HRTIM_MasterBase_Config  stm32f30x_hrtim.o
    0x08000ff2   0x08000ff2   0x00000028   Code   RO         2157    i.HRTIM_MasterSetCompare  stm32f30x_hrtim.o
    0x0800101a   0x0800101a   0x00000058   Code   RO         2158    i.HRTIM_MasterWaveform_Config  stm32f30x_hrtim.o
    0x08001072   0x08001072   0x000000ca   Code   RO         2159    i.HRTIM_OutputConfig  stm32f30x_hrtim.o
    0x0800113c   0x0800113c   0x0000004a   Code   RO         2179    i.HRTIM_SlaveSetCompare  stm32f30x_hrtim.o
    0x08001186   0x08001186   0x0000007c   Code   RO         2186    i.HRTIM_TimingUnitBase_Config  stm32f30x_hrtim.o
    0x08001202   0x08001202   0x000000b6   Code   RO         2187    i.HRTIM_TimingUnitWaveform_Config  stm32f30x_hrtim.o
    0x080012b8   0x080012b8   0x00000008   Code   RO         2190    i.HRTIM_WaveformCounterStart  stm32f30x_hrtim.o
    0x080012c0   0x080012c0   0x0000001c   Code   RO         2194    i.HRTIM_WaveformOutputConfig  stm32f30x_hrtim.o
    0x080012dc   0x080012dc   0x00000008   Code   RO         2195    i.HRTIM_WaveformOutputStart  stm32f30x_hrtim.o
    0x080012e4   0x080012e4   0x00000092   Code   RO         2198    i.HRTIM_WaveformTimerConfig  stm32f30x_hrtim.o
    0x08001376   0x08001376   0x0000003a   Code   RO         2199    i.HRTIM_Waveform_Init  stm32f30x_hrtim.o
    0x080013b0   0x080013b0   0x00000004   Code   RO          202    i.HardFault_Handler  stm32f3xx_it.o
    0x080013b4   0x080013b4   0x00000030   Code   RO          569    i.IIC_Start         oled.o
    0x080013e4   0x080013e4   0x00000028   Code   RO          570    i.IIC_Stop          oled.o
    0x0800140c   0x0800140c   0x0000001c   Code   RO          571    i.IIC_Wait_Ack      oled.o
    0x08001428   0x08001428   0x00000002   Code   RO          330    i.INV_ELAB_initialize  elab_subsystem.o
    0x0800142a   0x0800142a   0x00000002   PAD
    0x0800142c   0x0800142c   0x000002e8   Code   RO          331    i.INV_ELAB_step     elab_subsystem.o
    0x08001714   0x08001714   0x00000002   Code   RO          354    i.INV_KEY_initialize  key_elab.o
    0x08001716   0x08001716   0x00000002   Code   RO          355    i.INV_KEY_step      key_elab.o
    0x08001718   0x08001718   0x00000064   Code   RO          801    i.KEY_Init          key.o
    0x0800177c   0x0800177c   0x00000060   Code   RO          802    i.KEY_Scan          key.o
    0x080017dc   0x080017dc   0x0000007c   Code   RO          727    i.LED_Init          dr_led.o
    0x08001858   0x08001858   0x00000004   Code   RO          203    i.MemManage_Handler  stm32f3xx_it.o
    0x0800185c   0x0800185c   0x00000002   Code   RO          204    i.NMI_Handler       stm32f3xx_it.o
    0x0800185e   0x0800185e   0x00000002   PAD
    0x08001860   0x08001860   0x00000070   Code   RO         2909    i.NVIC_Init         stm32f30x_misc.o
    0x080018d0   0x080018d0   0x0000003e   Code   RO          572    i.OLED_Clear        oled.o
    0x0800190e   0x0800190e   0x00000002   PAD
    0x08001910   0x08001910   0x00000118   Code   RO          576    i.OLED_Init         oled.o
    0x08001a28   0x08001a28   0x00000028   Code   RO          578    i.OLED_Set_Pos      oled.o
    0x08001a50   0x08001a50   0x000000a4   Code   RO          580    i.OLED_ShowChar     oled.o
    0x08001af4   0x08001af4   0x0000008c   Code   RO          581    i.OLED_ShowNum      oled.o
    0x08001b80   0x08001b80   0x00000088   Code   RO          582    i.OLED_ShowNum_0    oled.o
    0x08001c08   0x08001c08   0x000000ec   Code   RO          583    i.OLED_ShowNumf     oled.o
    0x08001cf4   0x08001cf4   0x00000018   Code   RO          585    i.OLED_WR_Byte      oled.o
    0x08001d0c   0x08001d0c   0x00000014   Code   RO          381    i.PWM_ClearITPendingBit  my_board.o
    0x08001d20   0x08001d20   0x00000002   Code   RO          205    i.PendSV_Handler    stm32f3xx_it.o
    0x08001d22   0x08001d22   0x00000002   PAD
    0x08001d24   0x08001d24   0x00000030   Code   RO         3131    i.RCC_ADCCLKConfig  stm32f30x_rcc.o
    0x08001d54   0x08001d54   0x00000020   Code   RO         3132    i.RCC_AHBPeriphClockCmd  stm32f30x_rcc.o
    0x08001d74   0x08001d74   0x00000020   Code   RO         3133    i.RCC_AHBPeriphResetCmd  stm32f30x_rcc.o
    0x08001d94   0x08001d94   0x00000020   Code   RO         3136    i.RCC_APB2PeriphClockCmd  stm32f30x_rcc.o
    0x08001db4   0x08001db4   0x0000001c   Code   RO         3149    i.RCC_HRTIM1CLKConfig  stm32f30x_rcc.o
    0x08001dd0   0x08001dd0   0x00000002   Code   RO          206    i.SVC_Handler       stm32f3xx_it.o
    0x08001dd2   0x08001dd2   0x00000002   PAD
    0x08001dd4   0x08001dd4   0x000000c4   Code   RO          277    i.SetSysClock       system_stm32f30x.o
    0x08001e98   0x08001e98   0x00000008   Code   RO          207    i.SysTick_Handler   stm32f3xx_it.o
    0x08001ea0   0x08001ea0   0x00000084   Code   RO          279    i.SystemInit        system_stm32f30x.o
    0x08001f24   0x08001f24   0x00000018   Code   RO          280    i.TimingDelay_Decrement  system_stm32f30x.o
    0x08001f3c   0x08001f3c   0x00000004   Code   RO          208    i.UsageFault_Handler  stm32f3xx_it.o
    0x08001f40   0x08001f40   0x0000005c   Code   RO          586    i.Write_IIC_Byte    oled.o
    0x08001f9c   0x08001f9c   0x0000002c   Code   RO          587    i.Write_IIC_Command  oled.o
    0x08001fc8   0x08001fc8   0x0000002c   Code   RO          588    i.Write_IIC_Data    oled.o
    0x08001ff4   0x08001ff4   0x00000030   Code   RO         5378    i.__ARM_fpclassify  m_wm.l(fpclassify.o)
    0x08002024   0x08002024   0x00000004   PAD
    0x08002028   0x08002028   0x000000c8   Code   RO         5257    i.__hardfp_sin      m_wm.l(sin.o)
    0x080020f0   0x080020f0   0x00000438   Code   RO         5325    i.__ieee754_rem_pio2  m_wm.l(rred.o)
    0x08002528   0x08002528   0x00000170   Code   RO         5308    i.__kernel_cos      m_wm.l(cos_i.o)
    0x08002698   0x08002698   0x000000f8   Code   RO         5380    i.__kernel_poly     m_wm.l(poly.o)
    0x08002790   0x08002790   0x00000130   Code   RO         5330    i.__kernel_sin      m_wm.l(sin_i.o)
    0x080028c0   0x080028c0   0x00000014   Code   RO         5312    i.__mathlib_dbl_infnan  m_wm.l(dunder.o)
    0x080028d4   0x080028d4   0x00000004   PAD
    0x080028d8   0x080028d8   0x00000020   Code   RO         5314    i.__mathlib_dbl_invalid  m_wm.l(dunder.o)
    0x080028f8   0x080028f8   0x00000020   Code   RO         5317    i.__mathlib_dbl_underflow  m_wm.l(dunder.o)
    0x08002918   0x08002918   0x0000000e   Code   RO         5388    i.__scatterload_copy  mc_w.l(handlers.o)
    0x08002926   0x08002926   0x00000002   Code   RO         5389    i.__scatterload_null  mc_w.l(handlers.o)
    0x08002928   0x08002928   0x0000000e   Code   RO         5390    i.__scatterload_zeroinit  mc_w.l(handlers.o)
    0x08002936   0x08002936   0x00000002   PAD
    0x08002938   0x08002938   0x0000000c   Code   RO         5360    i.__set_errno       mc_w.l(errno.o)
    0x08002944   0x08002944   0x00000018   Code   RO          281    i.delay_ms          system_stm32f30x.o
    0x0800295c   0x0800295c   0x00000018   Code   RO         5374    i.fabs              m_wm.l(fabs.o)
    0x08002974   0x08002974   0x0000002e   Code   RO          384    i.get_middle_num_adc  my_board.o
    0x080029a2   0x080029a2   0x00000002   PAD
    0x080029a4   0x080029a4   0x00000010   Code   RO          728    i.led1_off          dr_led.o
    0x080029b4   0x080029b4   0x00000010   Code   RO          729    i.led1_on           dr_led.o
    0x080029c4   0x080029c4   0x00000010   Code   RO          731    i.led2_off          dr_led.o
    0x080029d4   0x080029d4   0x00000010   Code   RO          732    i.led2_on           dr_led.o
    0x080029e4   0x080029e4   0x00000010   Code   RO          734    i.led3_off          dr_led.o
    0x080029f4   0x080029f4   0x00000010   Code   RO          735    i.led3_on           dr_led.o
    0x08002a04   0x08002a04   0x0000000c   Code   RO          385    i.main              my_board.o
    0x08002a10   0x08002a10   0x00000130   Code   RO            4    i.main_circle_func  main.o
    0x08002b40   0x08002b40   0x000003f4   Code   RO          386    i.my_adc_init       my_board.o
    0x08002f34   0x08002f34   0x00000038   Code   RO            5    i.my_board_init     main.o
    0x08002f6c   0x08002f6c   0x00000754   Code   RO          387    i.my_pwm_init       my_board.o
    0x080036c0   0x080036c0   0x0000008c   Code   RO          447    i.my_pwm_update     my_board.o
    0x0800374c   0x0800374c   0x00000080   Code   RO          388    i.my_system_config  my_board.o
    0x080037cc   0x080037cc   0x00000016   Code   RO          590    i.oled_pow          oled.o
    0x080037e2   0x080037e2   0x00000010   Code   RO         5259    i.sin               m_wm.l(sin.o)
    0x080037f2   0x080037f2   0x0000003e   Code   RO         5271    i.sqrtf             m_wm.l(sqrtf.o)
    0x08003830   0x08003830   0x00000818   Data   RO          591    .constdata          oled.o
    0x08004048   0x08004048   0x00000030   Data   RO         5309    .constdata          m_wm.l(cos_i.o)
    0x08004078   0x08004078   0x000000c8   Data   RO         5327    .constdata          m_wm.l(rred.o)
    0x08004140   0x08004140   0x00000028   Data   RO         5331    .constdata          m_wm.l(sin_i.o)
    0x08004168   0x08004168   0x00000020   Data   RO         5386    Region$$Table       anon$$obj.o


    Execution Region RW_IRAM1 (Exec base: 0x20000000, Load base: 0x08004188, Size: 0x00001128, Max: 0x00002800, ABSOLUTE)

    Exec Addr    Load Addr    Size         Type   Attr      Idx    E Section Name        Object

    0x20000000   0x08004188   0x0000001a   Data   RW            7    .data               main.o
    0x2000001a   0x080041a2   0x00000002   PAD
    0x2000001c   0x080041a4   0x00000019   Data   RW          283    .data               system_stm32f30x.o
    0x20000035   0x080041bd   0x00000003   PAD
    0x20000038   0x080041c0   0x00000008   Data   RW          390    .data               my_board.o
    0x20000040   0x080041c8   0x00000004   Data   RW         5361    .data               mc_w.l(errno.o)
    0x20000044        -       0x00000078   Zero   RW          332    .bss                elab_subsystem.o
    0x200000bc        -       0x00000018   Zero   RW          356    .bss                key_elab.o
    0x200000d4        -       0x00000050   Zero   RW          389    .bss                my_board.o
    0x20000124   0x080041cc   0x00000004   PAD
    0x20000128        -       0x00001000   Zero   RW         5083    STACK               startup_stm32f334x8.o


==============================================================================

Image component sizes


      Code (inc. data)   RO Data    RW Data    ZI Data      Debug   Object Name

       220         42          0          0          0       3258   dr_led.o
       746         94          0          0        120       2760   elab_subsystem.o
       196         12          0          0          0       1182   key.o
         4          0          0          0         24       1638   key_elab.o
       660         58          0         26          0     351529   main.o
      3234         94          0          8         80      33311   my_board.o
      1400         32       2072          0          0      10419   oled.o
        36          8        392          0       4096        836   startup_stm32f334x8.o
       658         36          0          0          0       8489   stm32f30x_adc.o
       442          8          0          0          0       3943   stm32f30x_dma.o
       246          0          0          0          0       3523   stm32f30x_gpio.o
      1412         24          0          0          0      13356   stm32f30x_hrtim.o
       112         12          0          0          0       1044   stm32f30x_misc.o
       172         28          0          0          0       2858   stm32f30x_rcc.o
        34          0          0          0          0       4697   stm32f3xx_it.o
       376         38          0         25          0       2835   system_stm32f30x.o

    ----------------------------------------------------------------------
      9964        486       2496         64       4324     445678   Object Totals
         0          0         32          0          0          0   (incl. Generated)
        16          0          0          5          4          0   (incl. Padding)

    ----------------------------------------------------------------------

      Code (inc. data)   RO Data    RW Data    ZI Data      Debug   Library Member Name

       368         46         48          0          0        200   cos_i.o
        84         16          0          0          0        372   dunder.o
        24          0          0          0          0        124   fabs.o
        48          0          0          0          0        124   fpclassify.o
       248          0          0          0          0        152   poly.o
      1080        142        200          0          0        188   rred.o
       216         20          0          0          0        288   sin.o
       304         24         40          0          0        208   sin_i.o
        62          0          0          0          0        136   sqrtf.o
         0          0          0          0          0          0   entry.o
         0          0          0          0          0          0   entry10a.o
         0          0          0          0          0          0   entry11a.o
         4          0          0          0          0          0   entry12b.o
         8          4          0          0          0          0   entry2.o
         4          0          0          0          0          0   entry5.o
         0          0          0          0          0          0   entry7b.o
         0          0          0          0          0          0   entry8b.o
         8          4          0          0          0          0   entry9a.o
        12          6          0          4          0         68   errno.o
        30          0          0          0          0          0   handlers.o
        36          8          0          0          0         68   init.o
         0          0          0          0          0          0   iusefp.o
        30          0          0          0          0         68   llshl.o
        36          0          0          0          0         68   llsshr.o
        32          0          0          0          0         68   llushr.o
        36          0          0          0          0        108   memseta.o
        56          0          0          0          0         88   d2f.o
       334          0          0          0          0        148   dadd.o
       222          0          0          0          0        100   ddiv.o
       186          0          0          0          0        176   depilogue.o
        62          0          0          0          0         80   dfixi.o
        50          0          0          0          0         76   dfixui.o
        34          0          0          0          0         76   dflti.o
        26          0          0          0          0         76   dfltui.o
       228          0          0          0          0         96   dmul.o
        38          0          0          0          0         68   f2d.o
       110          0          0          0          0        168   fepilogue.o

    ----------------------------------------------------------------------
      4028        270        288          4          0       3392   Library Totals
        12          0          0          0          0          0   (incl. Padding)

    ----------------------------------------------------------------------

      Code (inc. data)   RO Data    RW Data    ZI Data      Debug   Library Name

      2434        248        288          0          0       1792   m_wm.l
       236         22          0          4          0        448   mc_w.l
      1346          0          0          0          0       1152   mf_w.l

    ----------------------------------------------------------------------
      4028        270        288          4          0       3392   Library Totals

    ----------------------------------------------------------------------

==============================================================================


      Code (inc. data)   RO Data    RW Data    ZI Data      Debug   

     13992        756       2784         68       4324     438146   Grand Totals
     13992        756       2784         68       4324     438146   ELF Image Totals
     13992        756       2784         68          0          0   ROM Totals

==============================================================================

    Total RO  Size (Code + RO Data)                16776 (  16.38kB)
    Total RW  Size (RW Data + ZI Data)              4392 (   4.29kB)
    Total ROM Size (Code + RO Data + RW Data)      16844 (  16.45kB)

==============================================================================

